{
    "contractName": "BirdFarm",
    "abi": [
        {
            "inputs": [
                {
                    "internalType": "contract IERC20",
                    "name": "_rewardToken",
                    "type": "address"
                }
            ],
            "stateMutability": "nonpayable",
            "type": "constructor"
        },
        {
            "anonymous": false,
            "inputs": [
                {
                    "indexed": false,
                    "internalType": "uint256",
                    "name": "amount",
                    "type": "uint256"
                }
            ],
            "name": "AddedRewardTokensToContract",
            "type": "event"
        },
        {
            "anonymous": false,
            "inputs": [
                {
                    "indexed": true,
                    "internalType": "address",
                    "name": "user",
                    "type": "address"
                },
                {
                    "indexed": true,
                    "internalType": "uint256",
                    "name": "pid",
                    "type": "uint256"
                },
                {
                    "indexed": false,
                    "internalType": "uint256",
                    "name": "amount",
                    "type": "uint256"
                }
            ],
            "name": "Deposit",
            "type": "event"
        },
        {
            "anonymous": false,
            "inputs": [
                {
                    "indexed": true,
                    "internalType": "address",
                    "name": "user",
                    "type": "address"
                },
                {
                    "indexed": true,
                    "internalType": "uint256",
                    "name": "pid",
                    "type": "uint256"
                },
                {
                    "indexed": false,
                    "internalType": "uint256",
                    "name": "amount",
                    "type": "uint256"
                }
            ],
            "name": "EmergencyWithdraw",
            "type": "event"
        },
        {
            "anonymous": false,
            "inputs": [
                {
                    "indexed": false,
                    "internalType": "uint256",
                    "name": "endRewardBlock",
                    "type": "uint256"
                }
            ],
            "name": "EndRewardBlockChanged",
            "type": "event"
        },
        {
            "anonymous": false,
            "inputs": [
                {
                    "indexed": true,
                    "internalType": "address",
                    "name": "user",
                    "type": "address"
                },
                {
                    "indexed": true,
                    "internalType": "uint256",
                    "name": "pid",
                    "type": "uint256"
                },
                {
                    "indexed": false,
                    "internalType": "uint256",
                    "name": "amount",
                    "type": "uint256"
                }
            ],
            "name": "Harvest",
            "type": "event"
        },
        {
            "anonymous": false,
            "inputs": [
                {
                    "indexed": false,
                    "internalType": "contract IERC20",
                    "name": "rewardToken",
                    "type": "address"
                },
                {
                    "indexed": false,
                    "internalType": "uint256",
                    "name": "rewardTokenPerBlock",
                    "type": "uint256"
                },
                {
                    "indexed": false,
                    "internalType": "uint256",
                    "name": "startRewardBlock",
                    "type": "uint256"
                },
                {
                    "indexed": false,
                    "internalType": "uint256",
                    "name": "endRewardBlock",
                    "type": "uint256"
                },
                {
                    "indexed": false,
                    "internalType": "uint256",
                    "name": "unstakeFrozenTime",
                    "type": "uint256"
                },
                {
                    "indexed": false,
                    "internalType": "uint256",
                    "name": "rewardFrozenTime",
                    "type": "uint256"
                }
            ],
            "name": "ManyValuesChanged",
            "type": "event"
        },
        {
            "anonymous": false,
            "inputs": [
                {
                    "indexed": true,
                    "internalType": "address",
                    "name": "previousOwner",
                    "type": "address"
                },
                {
                    "indexed": true,
                    "internalType": "address",
                    "name": "newOwner",
                    "type": "address"
                }
            ],
            "name": "OwnershipTransferred",
            "type": "event"
        },
        {
            "anonymous": false,
            "inputs": [
                {
                    "indexed": false,
                    "internalType": "uint256",
                    "name": "allocPoint",
                    "type": "uint256"
                },
                {
                    "indexed": false,
                    "internalType": "contract IERC20",
                    "name": "poolToken",
                    "type": "address"
                },
                {
                    "indexed": false,
                    "internalType": "bool",
                    "name": "withUpdate",
                    "type": "bool"
                }
            ],
            "name": "PoolAdded",
            "type": "event"
        },
        {
            "anonymous": false,
            "inputs": [
                {
                    "indexed": false,
                    "internalType": "uint256",
                    "name": "rewardFrozenTime",
                    "type": "uint256"
                }
            ],
            "name": "RewardFrozenTimeChanged",
            "type": "event"
        },
        {
            "anonymous": false,
            "inputs": [
                {
                    "indexed": false,
                    "internalType": "contract IERC20",
                    "name": "rewardToken",
                    "type": "address"
                }
            ],
            "name": "RewardTokenChanged",
            "type": "event"
        },
        {
            "anonymous": false,
            "inputs": [
                {
                    "indexed": false,
                    "internalType": "uint256",
                    "name": "rewardTokenPerBlock",
                    "type": "uint256"
                }
            ],
            "name": "RewardTokenPerBlockChanged",
            "type": "event"
        },
        {
            "anonymous": false,
            "inputs": [
                {
                    "indexed": false,
                    "internalType": "uint256",
                    "name": "startRewardBlock",
                    "type": "uint256"
                }
            ],
            "name": "StartRewardBlockChanged",
            "type": "event"
        },
        {
            "anonymous": false,
            "inputs": [
                {
                    "indexed": false,
                    "internalType": "uint256",
                    "name": "unstakeFrozenTime",
                    "type": "uint256"
                }
            ],
            "name": "UnstakeFrozenTimeChanged",
            "type": "event"
        },
        {
            "anonymous": false,
            "inputs": [
                {
                    "indexed": true,
                    "internalType": "address",
                    "name": "user",
                    "type": "address"
                },
                {
                    "indexed": true,
                    "internalType": "uint256",
                    "name": "pid",
                    "type": "uint256"
                },
                {
                    "indexed": false,
                    "internalType": "uint256",
                    "name": "amount",
                    "type": "uint256"
                }
            ],
            "name": "Withdraw",
            "type": "event"
        },
        {
            "anonymous": false,
            "inputs": [
                {
                    "indexed": false,
                    "internalType": "uint256",
                    "name": "amount",
                    "type": "uint256"
                }
            ],
            "name": "WithdrawnRewardTokensFromContract",
            "type": "event"
        },
        {
            "inputs": [],
            "name": "MAX_UINT",
            "outputs": [
                {
                    "internalType": "uint256",
                    "name": "",
                    "type": "uint256"
                }
            ],
            "stateMutability": "view",
            "type": "function"
        },
        {
            "inputs": [
                {
                    "internalType": "uint256",
                    "name": "_allocPoint",
                    "type": "uint256"
                },
                {
                    "internalType": "contract IERC20",
                    "name": "_poolToken",
                    "type": "address"
                },
                {
                    "internalType": "bool",
                    "name": "_withUpdate",
                    "type": "bool"
                }
            ],
            "name": "addPool",
            "outputs": [],
            "stateMutability": "nonpayable",
            "type": "function"
        },
        {
            "inputs": [
                {
                    "internalType": "uint256",
                    "name": "_amount",
                    "type": "uint256"
                }
            ],
            "name": "addRewardTokensToContract",
            "outputs": [],
            "stateMutability": "nonpayable",
            "type": "function"
        },
        {
            "inputs": [
                {
                    "internalType": "uint256",
                    "name": "_pid",
                    "type": "uint256"
                },
                {
                    "internalType": "uint256",
                    "name": "_amount",
                    "type": "uint256"
                }
            ],
            "name": "deposit",
            "outputs": [],
            "stateMutability": "nonpayable",
            "type": "function"
        },
        {
            "inputs": [
                {
                    "internalType": "uint256",
                    "name": "_pid",
                    "type": "uint256"
                }
            ],
            "name": "emergencyWithdraw",
            "outputs": [],
            "stateMutability": "nonpayable",
            "type": "function"
        },
        {
            "inputs": [],
            "name": "endRewardBlock",
            "outputs": [
                {
                    "internalType": "uint256",
                    "name": "",
                    "type": "uint256"
                }
            ],
            "stateMutability": "view",
            "type": "function"
        },
        {
            "inputs": [
                {
                    "internalType": "uint256",
                    "name": "_pid",
                    "type": "uint256"
                }
            ],
            "name": "harvestPendingReward",
            "outputs": [],
            "stateMutability": "nonpayable",
            "type": "function"
        },
        {
            "inputs": [
                {
                    "internalType": "uint256",
                    "name": "_pid",
                    "type": "uint256"
                }
            ],
            "name": "migrate",
            "outputs": [],
            "stateMutability": "nonpayable",
            "type": "function"
        },
        {
            "inputs": [],
            "name": "migrator",
            "outputs": [
                {
                    "internalType": "contract IMigratorChef",
                    "name": "",
                    "type": "address"
                }
            ],
            "stateMutability": "view",
            "type": "function"
        },
        {
            "inputs": [],
            "name": "owner",
            "outputs": [
                {
                    "internalType": "address",
                    "name": "",
                    "type": "address"
                }
            ],
            "stateMutability": "view",
            "type": "function"
        },
        {
            "inputs": [
                {
                    "internalType": "uint256",
                    "name": "_pid",
                    "type": "uint256"
                },
                {
                    "internalType": "address",
                    "name": "_user",
                    "type": "address"
                }
            ],
            "name": "pendingRewardToken",
            "outputs": [
                {
                    "internalType": "uint256",
                    "name": "",
                    "type": "uint256"
                }
            ],
            "stateMutability": "view",
            "type": "function"
        },
        {
            "inputs": [
                {
                    "internalType": "uint256",
                    "name": "",
                    "type": "uint256"
                }
            ],
            "name": "poolInfo",
            "outputs": [
                {
                    "internalType": "contract IERC20",
                    "name": "poolToken",
                    "type": "address"
                },
                {
                    "internalType": "uint256",
                    "name": "allocPoint",
                    "type": "uint256"
                },
                {
                    "internalType": "uint256",
                    "name": "lastRewardBlock",
                    "type": "uint256"
                },
                {
                    "internalType": "uint256",
                    "name": "accRewardTokenPerShare",
                    "type": "uint256"
                }
            ],
            "stateMutability": "view",
            "type": "function"
        },
        {
            "inputs": [],
            "name": "poolLength",
            "outputs": [
                {
                    "internalType": "uint256",
                    "name": "",
                    "type": "uint256"
                }
            ],
            "stateMutability": "view",
            "type": "function"
        },
        {
            "inputs": [],
            "name": "renounceOwnership",
            "outputs": [],
            "stateMutability": "nonpayable",
            "type": "function"
        },
        {
            "inputs": [],
            "name": "rewardFrozenTime",
            "outputs": [
                {
                    "internalType": "uint256",
                    "name": "",
                    "type": "uint256"
                }
            ],
            "stateMutability": "view",
            "type": "function"
        },
        {
            "inputs": [],
            "name": "rewardToken",
            "outputs": [
                {
                    "internalType": "contract IERC20",
                    "name": "",
                    "type": "address"
                }
            ],
            "stateMutability": "view",
            "type": "function"
        },
        {
            "inputs": [],
            "name": "rewardTokenPerBlock",
            "outputs": [
                {
                    "internalType": "uint256",
                    "name": "",
                    "type": "uint256"
                }
            ],
            "stateMutability": "view",
            "type": "function"
        },
        {
            "inputs": [
                {
                    "internalType": "contract IERC20",
                    "name": "_rewardToken",
                    "type": "address"
                },
                {
                    "internalType": "uint256",
                    "name": "_rewardTokenPerBlock",
                    "type": "uint256"
                },
                {
                    "internalType": "uint256",
                    "name": "_startRewardBlock",
                    "type": "uint256"
                },
                {
                    "internalType": "uint256",
                    "name": "_endRewardBlock",
                    "type": "uint256"
                },
                {
                    "internalType": "uint256",
                    "name": "_unstakeFrozenTime",
                    "type": "uint256"
                },
                {
                    "internalType": "uint256",
                    "name": "_rewardFrozenTime",
                    "type": "uint256"
                }
            ],
            "name": "setAll",
            "outputs": [],
            "stateMutability": "nonpayable",
            "type": "function"
        },
        {
            "inputs": [
                {
                    "internalType": "uint256",
                    "name": "_pid",
                    "type": "uint256"
                },
                {
                    "internalType": "uint256",
                    "name": "_allocPoint",
                    "type": "uint256"
                },
                {
                    "internalType": "bool",
                    "name": "_withUpdate",
                    "type": "bool"
                }
            ],
            "name": "setAllocPoint",
            "outputs": [],
            "stateMutability": "nonpayable",
            "type": "function"
        },
        {
            "inputs": [
                {
                    "internalType": "uint256",
                    "name": "_endRewardBlock",
                    "type": "uint256"
                }
            ],
            "name": "setEndRewardBlock",
            "outputs": [],
            "stateMutability": "nonpayable",
            "type": "function"
        },
        {
            "inputs": [
                {
                    "internalType": "contract IMigratorChef",
                    "name": "_migrator",
                    "type": "address"
                }
            ],
            "name": "setMigrator",
            "outputs": [],
            "stateMutability": "nonpayable",
            "type": "function"
        },
        {
            "inputs": [
                {
                    "internalType": "uint256",
                    "name": "_rewardFrozenTime",
                    "type": "uint256"
                }
            ],
            "name": "setRewardFrozenTime",
            "outputs": [],
            "stateMutability": "nonpayable",
            "type": "function"
        },
        {
            "inputs": [
                {
                    "internalType": "contract IERC20",
                    "name": "_rewardToken",
                    "type": "address"
                }
            ],
            "name": "setRewardToken",
            "outputs": [],
            "stateMutability": "nonpayable",
            "type": "function"
        },
        {
            "inputs": [
                {
                    "internalType": "uint256",
                    "name": "_rewardTokenPerBlock",
                    "type": "uint256"
                }
            ],
            "name": "setRewardTokenPerBlock",
            "outputs": [],
            "stateMutability": "nonpayable",
            "type": "function"
        },
        {
            "inputs": [
                {
                    "internalType": "uint256",
                    "name": "_startRewardBlock",
                    "type": "uint256"
                }
            ],
            "name": "setStartRewardBlock",
            "outputs": [],
            "stateMutability": "nonpayable",
            "type": "function"
        },
        {
            "inputs": [
                {
                    "internalType": "uint256",
                    "name": "_unstakeFrozenTime",
                    "type": "uint256"
                }
            ],
            "name": "setUnstakeFrozenTime",
            "outputs": [],
            "stateMutability": "nonpayable",
            "type": "function"
        },
        {
            "inputs": [],
            "name": "startRewardBlock",
            "outputs": [
                {
                    "internalType": "uint256",
                    "name": "",
                    "type": "uint256"
                }
            ],
            "stateMutability": "view",
            "type": "function"
        },
        {
            "inputs": [],
            "name": "totalAllocPoint",
            "outputs": [
                {
                    "internalType": "uint256",
                    "name": "",
                    "type": "uint256"
                }
            ],
            "stateMutability": "view",
            "type": "function"
        },
        {
            "inputs": [
                {
                    "internalType": "address",
                    "name": "newOwner",
                    "type": "address"
                }
            ],
            "name": "transferOwnership",
            "outputs": [],
            "stateMutability": "nonpayable",
            "type": "function"
        },
        {
            "inputs": [
                {
                    "internalType": "contract IERC20",
                    "name": "",
                    "type": "address"
                }
            ],
            "name": "uniqueTokenInPool",
            "outputs": [
                {
                    "internalType": "bool",
                    "name": "",
                    "type": "bool"
                }
            ],
            "stateMutability": "view",
            "type": "function"
        },
        {
            "inputs": [],
            "name": "unstakeFrozenTime",
            "outputs": [
                {
                    "internalType": "uint256",
                    "name": "",
                    "type": "uint256"
                }
            ],
            "stateMutability": "view",
            "type": "function"
        },
        {
            "inputs": [
                {
                    "internalType": "uint256",
                    "name": "",
                    "type": "uint256"
                },
                {
                    "internalType": "address",
                    "name": "",
                    "type": "address"
                }
            ],
            "name": "userInfo",
            "outputs": [
                {
                    "internalType": "uint256",
                    "name": "amount",
                    "type": "uint256"
                },
                {
                    "internalType": "uint256",
                    "name": "rewardDebt",
                    "type": "uint256"
                },
                {
                    "internalType": "uint256",
                    "name": "unstakeTime",
                    "type": "uint256"
                }
            ],
            "stateMutability": "view",
            "type": "function"
        },
        {
            "inputs": [
                {
                    "internalType": "uint256",
                    "name": "_pid",
                    "type": "uint256"
                },
                {
                    "internalType": "uint256",
                    "name": "_amount",
                    "type": "uint256"
                }
            ],
            "name": "withdraw",
            "outputs": [],
            "stateMutability": "nonpayable",
            "type": "function"
        },
        {
            "inputs": [
                {
                    "internalType": "uint256",
                    "name": "_amount",
                    "type": "uint256"
                }
            ],
            "name": "withdrawRewardTokensFromContract",
            "outputs": [],
            "stateMutability": "nonpayable",
            "type": "function"
        }
    ],
    "bytecode": "608060405260006001556000600255600060035560001960045568056bc75e2d631000006005556000600b5534801561003757600080fd5b5060405162002976380380620029768339818101604052602081101561005c57600080fd5b505160006100686100d7565b600080546001600160a01b0319166001600160a01b0383169081178255604051929350917f8be0079c531659141344cd1fd0a4f28419497f9722a3daafe3b4186f6b6457e0908290a350600680546001600160a01b0319166001600160a01b03929092169190911790556100db565b3390565b61288b80620000eb6000396000f3fe608060405234801561001057600080fd5b50600436106102065760003560e01c80637cd07e471161011a578063c9cc2e8e116100ad578063e2bbb1581161007c578063e2bbb158146105b4578063e5b5019a146105d7578063f2fde38b146105df578063f7c618c114610605578063feb9d4c91461060d57610206565b8063c9cc2e8e14610538578063d344270514610555578063d74069651461058f578063d7ed714e146105ac57610206565b80638aee8127116100e95780638aee8127146104955780638da5cb5b146104bb57806393f1a40b146104c3578063a0f992031461050d57610206565b80637cd07e47146104445780637ffc319b1461046857806381fa561a14610485578063838e9c761461048d57610206565b8063454b06081161019d578063580aceee1161016c578063580aceee146103b157806362b9e098146103ce5780636e29544a146103eb578063715018a6146104085780637abceffd1461041057610206565b8063454b0608146103525780634e3629661461036f5780635312ea8e1461038c578063554c798a146103a957610206565b806317eba6db116101d957806317eba6db146102a657806323cf3118146102ec5780634030381514610312578063441a3e701461032f57610206565b8063081e3eda1461020b5780631526fe27146102255780631653fd331461027257806317caf6f11461029e575b600080fd5b610213610615565b60408051918252519081900360200190f35b6102426004803603602081101561023b57600080fd5b503561061b565b604080516001600160a01b0390951685526020850193909352838301919091526060830152519081900360800190f35b6102136004803603604081101561028857600080fd5b50803590602001356001600160a01b031661065c565b6102136107c6565b6102ea600480360360c08110156102bc57600080fd5b506001600160a01b038135169060208101359060408101359060608101359060808101359060a001356107cc565b005b6102ea6004803603602081101561030257600080fd5b50356001600160a01b03166108c2565b6102ea6004803603602081101561032857600080fd5b5035610946565b6102ea6004803603604081101561034557600080fd5b5080359060200135610cbd565b6102ea6004803603602081101561036857600080fd5b5035610f4c565b6102ea6004803603602081101561038557600080fd5b5035611210565b6102ea600480360360208110156103a257600080fd5b50356112ee565b610213611427565b6102ea600480360360208110156103c757600080fd5b503561142d565b6102ea600480360360208110156103e457600080fd5b5035611586565b6102ea6004803603602081101561040157600080fd5b5035611664565b6102ea6117b7565b6102ea6004803603606081101561042657600080fd5b508035906001600160a01b0360208201351690604001351515611863565b61044c611aaa565b604080516001600160a01b039092168252519081900360200190f35b6102ea6004803603602081101561047e57600080fd5b5035611ab9565b610213611b56565b610213611b5c565b6102ea600480360360208110156104ab57600080fd5b50356001600160a01b0316611b62565b61044c611c18565b6104ef600480360360408110156104d957600080fd5b50803590602001356001600160a01b0316611c27565b60408051938452602084019290925282820152519081900360600190f35b6102ea6004803603606081101561052357600080fd5b50803590602081013590604001351515611c53565b6102ea6004803603602081101561054e57600080fd5b5035611d2e565b61057b6004803603602081101561056b57600080fd5b50356001600160a01b0316611dcb565b604080519115158252519081900360200190f35b6102ea600480360360208110156105a557600080fd5b5035611de0565b610213611e7d565b6102ea600480360360408110156105ca57600080fd5b5080359060200135611e83565b61021361215b565b6102ea600480360360208110156105f557600080fd5b50356001600160a01b0316612161565b61044c612263565b610213612272565b60075490565b6007818154811061062857fe5b600091825260209091206004909102018054600182015460028301546003909301546001600160a01b039092169350919084565b6000806007848154811061066c57fe5b600091825260208083208784526009825260408085206001600160a01b03898116875290845281862060049586029093016003810154815484516370a0823160e01b81523098810198909852935191985093969395939492909116926370a08231926024808301939192829003018186803b1580156106ea57600080fd5b505afa1580156106fe573d6000803e3d6000fd5b505050506040513d602081101561071457600080fd5b5051600285015490915060009061072b9043612278565b90506000610767600b5461076164e8d4a5100061075b8a6001015461075b600554896122ba90919063ffffffff16565b906122ba565b9061231a565b905061077d610776828561231a565b8590612381565b93506107ad85600101546107a764e8d4a51000610761888a600001546122ba90919063ffffffff16565b906123db565b6107b68a612438565b0196505050505050505b92915050565b600b5481565b6107d4612455565b6001600160a01b03166107e5611c18565b6001600160a01b03161461082e576040805162461bcd60e51b81526020600482018190526024820152600080516020612761833981519152604482015290519081900360640190fd5b600680546001600160a01b0388166001600160a01b03199091168117909155600586905560038590556004849055600183905560028290556040805191825260208201879052818101869052606082018590526080820184905260a08201839052517f80b27aaf58209ccce71f6cefbccba05da9452108c8338837db4686ed818f90579181900360c00190a1505050505050565b6108ca612455565b6001600160a01b03166108db611c18565b6001600160a01b031614610924576040805162461bcd60e51b81526020600482018190526024820152600080516020612761833981519152604482015290519081900360640190fd5b600d80546001600160a01b0319166001600160a01b0392909216919091179055565b336000908152600c602052604090205460ff166109945760405162461bcd60e51b81526004018080602001828103825260568152602001806126ea6056913960600191505060405180910390fd5b6000600782815481106109a357fe5b60009182526020808320858452600982526040808520338652909252922060025460049092029092019250421015610a0c5760405162461bcd60e51b81526004018080602001828103825260248152602001806127ab6024913960400191505060405180910390fd5b610a1583612459565b6000610a4382600101546107a764e8d4a51000610761876003015487600001546122ba90919063ffffffff16565b90506000610a5085612438565b905060008111610aa7576040805162461bcd60e51b815260206004820152601b60248201527f596f752068617665206e6f2070656e64696e67207265776172642e0000000000604482015290519081900360640190fd5b610ab233868461258e565b60038401548354610acd9164e8d4a5100091610761916122ba565b6001840155600654604080516370a0823160e01b8152306004820152905183926001600160a01b0316916370a08231916024808301926020929190829003018186803b158015610b1c57600080fd5b505afa158015610b30573d6000803e3d6000fd5b505050506040513d6020811015610b4657600080fd5b505111610b845760405162461bcd60e51b81526004018080602001828103825260248152602001806128056024913960400191505060405180910390fd5b610b903386600061258e565b8254610bae57336000908152600c60205260409020805460ff191690555b6006546040805163a9059cbb60e01b81523360048201526024810184905290516001600160a01b039092169163a9059cbb916044808201926020929091908290030181600087803b158015610c0257600080fd5b505af1158015610c16573d6000803e3d6000fd5b505050506040513d6020811015610c2c57600080fd5b5051610c7f576040805162461bcd60e51b815260206004820152601d60248201527f4572726f7220696e207472616e7366657272696e67207265776172642e000000604482015290519081900360640190fd5b604080518281529051869133917f71bab65ced2e5750775a0613be067df48ef06cf92a496ebf7663ae06609249549181900360200190a35050505050565b60008111610cfc5760405162461bcd60e51b81526004018080602001828103825260238152602001806126c76023913960400191505060405180910390fd5b600060078381548110610d0b57fe5b600091825260208083208684526009825260408085203386529092529220805460049092029092019250831115610d735760405162461bcd60e51b81526004018080602001828103825260338152602001806125df6033913960400191505060405180910390fd5b8060020154421015610dcc576040805162461bcd60e51b815260206004820152601d60248201527f43616e206e6f7420756e7374616b6520617420746869732074696d652e000000604482015290519081900360640190fd5b610dd584612459565b6000610e0382600101546107a764e8d4a51000610761876003015487600001546122ba90919063ffffffff16565b9050610e1033868361258e565b8154610e1c90856123db565b8083556003840154610e399164e8d4a510009161076191906122ba565b600183015582546040805163a9059cbb60e01b81523360048201526024810187905290516001600160a01b039092169163a9059cbb916044808201926020929091908290030181600087803b158015610e9157600080fd5b505af1158015610ea5573d6000803e3d6000fd5b505050506040513d6020811015610ebb57600080fd5b5051610f0e576040805162461bcd60e51b815260206004820152601e60248201527f4572726f7220696e20776974686472617720706f6f6c20746f6b656e732e0000604482015290519081900360640190fd5b604080518581529051869133917ff279e6a1f5e320cca91135676d9cb6e44ca8a08c0b88342bcdb1144f6511b5689181900360200190a35050505050565b600d546001600160a01b0316610fa0576040805162461bcd60e51b815260206004820152601460248201527336b4b3b930ba329d1037379036b4b3b930ba37b960611b604482015290519081900360640190fd5b600060078281548110610faf57fe5b600091825260208083206004928302018054604080516370a0823160e01b81523095810195909552519195506001600160a01b0316939284926370a0823192602480840193829003018186803b15801561100857600080fd5b505afa15801561101c573d6000803e3d6000fd5b505050506040513d602081101561103257600080fd5b5051600d546040805163095ea7b360e01b81526001600160a01b0392831660048201526024810184905290519293509084169163095ea7b3916044808201926020929091908290030181600087803b15801561108d57600080fd5b505af11580156110a1573d6000803e3d6000fd5b505050506040513d60208110156110b757600080fd5b5050600d546040805163ce5494bb60e01b81526001600160a01b0385811660048301529151600093929092169163ce5494bb9160248082019260209290919082900301818787803b15801561110b57600080fd5b505af115801561111f573d6000803e3d6000fd5b505050506040513d602081101561113557600080fd5b5051604080516370a0823160e01b815230600482015290519192506001600160a01b038316916370a0823191602480820192602092909190829003018186803b15801561118157600080fd5b505afa158015611195573d6000803e3d6000fd5b505050506040513d60208110156111ab57600080fd5b505182146111ef576040805162461bcd60e51b815260206004820152600c60248201526b1b5a59dc985d194e8818985960a21b604482015290519081900360640190fd5b83546001600160a01b0319166001600160a01b039190911617909255505050565b611218612455565b6001600160a01b0316611229611c18565b6001600160a01b031614611272576040805162461bcd60e51b81526020600482018190526024820152600080516020612761833981519152604482015290519081900360640190fd5b8060035411156112b35760405162461bcd60e51b81526004018080602001828103825260408152602001806126876040913960400191505060405180910390fd5b60048190556040805182815290517fe7d85683063a512b0ea7c9d84ce4ff33b516bc16b36f3dc5a98dd0b479d9f1319181900360200190a150565b6000600782815481106112fd57fe5b60009182526020808320858452600982526040808520338087529084528186208681556001810187905560049586029093018054835163a9059cbb60e01b81529687019290925260248601879052915191965091946001600160a01b039092169363a9059cbb936044808301949193928390030190829087803b15801561138357600080fd5b505af1158015611397573d6000803e3d6000fd5b505050506040513d60208110156113ad57600080fd5b50516113ea5760405162461bcd60e51b815260040180806020018281038252602d81526020018061265a602d913960400191505060405180910390fd5b80546040805191825251849133917fbb757047c2b5f3974fe26b7c10f732e7bce710b0952a71082702781e62ae05959181900360200190a3505050565b60055481565b611435612455565b6001600160a01b0316611446611c18565b6001600160a01b03161461148f576040805162461bcd60e51b81526020600482018190526024820152600080516020612761833981519152604482015290519081900360640190fd5b600654604080516323b872dd60e01b81523360048201523060248201526044810184905290516001600160a01b03909216916323b872dd916064808201926020929091908290030181600087803b1580156114e957600080fd5b505af11580156114fd573d6000803e3d6000fd5b505050506040513d602081101561151357600080fd5b50516115505760405162461bcd60e51b815260040180806020018281038252602a815260200180612781602a913960400191505060405180910390fd5b6040805182815290517f0f122fff8f6fbdfac3723c7c7376574360a75caaa0a4a6a78e52a46572ad20cf9181900360200190a150565b61158e612455565b6001600160a01b031661159f611c18565b6001600160a01b0316146115e8576040805162461bcd60e51b81526020600482018190526024820152600080516020612761833981519152604482015290519081900360640190fd5b6004548111156116295760405162461bcd60e51b81526004018080602001828103825260368152602001806127cf6036913960400191505060405180910390fd5b60038190556040805182815290517ff0b3b2831f479a7321e755a2b6ef2ae0b5e32985a8959e61ffaec437194f4d3a9181900360200190a150565b61166c612455565b6001600160a01b031661167d611c18565b6001600160a01b0316146116c6576040805162461bcd60e51b81526020600482018190526024820152600080516020612761833981519152604482015290519081900360640190fd5b6006546040805163a9059cbb60e01b81523360048201526024810184905290516001600160a01b039092169163a9059cbb916044808201926020929091908290030181600087803b15801561171a57600080fd5b505af115801561172e573d6000803e3d6000fd5b505050506040513d602081101561174457600080fd5b50516117815760405162461bcd60e51b815260040180806020018281038252602d815260200180612829602d913960400191505060405180910390fd5b6040805182815290517f61921e925aa4700226193db9b81dd3c05e15fd9a39a66bafad71cccf67a6a2889181900360200190a150565b6117bf612455565b6001600160a01b03166117d0611c18565b6001600160a01b031614611819576040805162461bcd60e51b81526020600482018190526024820152600080516020612761833981519152604482015290519081900360640190fd5b600080546040516001600160a01b03909116907f8be0079c531659141344cd1fd0a4f28419497f9722a3daafe3b4186f6b6457e0908390a3600080546001600160a01b0319169055565b61186b612455565b6001600160a01b031661187c611c18565b6001600160a01b0316146118c5576040805162461bcd60e51b81526020600482018190526024820152600080516020612761833981519152604482015290519081900360640190fd5b6001600160a01b03821660009081526008602052604090205460ff1615611929576040805162461bcd60e51b8152602060048201526013602482015272151bdad95b88185b1c9958591e481859191959606a1b604482015290519081900360640190fd5b8015611937576119376125bb565b6000600354431161194a5760035461194c565b435b600b5490915061195c9085612381565b600b55604080516080810182526001600160a01b03858116808352602080840189815284860187815260006060808801828152600780546001808201835591855299517fa66cc928b5edb82af9bd49922954155ab7b0942694bea4ce44661d9a8736c6886004909b029a8b0180546001600160a01b03191691909a161790985593517fa66cc928b5edb82af9bd49922954155ab7b0942694bea4ce44661d9a8736c68989015591517fa66cc928b5edb82af9bd49922954155ab7b0942694bea4ce44661d9a8736c68a88015591517fa66cc928b5edb82af9bd49922954155ab7b0942694bea4ce44661d9a8736c68b9096019590955582815260088252859020805460ff19169093179092558351888152918201528415158184015291517fb3af11fd81730e83a2f875e4903aad6d9b78e96c2c5461c9ec7c30abef8356c49281900390910190a150505050565b600d546001600160a01b031681565b611ac1612455565b6001600160a01b0316611ad2611c18565b6001600160a01b031614611b1b576040805162461bcd60e51b81526020600482018190526024820152600080516020612761833981519152604482015290519081900360640190fd5b60028190556040805182815290517faef38fc0702b0fad4b1dfce7e29092e26412be5abfadfabb118c6124d8880b6d9181900360200190a150565b60045481565b60015481565b611b6a612455565b6001600160a01b0316611b7b611c18565b6001600160a01b031614611bc4576040805162461bcd60e51b81526020600482018190526024820152600080516020612761833981519152604482015290519081900360640190fd5b600680546001600160a01b0383166001600160a01b0319909116811790915560408051918252517fb74d956cf6ec7842d08ebf0ab19ec03a88c1efd4a50ea4349d30f9c4ce512e989181900360200190a150565b6000546001600160a01b031690565b600960209081526000928352604080842090915290825290208054600182015460029092015490919083565b611c5b612455565b6001600160a01b0316611c6c611c18565b6001600160a01b031614611cb5576040805162461bcd60e51b81526020600482018190526024820152600080516020612761833981519152604482015290519081900360640190fd5b8015611cc357611cc36125bb565b611d0082611cfa60078681548110611cd757fe5b906000526020600020906004020160010154600b546123db90919063ffffffff16565b90612381565b600b819055508160078481548110611d1457fe5b906000526020600020906004020160010181905550505050565b611d36612455565b6001600160a01b0316611d47611c18565b6001600160a01b031614611d90576040805162461bcd60e51b81526020600482018190526024820152600080516020612761833981519152604482015290519081900360640190fd5b60018190556040805182815290517f9e009f63830ca738bff6fbc38990622b83298c321dceb9b8c064b903c066db6d9181900360200190a150565b60086020526000908152604090205460ff1681565b611de8612455565b6001600160a01b0316611df9611c18565b6001600160a01b031614611e42576040805162461bcd60e51b81526020600482018190526024820152600080516020612761833981519152604482015290519081900360640190fd5b60058190556040805182815290517f0914eb57aaf7dc30fb65a4997a39040c8c91ebe3bdd5226dde439f7a5fefaf6a9181900360200190a150565b60035481565b60008111611ec25760405162461bcd60e51b81526004018080602001828103825260228152602001806126386022913960400191505060405180910390fd5b600060078381548110611ed157fe5b6000918252602080832086845260098252604080852033808752908452948190206004948502909201805482516370a0823160e01b8152958601969096529051909550909386936001600160a01b03909116926370a0823192602480840193829003018186803b158015611f4457600080fd5b505afa158015611f58573d6000803e3d6000fd5b505050506040513d6020811015611f6e57600080fd5b50511015611fad5760405162461bcd60e51b81526004018080602001828103825260228152602001806126386022913960400191505060405180910390fd5b611fb684612459565b6000611fe482600101546107a764e8d4a51000610761876003015487600001546122ba90919063ffffffff16565b9050611ff133868361258e565b815461200257600154420160028301555b336000908152600c60205260409020805460ff1916905581546120259085612381565b80835560038401546120429164e8d4a510009161076191906122ba565b60018301558254604080516323b872dd60e01b81523360048201523060248201526044810187905290516001600160a01b03909216916323b872dd916064808201926020929091908290030181600087803b1580156120a057600080fd5b505af11580156120b4573d6000803e3d6000fd5b505050506040513d60208110156120ca57600080fd5b505161211d576040805162461bcd60e51b815260206004820181905260248201527f4572726f7220696e206465706f736974206f6620706f6f6c20746f6b656e732e604482015290519081900360640190fd5b604080518581529051869133917f90890809c654f11d6e72a28fa60149770a0d11ec6c92319d6ceb2bb0a4ea1a159181900360200190a35050505050565b60001981565b612169612455565b6001600160a01b031661217a611c18565b6001600160a01b0316146121c3576040805162461bcd60e51b81526020600482018190526024820152600080516020612761833981519152604482015290519081900360640190fd5b6001600160a01b0381166122085760405162461bcd60e51b81526004018080602001828103825260268152602001806126126026913960400191505060405180910390fd5b600080546040516001600160a01b03808516939216917f8be0079c531659141344cd1fd0a4f28419497f9722a3daafe3b4186f6b6457e091a3600080546001600160a01b0319166001600160a01b0392909216919091179055565b6006546001600160a01b031681565b60025481565b600080600354841061228a578361228e565b6003545b9050600060045484116122a157836122a5565b6004545b90506122b181836123db565b95945050505050565b6000826122c9575060006107c0565b828202828482816122d657fe5b04146123135760405162461bcd60e51b81526004018080602001828103825260218152602001806127406021913960400191505060405180910390fd5b9392505050565b6000808211612370576040805162461bcd60e51b815260206004820152601a60248201527f536166654d6174683a206469766973696f6e206279207a65726f000000000000604482015290519081900360640190fd5b81838161237957fe5b049392505050565b600082820183811015612313576040805162461bcd60e51b815260206004820152601b60248201527f536166654d6174683a206164646974696f6e206f766572666c6f770000000000604482015290519081900360640190fd5b600082821115612432576040805162461bcd60e51b815260206004820152601e60248201527f536166654d6174683a207375627472616374696f6e206f766572666c6f770000604482015290519081900360640190fd5b50900390565b336000908152600a60209081526040808320938352929052205490565b3390565b60006007828154811061246857fe5b90600052602060002090600402019050600354431080612489575060045443115b15612494575061258b565b8054604080516370a0823160e01b815230600482015290516000926001600160a01b0316916370a08231916024808301926020929190829003018186803b1580156124de57600080fd5b505afa1580156124f2573d6000803e3d6000fd5b505050506040513d602081101561250857600080fd5b505190508061251e57504360029091015561258b565b600061252e836002015443612278565b9050600061255e600b5461076164e8d4a5100061075b886001015461075b600554896122ba90919063ffffffff16565b905061257861256d828561231a565b600386015490612381565b6003850155505043600290920191909155505b50565b6001600160a01b03929092166000908152600a602090815260408083209383529290522080549091019055565b60075460005b818110156125da576125d281612459565b6001016125c1565b505056fe596f752068617665206c65737320706f6f6c20746f6b656e7320617661696c61626c65207468616e207265717565737465642e4f776e61626c653a206e6577206f776e657220697320746865207a65726f20616464726573734d757374206465706f73697420616d6f756e74206d6f7265207468616e205a45524f4572726f7220696e20656d657267656e6379207769746864726177206f66207374616b656420746f6b656e732e456e642072657761726420626c6f636b206d7573742062652067726561746572206f7220657175616c20746f2073746172742072657761726420626c6f636b2e4d75737420776974686472617720616d6f756e74206d6f7265207468616e205a45524f596f75206861766520616c7265616479206861727665737465642e204465706f73697420736f6d6520706f6f6c20746f6b656e7320746f206765742072657761726420616e642068617276657374207265776172642e536166654d6174683a206d756c7469706c69636174696f6e206f766572666c6f774f776e61626c653a2063616c6c6572206973206e6f7420746865206f776e65724572726f7220696e20616464696e672072657761726420746f6b656e7320696e20636f6e74726163742e43616e206e6f7420636f6c6c6563742072657761726420617420746869732074696d652e537461727420626c6f636b206d757374206265206c657373206f7220657175616c20746f20656e642072657761726420626c6f636b2e5468697320636f6e747261637420686173206e6f7420656e6f7567682062616c616e63654572726f7220696e2067657474696e672072657761726420746f6b656e732066726f6d20636f6e74726163742ea2646970667358221220dad0f2fccb5358e9d3b4a07c679e3491da12532188ac0ffd1337f9446044850e64736f6c634300060c0033",
    "sourcePath": "/home/muneeb/work/Bird Money/bird-farm-contracts/contracts/BirdFarm.sol",
    "compiler": {
        "name": "solc",
        "version": "0.6.12+commit.27d51765"
    },
    "functionHashes": {
        "MAX_UINT()": "e5b5019a",
        "addPool(uint256,address,bool)": "7abceffd",
        "addRewardTokensToContract(uint256)": "580aceee",
        "deposit(uint256,uint256)": "e2bbb158",
        "emergencyWithdraw(uint256)": "5312ea8e",
        "endRewardBlock()": "81fa561a",
        "harvestPendingReward(uint256)": "40303815",
        "migrate(uint256)": "454b0608",
        "migrator()": "7cd07e47",
        "owner()": "8da5cb5b",
        "pendingRewardToken(uint256,address)": "1653fd33",
        "poolInfo(uint256)": "1526fe27",
        "poolLength()": "081e3eda",
        "renounceOwnership()": "715018a6",
        "rewardFrozenTime()": "feb9d4c9",
        "rewardToken()": "f7c618c1",
        "rewardTokenPerBlock()": "554c798a",
        "setAll(address,uint256,uint256,uint256,uint256,uint256)": "17eba6db",
        "setAllocPoint(uint256,uint256,bool)": "a0f99203",
        "setEndRewardBlock(uint256)": "4e362966",
        "setMigrator(address)": "23cf3118",
        "setRewardFrozenTime(uint256)": "7ffc319b",
        "setRewardToken(address)": "8aee8127",
        "setRewardTokenPerBlock(uint256)": "d7406965",
        "setStartRewardBlock(uint256)": "62b9e098",
        "setUnstakeFrozenTime(uint256)": "c9cc2e8e",
        "startRewardBlock()": "d7ed714e",
        "totalAllocPoint()": "17caf6f1",
        "transferOwnership(address)": "f2fde38b",
        "uniqueTokenInPool(address)": "d3442705",
        "unstakeFrozenTime()": "838e9c76",
        "userInfo(uint256,address)": "93f1a40b",
        "withdraw(uint256,uint256)": "441a3e70",
        "withdrawRewardTokensFromContract(uint256)": "6e29544a"
    },
    "gasEstimates": {
        "creation": {
            "codeDepositCost": "2075800",
            "executionCost": "infinite",
            "totalCost": "infinite"
        },
        "external": {
            "MAX_UINT()": "267",
            "addPool(uint256,address,bool)": "infinite",
            "addRewardTokensToContract(uint256)": "infinite",
            "deposit(uint256,uint256)": "infinite",
            "emergencyWithdraw(uint256)": "infinite",
            "endRewardBlock()": "1088",
            "harvestPendingReward(uint256)": "infinite",
            "migrate(uint256)": "infinite",
            "migrator()": "1083",
            "owner()": "1104",
            "pendingRewardToken(uint256,address)": "infinite",
            "poolInfo(uint256)": "4561",
            "poolLength()": "1045",
            "renounceOwnership()": "infinite",
            "rewardFrozenTime()": "1130",
            "rewardToken()": "1147",
            "rewardTokenPerBlock()": "1110",
            "setAll(address,uint256,uint256,uint256,uint256,uint256)": "infinite",
            "setAllocPoint(uint256,uint256,bool)": "infinite",
            "setEndRewardBlock(uint256)": "infinite",
            "setMigrator(address)": "infinite",
            "setRewardFrozenTime(uint256)": "infinite",
            "setRewardToken(address)": "infinite",
            "setRewardTokenPerBlock(uint256)": "infinite",
            "setStartRewardBlock(uint256)": "infinite",
            "setUnstakeFrozenTime(uint256)": "infinite",
            "startRewardBlock()": "1109",
            "totalAllocPoint()": "1111",
            "transferOwnership(address)": "infinite",
            "uniqueTokenInPool(address)": "1203",
            "unstakeFrozenTime()": "1110",
            "userInfo(uint256,address)": "2972",
            "withdraw(uint256,uint256)": "infinite",
            "withdrawRewardTokensFromContract(uint256)": "infinite"
        },
        "internal": {
            "getMultiplier(uint256,uint256)": "infinite",
            "getReward(uint256)": "958",
            "massUpdatePools()": "infinite",
            "savePendingReward(address,uint256,uint256)": "20995",
            "updatePool(uint256)": "infinite"
        }
    }
}