{
  "contractName": "BirdFarm",
  "abi": [
    {
      "inputs": [
        {
          "internalType": "contract IERC20",
          "name": "_rewardToken",
          "type": "address"
        }
      ],
      "stateMutability": "nonpayable",
      "type": "constructor"
    },
    {
      "anonymous": false,
      "inputs": [
        {
          "indexed": false,
          "internalType": "uint256",
          "name": "amount",
          "type": "uint256"
        }
      ],
      "name": "AddedRewardTokensToContract",
      "type": "event"
    },
    {
      "anonymous": false,
      "inputs": [
        {
          "indexed": true,
          "internalType": "address",
          "name": "user",
          "type": "address"
        },
        {
          "indexed": true,
          "internalType": "uint256",
          "name": "pid",
          "type": "uint256"
        },
        {
          "indexed": false,
          "internalType": "uint256",
          "name": "amount",
          "type": "uint256"
        }
      ],
      "name": "Deposit",
      "type": "event"
    },
    {
      "anonymous": false,
      "inputs": [
        {
          "indexed": true,
          "internalType": "address",
          "name": "user",
          "type": "address"
        },
        {
          "indexed": true,
          "internalType": "uint256",
          "name": "pid",
          "type": "uint256"
        },
        {
          "indexed": false,
          "internalType": "uint256",
          "name": "amount",
          "type": "uint256"
        }
      ],
      "name": "EmergencyWithdraw",
      "type": "event"
    },
    {
      "anonymous": false,
      "inputs": [
        {
          "indexed": false,
          "internalType": "uint256",
          "name": "endRewardBlock",
          "type": "uint256"
        }
      ],
      "name": "EndRewardBlockChanged",
      "type": "event"
    },
    {
      "anonymous": false,
      "inputs": [
        {
          "indexed": true,
          "internalType": "address",
          "name": "user",
          "type": "address"
        },
        {
          "indexed": true,
          "internalType": "uint256",
          "name": "pid",
          "type": "uint256"
        },
        {
          "indexed": false,
          "internalType": "uint256",
          "name": "amount",
          "type": "uint256"
        }
      ],
      "name": "Harvest",
      "type": "event"
    },
    {
      "anonymous": false,
      "inputs": [
        {
          "indexed": true,
          "internalType": "address",
          "name": "previousOwner",
          "type": "address"
        },
        {
          "indexed": true,
          "internalType": "address",
          "name": "newOwner",
          "type": "address"
        }
      ],
      "name": "OwnershipTransferred",
      "type": "event"
    },
    {
      "anonymous": false,
      "inputs": [
        {
          "indexed": true,
          "internalType": "address",
          "name": "user",
          "type": "address"
        },
        {
          "indexed": true,
          "internalType": "uint256",
          "name": "pid",
          "type": "uint256"
        },
        {
          "indexed": false,
          "internalType": "uint256",
          "name": "amount",
          "type": "uint256"
        }
      ],
      "name": "Withdraw",
      "type": "event"
    },
    {
      "inputs": [],
      "name": "bonusEndBlock",
      "outputs": [
        {
          "internalType": "uint256",
          "name": "",
          "type": "uint256"
        }
      ],
      "stateMutability": "view",
      "type": "function",
      "constant": true
    },
    {
      "inputs": [],
      "name": "endBlock",
      "outputs": [
        {
          "internalType": "uint256",
          "name": "",
          "type": "uint256"
        }
      ],
      "stateMutability": "view",
      "type": "function",
      "constant": true
    },
    {
      "inputs": [],
      "name": "owner",
      "outputs": [
        {
          "internalType": "address",
          "name": "",
          "type": "address"
        }
      ],
      "stateMutability": "view",
      "type": "function",
      "constant": true
    },
    {
      "inputs": [
        {
          "internalType": "uint256",
          "name": "",
          "type": "uint256"
        }
      ],
      "name": "poolInfo",
      "outputs": [
        {
          "internalType": "contract IERC20",
          "name": "lpToken",
          "type": "address"
        },
        {
          "internalType": "uint256",
          "name": "allocPoint",
          "type": "uint256"
        },
        {
          "internalType": "uint256",
          "name": "lastRewardBlock",
          "type": "uint256"
        },
        {
          "internalType": "uint256",
          "name": "accRewardTokenPerShare",
          "type": "uint256"
        }
      ],
      "stateMutability": "view",
      "type": "function",
      "constant": true
    },
    {
      "inputs": [],
      "name": "renounceOwnership",
      "outputs": [],
      "stateMutability": "nonpayable",
      "type": "function"
    },
    {
      "inputs": [],
      "name": "rewardPerBlock",
      "outputs": [
        {
          "internalType": "uint256",
          "name": "",
          "type": "uint256"
        }
      ],
      "stateMutability": "view",
      "type": "function",
      "constant": true
    },
    {
      "inputs": [],
      "name": "rewardToken",
      "outputs": [
        {
          "internalType": "contract IERC20",
          "name": "",
          "type": "address"
        }
      ],
      "stateMutability": "view",
      "type": "function",
      "constant": true
    },
    {
      "inputs": [],
      "name": "startBlock",
      "outputs": [
        {
          "internalType": "uint256",
          "name": "",
          "type": "uint256"
        }
      ],
      "stateMutability": "view",
      "type": "function",
      "constant": true
    },
    {
      "inputs": [],
      "name": "totalAllocPoint",
      "outputs": [
        {
          "internalType": "uint256",
          "name": "",
          "type": "uint256"
        }
      ],
      "stateMutability": "view",
      "type": "function",
      "constant": true
    },
    {
      "inputs": [
        {
          "internalType": "address",
          "name": "newOwner",
          "type": "address"
        }
      ],
      "name": "transferOwnership",
      "outputs": [],
      "stateMutability": "nonpayable",
      "type": "function"
    },
    {
      "inputs": [
        {
          "internalType": "uint256",
          "name": "",
          "type": "uint256"
        },
        {
          "internalType": "address",
          "name": "",
          "type": "address"
        }
      ],
      "name": "userInfo",
      "outputs": [
        {
          "internalType": "uint256",
          "name": "amount",
          "type": "uint256"
        },
        {
          "internalType": "uint256",
          "name": "rewardDebt",
          "type": "uint256"
        },
        {
          "internalType": "uint256",
          "name": "reward",
          "type": "uint256"
        }
      ],
      "stateMutability": "view",
      "type": "function",
      "constant": true
    },
    {
      "inputs": [],
      "name": "poolLength",
      "outputs": [
        {
          "internalType": "uint256",
          "name": "",
          "type": "uint256"
        }
      ],
      "stateMutability": "view",
      "type": "function",
      "constant": true
    },
    {
      "inputs": [
        {
          "internalType": "uint256",
          "name": "_allocPoint",
          "type": "uint256"
        },
        {
          "internalType": "contract IERC20",
          "name": "_lpToken",
          "type": "address"
        },
        {
          "internalType": "bool",
          "name": "_withUpdate",
          "type": "bool"
        }
      ],
      "name": "add",
      "outputs": [],
      "stateMutability": "nonpayable",
      "type": "function"
    },
    {
      "inputs": [
        {
          "internalType": "uint256",
          "name": "_pid",
          "type": "uint256"
        },
        {
          "internalType": "uint256",
          "name": "_allocPoint",
          "type": "uint256"
        },
        {
          "internalType": "bool",
          "name": "_withUpdate",
          "type": "bool"
        }
      ],
      "name": "set",
      "outputs": [],
      "stateMutability": "nonpayable",
      "type": "function"
    },
    {
      "inputs": [
        {
          "internalType": "uint256",
          "name": "_pid",
          "type": "uint256"
        },
        {
          "internalType": "address",
          "name": "_user",
          "type": "address"
        }
      ],
      "name": "pendingRewardToken",
      "outputs": [
        {
          "internalType": "uint256",
          "name": "",
          "type": "uint256"
        }
      ],
      "stateMutability": "view",
      "type": "function",
      "constant": true
    },
    {
      "inputs": [
        {
          "internalType": "uint256",
          "name": "_pid",
          "type": "uint256"
        },
        {
          "internalType": "uint256",
          "name": "_amount",
          "type": "uint256"
        }
      ],
      "name": "deposit",
      "outputs": [],
      "stateMutability": "nonpayable",
      "type": "function"
    },
    {
      "inputs": [
        {
          "internalType": "uint256",
          "name": "_pid",
          "type": "uint256"
        },
        {
          "internalType": "uint256",
          "name": "_amount",
          "type": "uint256"
        }
      ],
      "name": "withdraw",
      "outputs": [],
      "stateMutability": "nonpayable",
      "type": "function"
    },
    {
      "inputs": [
        {
          "internalType": "uint256",
          "name": "_pid",
          "type": "uint256"
        }
      ],
      "name": "harvest",
      "outputs": [],
      "stateMutability": "nonpayable",
      "type": "function"
    },
    {
      "inputs": [
        {
          "internalType": "uint256",
          "name": "_pid",
          "type": "uint256"
        }
      ],
      "name": "emergencyWithdraw",
      "outputs": [],
      "stateMutability": "nonpayable",
      "type": "function"
    },
    {
      "inputs": [
        {
          "internalType": "uint256",
          "name": "_blockNumber",
          "type": "uint256"
        }
      ],
      "name": "setUpEndRewardBlock",
      "outputs": [],
      "stateMutability": "nonpayable",
      "type": "function"
    },
    {
      "inputs": [
        {
          "internalType": "uint256",
          "name": "_blockNumber",
          "type": "uint256"
        }
      ],
      "name": "setUpRewardPerDay",
      "outputs": [],
      "stateMutability": "nonpayable",
      "type": "function"
    },
    {
      "inputs": [
        {
          "internalType": "uint256",
          "name": "_amount",
          "type": "uint256"
        }
      ],
      "name": "addRewardTokensToContract",
      "outputs": [],
      "stateMutability": "nonpayable",
      "type": "function"
    }
  ],
  "bytecode": "0x60806040526000600255670214e8348c4f000060035560006006556000600755600060085560006009556000600a556000600b5534801561003f57600080fd5b50604051611a82380380611a828339818101604052602081101561006257600080fd5b5051600061006e6100dd565b600080546001600160a01b0319166001600160a01b0383169081178255604051929350917f8be0079c531659141344cd1fd0a4f28419497f9722a3daafe3b4186f6b6457e0908290a350600180546001600160a01b0319166001600160a01b03929092169190911790556100e1565b3390565b611992806100f06000396000f3fe608060405234801561001057600080fd5b50600436106101425760003560e01c8063580aceee116100b857806393f1a40b1161007c57806393f1a40b14610309578063ddc6326214610353578063e2bbb15814610370578063eb665f381461024b578063f2fde38b14610393578063f7c618c1146103b957610142565b8063580aceee1461028d57806364482f79146102aa578063715018a6146102d55780638ae39cac146102dd5780638da5cb5b146102e557610142565b80631aed65531161010a5780631aed6553146101ea5780631eaaa045146101f2578063441a3e70146102285780634627337c1461024b57806348cd4cb1146102685780635312ea8e1461027057610142565b8063081e3eda14610147578063083c6323146101615780631526fe27146101695780631653fd33146101b657806317caf6f1146101e2575b600080fd5b61014f6103c1565b60408051918252519081900360200190f35b61014f6103c7565b6101866004803603602081101561017f57600080fd5b50356103cd565b604080516001600160a01b0390951685526020850193909352838301919091526060830152519081900360800190f35b61014f600480360360408110156101cc57600080fd5b50803590602001356001600160a01b031661040e565b61014f610592565b61014f610598565b6102266004803603606081101561020857600080fd5b508035906001600160a01b036020820135169060400135151561059e565b005b6102266004803603604081101561023e57600080fd5b5080359060200135610727565b6102266004803603602081101561026157600080fd5b50356108b8565b61014f610955565b6102266004803603602081101561028657600080fd5b503561095b565b610226600480360360208110156102a357600080fd5b50356109fd565b610226600480360360608110156102c057600080fd5b50803590602081013590604001351515610b92565b610226610c6d565b61014f610d19565b6102ed610d1f565b604080516001600160a01b039092168252519081900360200190f35b6103356004803603604081101561031f57600080fd5b50803590602001356001600160a01b0316610d2e565b60408051938452602084019290925282820152519081900360600190f35b6102266004803603602081101561036957600080fd5b5035610d5a565b6102266004803603604081101561038657600080fd5b5080359060200135610e9c565b610226600480360360208110156103a957600080fd5b50356001600160a01b0316610fa8565b6102ed6110aa565b60045490565b60085481565b600481815481106103da57fe5b600091825260209091206004909102018054600182015460028301546003909301546001600160a01b039092169350919084565b6000806004848154811061041e57fe5b600091825260208083208784526005825260408085206001600160a01b03898116875290845281862060049586029093016003810154815484516370a0823160e01b81523098810198909852935191985093969395939492909116926370a08231926024808301939192829003018186803b15801561049c57600080fd5b505afa1580156104b0573d6000803e3d6000fd5b505050506040513d60208110156104c657600080fd5b50516002850154909150431180156104dd57508015155b156105495760006104f28560020154436110b9565b9050600061052560065461051f88600101546105196003548761114590919063ffffffff16565b90611145565b906111a5565b905061054461053d8461051f8464e8d4a51000611145565b859061120c565b935050505b61058561057a846001015461057464e8d4a5100061051f87896000015461114590919063ffffffff16565b90611266565b60028501549061120c565b9450505050505b92915050565b60065481565b60025481565b6105a66112c3565b6001600160a01b03166105b7610d1f565b6001600160a01b031614610600576040805162461bcd60e51b815260206004820181905260248201526000805160206118c3833981519152604482015290519081900360640190fd5b801561060e5761060e6112c7565b6000600754431161062157600754610623565b435b600654909150610633908561120c565b600655604080516080810182526001600160a01b03948516815260208101958652908101918252600060608201818152600480546001810182559281905292517f8a35acfbc15ff81a39ae7d344fd709f28e8600b4aa8c65c6b64bfe7fe36bd19b9290930291820180546001600160a01b031916939096169290921790945593517f8a35acfbc15ff81a39ae7d344fd709f28e8600b4aa8c65c6b64bfe7fe36bd19c840155517f8a35acfbc15ff81a39ae7d344fd709f28e8600b4aa8c65c6b64bfe7fe36bd19d8301555090517f8a35acfbc15ff81a39ae7d344fd709f28e8600b4aa8c65c6b64bfe7fe36bd19e90910155565b60095442116107675760405162461bcd60e51b815260040180806020018281038252602681526020018061190d6026913960400191505060405180910390fd5b60006004838154811061077657fe5b6000918252602080832086845260058252604080852033865290925292208054600490920290920192508311156107e9576040805162461bcd60e51b81526020600482015260126024820152711dda5d1a191c985dce881b9bdd0819dbdbd960721b604482015290519081900360640190fd5b6107f2846112ea565b6000610820826001015461057464e8d4a5100061051f8760030154876000015461114590919063ffffffff16565b60028301805482019055600b8054869003905582549091506108429085611266565b808355600384015461085f9164e8d4a510009161051f9190611145565b6001830155825461087a906001600160a01b03163386611423565b604080518581529051869133917ff279e6a1f5e320cca91135676d9cb6e44ca8a08c0b88342bcdb1144f6511b5689181900360200190a35050505050565b6108c06112c3565b6001600160a01b03166108d1610d1f565b6001600160a01b03161461091a576040805162461bcd60e51b815260206004820181905260248201526000805160206118c3833981519152604482015290519081900360640190fd5b60088190556040805182815290517fe7d85683063a512b0ea7c9d84ce4ff33b516bc16b36f3dc5a98dd0b479d9f1319181900360200190a150565b60075481565b60006004828154811061096a57fe5b600091825260208083208584526005825260408085203380875293529093208054600490930290930180549094506109af926001600160a01b03919091169190611423565b80546040805191825251849133917fbb757047c2b5f3974fe26b7c10f732e7bce710b0952a71082702781e62ae05959181900360200190a36000600282018190558082556001909101555050565b610a056112c3565b6001600160a01b0316610a16610d1f565b6001600160a01b031614610a5f576040805162461bcd60e51b815260206004820181905260248201526000805160206118c3833981519152604482015290519081900360640190fd5b6000610a76600354836111a590919063ffffffff16565b90506000600854600014610a8c57600854610a8e565b435b828101600855600154604080516323b872dd60e01b81523360048201523060248201526044810187905290519293506001600160a01b03909116916323b872dd916064808201926020929091908290030181600087803b158015610af157600080fd5b505af1158015610b05573d6000803e3d6000fd5b505050506040513d6020811015610b1b57600080fd5b5051610b585760405162461bcd60e51b815260040180806020018281038252602a8152602001806118e3602a913960400191505060405180910390fd5b60085460408051918252517fe7d85683063a512b0ea7c9d84ce4ff33b516bc16b36f3dc5a98dd0b479d9f1319181900360200190a1505050565b610b9a6112c3565b6001600160a01b0316610bab610d1f565b6001600160a01b031614610bf4576040805162461bcd60e51b815260206004820181905260248201526000805160206118c3833981519152604482015290519081900360640190fd5b8015610c0257610c026112c7565b610c3f82610c3960048681548110610c1657fe5b90600052602060002090600402016001015460065461126690919063ffffffff16565b9061120c565b6006819055508160048481548110610c5357fe5b906000526020600020906004020160010181905550505050565b610c756112c3565b6001600160a01b0316610c86610d1f565b6001600160a01b031614610ccf576040805162461bcd60e51b815260206004820181905260248201526000805160206118c3833981519152604482015290519081900360640190fd5b600080546040516001600160a01b03909116907f8be0079c531659141344cd1fd0a4f28419497f9722a3daafe3b4186f6b6457e0908390a3600080546001600160a01b0319169055565b60035481565b6000546001600160a01b031690565b600560209081526000928352604080842090915290825290208054600182015460029092015490919083565b600a544211610db0576040805162461bcd60e51b815260206004820152601d60248201527f43616e206e6f74206861727665737420617420746869732074696d652e000000604482015290519081900360640190fd5b600060048281548110610dbf57fe5b60009182526020808320858452600582526040808520338652909252922060049091029091019150610df0836112ea565b6000610e1e826001015461057464e8d4a5100061051f8760030154876000015461114590919063ffffffff16565b600283018054820190819055909150610e3890339061147a565b6000600283015560038301548254610e5a9164e8d4a510009161051f91611145565b6001830155604080518281529051859133917f71bab65ced2e5750775a0613be067df48ef06cf92a496ebf7663ae06609249549181900360200190a350505050565b600060048381548110610eab57fe5b60009182526020808320868452600582526040808520338652909252922060049091029091019150610edc846112ea565b805415610f1e576000610f11826001015461057464e8d4a5100061051f8760030154876000015461114590919063ffffffff16565b6002830180549091019055505b8154610f35906001600160a01b0316333086611491565b600b8054840190558054610f49908461120c565b8082556003830154610f669164e8d4a510009161051f9190611145565b6001820155604080518481529051859133917f90890809c654f11d6e72a28fa60149770a0d11ec6c92319d6ceb2bb0a4ea1a159181900360200190a350505050565b610fb06112c3565b6001600160a01b0316610fc1610d1f565b6001600160a01b03161461100a576040805162461bcd60e51b815260206004820181905260248201526000805160206118c3833981519152604482015290519081900360640190fd5b6001600160a01b03811661104f5760405162461bcd60e51b81526004018080602001828103825260268152602001806118566026913960400191505060405180910390fd5b600080546040516001600160a01b03808516939216917f8be0079c531659141344cd1fd0a4f28419497f9722a3daafe3b4186f6b6457e091a3600080546001600160a01b0319166001600160a01b0392909216919091179055565b6001546001600160a01b031681565b600854600090839083908111156110cf57506008545b6008548211156110df5760085491505b6002548111611100576110f7600a6105198385611266565b9250505061058c565b6002548210611113576110f78183611266565b6110f761112b6002548361126690919063ffffffff16565b610c39600a6105198660025461126690919063ffffffff16565b6000826111545750600061058c565b8282028284828161116157fe5b041461119e5760405162461bcd60e51b81526004018080602001828103825260218152602001806118a26021913960400191505060405180910390fd5b9392505050565b60008082116111fb576040805162461bcd60e51b815260206004820152601a60248201527f536166654d6174683a206469766973696f6e206279207a65726f000000000000604482015290519081900360640190fd5b81838161120457fe5b049392505050565b60008282018381101561119e576040805162461bcd60e51b815260206004820152601b60248201527f536166654d6174683a206164646974696f6e206f766572666c6f770000000000604482015290519081900360640190fd5b6000828211156112bd576040805162461bcd60e51b815260206004820152601e60248201527f536166654d6174683a207375627472616374696f6e206f766572666c6f770000604482015290519081900360640190fd5b50900390565b3390565b60045460005b818110156112e6576112de816112ea565b6001016112cd565b5050565b600b546112f9576112f96114f1565b60006004828154811061130857fe5b90600052602060002090600402019050806002015443116113295750611420565b8054604080516370a0823160e01b815230600482015290516000926001600160a01b0316916370a08231916024808301926020929190829003018186803b15801561137357600080fd5b505afa158015611387573d6000803e3d6000fd5b505050506040513d602081101561139d57600080fd5b50519050806113b3575043600290910155611420565b60006113c38360020154436110b9565b905060006113ea60065461051f86600101546105196003548761114590919063ffffffff16565b905061140d6114028461051f8464e8d4a51000611145565b60038601549061120c565b6003850155505043600290920191909155505b50565b604080516001600160a01b038416602482015260448082018490528251808303909101815260649091019091526020810180516001600160e01b031663a9059cbb60e01b179052611475908490611587565b505050565b6001546112e6906001600160a01b03168383611423565b604080516001600160a01b0380861660248301528416604482015260648082018490528251808303909101815260849091019091526020810180516001600160e01b03166323b872dd60e01b1790526114eb908590611587565b50505050565b600354600154604080516370a0823160e01b815230600482015290516115829361157b9390926001600160a01b03909116916370a0823191602480820192602092909190829003018186803b15801561154957600080fd5b505afa15801561155d573d6000803e3d6000fd5b505050506040513d602081101561157357600080fd5b5051906111a5565b439061120c565b600855565b60606115dc826040518060400160405280602081526020017f5361666545524332303a206c6f772d6c6576656c2063616c6c206661696c6564815250856001600160a01b03166116389092919063ffffffff16565b805190915015611475578080602001905160208110156115fb57600080fd5b50516114755760405162461bcd60e51b815260040180806020018281038252602a815260200180611933602a913960400191505060405180910390fd5b6060611647848460008561164f565b949350505050565b6060824710156116905760405162461bcd60e51b815260040180806020018281038252602681526020018061187c6026913960400191505060405180910390fd5b611699856117ab565b6116ea576040805162461bcd60e51b815260206004820152601d60248201527f416464726573733a2063616c6c20746f206e6f6e2d636f6e7472616374000000604482015290519081900360640190fd5b60006060866001600160a01b031685876040518082805190602001908083835b602083106117295780518252601f19909201916020918201910161170a565b6001836020036101000a03801982511681845116808217855250505050505090500191505060006040518083038185875af1925050503d806000811461178b576040519150601f19603f3d011682016040523d82523d6000602084013e611790565b606091505b50915091506117a08282866117b1565b979650505050505050565b3b151590565b606083156117c057508161119e565b8251156117d05782518084602001fd5b8160405162461bcd60e51b81526004018080602001828103825283818151815260200191508051906020019080838360005b8381101561181a578181015183820152602001611802565b50505050905090810190601f1680156118475780820380516001836020036101000a031916815260200191505b509250505060405180910390fdfe4f776e61626c653a206e6577206f776e657220697320746865207a65726f2061646472657373416464726573733a20696e73756666696369656e742062616c616e636520666f722063616c6c536166654d6174683a206d756c7469706c69636174696f6e206f766572666c6f774f776e61626c653a2063616c6c6572206973206e6f7420746865206f776e65724572726f7220696e20616464696e672072657761726420746f6b656e7320696e20636f6e74726163742e43616e206e6f742077697468647261772f756e7374616b6520617420746869732074696d652e5361666545524332303a204552433230206f7065726174696f6e20646964206e6f742073756363656564a26469706673582212208b1402151227d50dab746337b9b6e31c7e5f087b0e8dc8ff1da6d8ce4cfabefa64736f6c634300060c0033",
  "immutableReferences": {},
  "source": "// SPDX-License-Identifier: MIT\npragma solidity 0.6.12;\n\nimport \"@openzeppelin/contracts/math/SafeMath.sol\";\nimport \"@openzeppelin/contracts/token/ERC20/SafeERC20.sol\";\nimport \"@openzeppelin/contracts/token/ERC20/ERC20.sol\";\nimport \"@openzeppelin/contracts/token/ERC20/IERC20.sol\";\nimport \"@openzeppelin/contracts/access/Ownable.sol\";\n\n// BirdFarm is the master of RewardToken. He can make RewardToken and he is a fair guy.\n//\n// Note that it's ownable and the owner wields tremendous power. The ownership\n// will be transferred to a governance smart contract once REWARD_TOKEN is sufficiently\n// distributed and the community can show to govern itself.\n//\n// Have fun reading it. Hopefully it's bug-free. God bless.\n\n/// @title Farming service for pool tokens\n/// @author Bird Money\n/// @notice You can use this contract to deposit pool tokens and get rewards\n/// @dev Admin can add a new Pool, users can deposit pool tokens, harvestReward, withdraw pool tokens\ncontract BirdFarm is Ownable {\n    using SafeMath for uint256;\n    using SafeERC20 for IERC20;\n\n    // Info of each user.\n    struct UserInfo {\n        uint256 amount; // How many LP tokens the user has provided.\n        uint256 rewardDebt; // Reward debt. See explanation below.\n        uint256 reward; // A\n        //\n        // We do some fancy math here. Basically, any point in time, the amount of REWARD_TOKENs\n        // entitled to a user but is pending to be distributed is:\n        //\n        //   pending reward = (user.amount * pool.accRewardTokenPerShare) - user.rewardDebt\n        //\n        // Whenever a user deposits or withdraws LP tokens to a pool. Here's what happens:\n        //   1. The pool's `accRewardTokenPerShare` (and `lastRewardBlock`) gets updated.\n        //   2. User receives the pending reward sent to his/her address.\n        //   3. User's `amount` gets updated.\n        //   4. User's `rewardDebt` gets updated.\n    }\n\n    // Info of each pool.\n    struct PoolInfo {\n        IERC20 lpToken; // Address of LP token contract.\n        uint256 allocPoint; // How many allocation points assigned to this pool. REWARD_TOKENs to distribute per block.\n        uint256 lastRewardBlock; // Last block number that REWARD_TOKENs distribution occurs.\n        uint256 accRewardTokenPerShare; // Accumulated REWARD_TOKENs per share, times 1e12. See below.\n    }\n\n    /// @dev The REWARD_TOKEN TOKEN!\n    IERC20 public rewardToken;\n\n    /// @dev Block number when bonus REWARD_TOKEN period ends.\n    uint256 public bonusEndBlock = 0;\n\n    /// @notice REWARD_TOKEN tokens created per block.\n    /// @dev its equal to approx 1000 reward tokens per day\n    uint256 public rewardPerBlock = 0.15 ether; \n\n    /// @dev Bonus muliplier for early rewardToken makers.\n    uint256 private constant BONUS_MULTIPLIER = 10;\n\n    /// @dev Info of each pool.\n    PoolInfo[] public poolInfo;\n\n    /// @dev Info of each user that stakes LP tokens.\n    mapping(uint256 => mapping(address => UserInfo)) public userInfo;\n\n    /// @dev Total allocation poitns. Must be the sum of all allocation points in all pools.\n    uint256 public totalAllocPoint = 0;\n\n    /// @dev The block number when REWARD_TOKEN mining starts.\n    uint256 public startBlock = 0;\n\n    /// @dev The block number when REWARD_TOKEN mining ends.\n    uint256 public endBlock = 0;\n\n    uint256 usersCanUnstakeAtTime = 0 seconds;\n\n    uint256 usersCanHarvestAtTime = 0 seconds;\n\n    /// @dev when some one deposits pool tokens to contract\n    event Deposit(address indexed user, uint256 indexed pid, uint256 amount);\n\n    /// @dev when some one withdraws pool tokens from contract\n    event Withdraw(address indexed user, uint256 indexed pid, uint256 amount);\n\n    /// @dev when some one harvests reward tokens from contract\n    event Harvest(address indexed user, uint256 indexed pid, uint256 amount);\n\n    /// @dev when some one do EMERGENCY withdraw of pool tokens from contract\n    event EmergencyWithdraw(\n        address indexed user,\n        uint256 indexed pid,\n        uint256 amount\n    );\n\n    constructor(IERC20 _rewardToken) public {\n        rewardToken = _rewardToken;\n    }\n\n    function poolLength() external view returns (uint256) {\n        return poolInfo.length;\n    }\n\n    // Add a new lp to the pool. Can only be called by the owner.\n    // XXX DO NOT add the same LP token more than once. Rewards will be messed up if you do.\n    function add(\n        uint256 _allocPoint,\n        IERC20 _lpToken,\n        bool _withUpdate\n    ) external onlyOwner {\n        if (_withUpdate) {\n            massUpdatePools();\n        }\n        uint256 lastRewardBlock =\n            block.number > startBlock ? block.number : startBlock;\n        totalAllocPoint = totalAllocPoint.add(_allocPoint);\n        poolInfo.push(\n            PoolInfo({\n                lpToken: _lpToken,\n                allocPoint: _allocPoint,\n                lastRewardBlock: lastRewardBlock,\n                accRewardTokenPerShare: 0\n            })\n        );\n    }\n\n    // Update the given pool's REWARD_TOKEN allocation point. Can only be called by the owner.\n    function set(\n        uint256 _pid,\n        uint256 _allocPoint,\n        bool _withUpdate\n    ) external onlyOwner {\n        if (_withUpdate) {\n            massUpdatePools();\n        }\n        totalAllocPoint = totalAllocPoint.sub(poolInfo[_pid].allocPoint).add(\n            _allocPoint\n        );\n        poolInfo[_pid].allocPoint = _allocPoint;\n    }\n\n    // Return number of blocks between _from to _to block which are applicable for reward tokens. if multiplier returns 10 blocks then 10 * reward per block = 50 coins to be given as reward. equally to community. with repect to pool weight.\n    function getMultiplier(uint256 _from, uint256 _to)\n        internal\n        view\n        returns (uint256)\n    {\n        uint256 from = _from;\n        uint256 to = _to;\n        if (to > endBlock) to = endBlock;\n        if (from > endBlock) from = endBlock;\n\n        if (to <= bonusEndBlock) {\n            return to.sub(from).mul(BONUS_MULTIPLIER);\n        } else if (from >= bonusEndBlock) {\n            return to.sub(from);\n        } else {\n            return\n                bonusEndBlock.sub(from).mul(BONUS_MULTIPLIER).add(\n                    to.sub(bonusEndBlock)\n                );\n        }\n    }\n\n    // View function to see pending REWARD_TOKENs on frontend.\n    function pendingRewardToken(uint256 _pid, address _user)\n        external\n        view\n        returns (uint256)\n    {\n        PoolInfo storage pool = poolInfo[_pid];\n        UserInfo storage user = userInfo[_pid][_user];\n        uint256 accRewardTokenPerShare = pool.accRewardTokenPerShare;\n        uint256 lpSupply = pool.lpToken.balanceOf(address(this));\n        if (block.number > pool.lastRewardBlock && lpSupply != 0) {\n            uint256 multiplier =\n                getMultiplier(pool.lastRewardBlock, block.number);\n            uint256 rewardTokenReward =\n                multiplier.mul(rewardPerBlock).mul(pool.allocPoint).div(\n                    totalAllocPoint\n                );\n            accRewardTokenPerShare = accRewardTokenPerShare.add(\n                rewardTokenReward.mul(1e12).div(lpSupply)\n            );\n        }\n        return\n            user.reward.add(\n                user.amount.mul(accRewardTokenPerShare).div(1e12).sub(\n                    user.rewardDebt\n                )\n            );\n    }\n\n    // Update reward vairables for all pools. Be careful of gas spending!\n    function massUpdatePools() internal {\n        uint256 length = poolInfo.length;\n        for (uint256 pid = 0; pid < length; ++pid) {\n            updatePool(pid);\n        }\n    }\n\n    uint256 private allPoolTokens = 0;\n\n    // Update reward variables of the given pool to be up-to-date.\n    function updatePool(uint256 _pid) internal {\n        if (allPoolTokens == 0) configTheEndRewardBlock(); // to stop making reward when reward tokens are empty in BirdFarm\n\n        PoolInfo storage pool = poolInfo[_pid];\n\n        if (block.number <= pool.lastRewardBlock) {\n            return;\n        }\n        uint256 lpSupply = pool.lpToken.balanceOf(address(this));\n        if (lpSupply == 0) {\n            pool.lastRewardBlock = block.number;\n            return;\n        }\n\n        uint256 multiplier = getMultiplier(pool.lastRewardBlock, block.number);\n        uint256 rewardTokenReward =\n            multiplier.mul(rewardPerBlock).mul(pool.allocPoint).div(\n                totalAllocPoint\n            );\n        pool.accRewardTokenPerShare = pool.accRewardTokenPerShare.add(\n            rewardTokenReward.mul(1e12).div(lpSupply)\n        );\n        pool.lastRewardBlock = block.number;\n    }\n\n    // Deposit LP tokens to MasterChef for REWARD_TOKEN allocation.\n    function deposit(uint256 _pid, uint256 _amount) external {\n        PoolInfo storage pool = poolInfo[_pid];\n        UserInfo storage user = userInfo[_pid][msg.sender];\n        updatePool(_pid);\n        if (user.amount > 0) {\n            uint256 pending =\n                user.amount.mul(pool.accRewardTokenPerShare).div(1e12).sub(\n                    user.rewardDebt\n                );\n            user.reward += pending;\n        }\n\n        pool.lpToken.safeTransferFrom(\n            address(msg.sender),\n            address(this),\n            _amount\n        );\n        allPoolTokens += _amount;\n        user.amount = user.amount.add(_amount);\n        user.rewardDebt = user.amount.mul(pool.accRewardTokenPerShare).div(\n            1e12\n        );\n        emit Deposit(msg.sender, _pid, _amount);\n    }\n\n    // Withdraw LP tokens from MasterChef.\n    function withdraw(uint256 _pid, uint256 _amount) external {\n        require(\n            now > usersCanUnstakeAtTime,\n            \"Can not withdraw/unstake at this time.\"\n        );\n        PoolInfo storage pool = poolInfo[_pid];\n        UserInfo storage user = userInfo[_pid][msg.sender];\n        require(user.amount >= _amount, \"withdraw: not good\");\n        updatePool(_pid);\n        uint256 pending =\n            user.amount.mul(pool.accRewardTokenPerShare).div(1e12).sub(\n                user.rewardDebt\n            );\n        user.reward += pending;\n\n        allPoolTokens -= _amount;\n        user.amount = user.amount.sub(_amount);\n        user.rewardDebt = user.amount.mul(pool.accRewardTokenPerShare).div(\n            1e12\n        );\n        pool.lpToken.safeTransfer(address(msg.sender), _amount);\n        emit Withdraw(msg.sender, _pid, _amount);\n    }\n\n    function harvest(uint256 _pid) external {\n        require(now > usersCanHarvestAtTime, \"Can not harvest at this time.\");\n        PoolInfo storage pool = poolInfo[_pid];\n        UserInfo storage user = userInfo[_pid][msg.sender];\n        updatePool(_pid);\n        uint256 pending =\n            user.amount.mul(pool.accRewardTokenPerShare).div(1e12).sub(\n                user.rewardDebt\n            );\n        user.reward += pending;\n        safeRewardTokenTransfer(msg.sender, user.reward);\n        user.reward = 0;\n\n        user.rewardDebt = user.amount.mul(pool.accRewardTokenPerShare).div(\n            1e12\n        );\n        emit Harvest(msg.sender, _pid, pending);\n    }\n\n    // Withdraw without caring about rewards. EMERGENCY ONLY.\n    function emergencyWithdraw(uint256 _pid) external {\n        PoolInfo storage pool = poolInfo[_pid];\n        UserInfo storage user = userInfo[_pid][msg.sender];\n        pool.lpToken.safeTransfer(address(msg.sender), user.amount);\n        emit EmergencyWithdraw(msg.sender, _pid, user.amount);\n        user.reward = 0;\n        user.amount = 0;\n        user.rewardDebt = 0;\n    }\n\n    function safeRewardTokenTransfer(address _to, uint256 _amount) internal {\n        rewardToken.safeTransfer(_to, _amount);\n    }\n\n    function configTheEndRewardBlock() internal {\n        endBlock = block.number.add(\n            (rewardToken.balanceOf(address(this)).div(rewardPerBlock))\n        );\n    }\n\n    /// @notice owner may use this function to setup end reward block. We want that when reward ends in the contract then the reward should not generate further.\n    /// @dev owner may use this function if he sent directly reward tokens to this contract.\n    function setUpEndRewardBlock(uint256 _blockNumber) external onlyOwner {\n        endBlock = _blockNumber;\n        emit EndRewardBlockChanged(_blockNumber);\n    }\n\n    /// @notice owner may use this function to setup end reward block. We want that when reward ends in the contract then the reward should not generate further.\n    /// @dev owner may use this function if he sent directly reward tokens to this contract.\n    function setUpRewardPerDay(uint256 _blockNumber) external onlyOwner {\n        endBlock = _blockNumber;\n        emit EndRewardBlockChanged(_blockNumber);\n    }\n\n    event EndRewardBlockChanged(uint256 endRewardBlock);\n\n    /// @notice owner puts reward tokens in contract\n    /// @dev owner can add reward token to contract so that it can be distributed to users\n    /// @param _amount amount of reward tokens\n    function addRewardTokensToContract(uint256 _amount) external onlyOwner {\n        uint256 rewardEndsInBlocks = _amount.div(rewardPerBlock);\n\n        uint256 lastEndBlock = endBlock == 0 ? block.number : endBlock;\n        endBlock = lastEndBlock + rewardEndsInBlocks;\n\n        require(\n            rewardToken.transferFrom(msg.sender, address(this), _amount),\n            \"Error in adding reward tokens in contract.\"\n        );\n        emit EndRewardBlockChanged(endBlock);\n    }\n\n    event AddedRewardTokensToContract(uint256 amount);\n}\n\n//17th april 2021, $KEL, see in 17th may. read use cases. may invest then.\n\n// also config when admin puts in money\n// also if there are no pool tokens staked\n// send to simba with func requirements complete\n// then add the comments events etc\n\n//deposit money 3 times to learn what is reward debt\n\n// add function, block per sec, reward per day\n\n// some experimaents for gas fee later\n// read from state 10 times or make local copy and read from there\n// set many 3 values in a function vs saparate 3 transaction. gas fee savings?\n// emit ImpValueChanged(newValue, string reason) ??? does string increase cost? how much? is this way better?\n",
  "sourcePath": "/home/muneeb/work/Bird Money/bird-farm-contracts/contracts/BirdFarm.sol",
  "compiler": {
    "name": "solc",
    "version": "0.6.12+commit.27d51765.Emscripten.clang"
  },
  "schemaVersion": "3.3.4",
  "updatedAt": "2021-04-17T20:28:27.433Z",
  "networkType": "ethereum",
  "devdoc": {
    "author": "Bird Money",
    "details": "Admin can add a new Pool, users can deposit pool tokens, harvestReward, withdraw pool tokens",
    "events": {
      "Deposit(address,uint256,uint256)": {
        "details": "when some one deposits pool tokens to contract"
      },
      "EmergencyWithdraw(address,uint256,uint256)": {
        "details": "when some one do EMERGENCY withdraw of pool tokens from contract"
      },
      "Harvest(address,uint256,uint256)": {
        "details": "when some one harvests reward tokens from contract"
      },
      "Withdraw(address,uint256,uint256)": {
        "details": "when some one withdraws pool tokens from contract"
      }
    },
    "kind": "dev",
    "methods": {
      "addRewardTokensToContract(uint256)": {
        "details": "owner can add reward token to contract so that it can be distributed to users",
        "params": {
          "_amount": "amount of reward tokens"
        }
      },
      "owner()": {
        "details": "Returns the address of the current owner."
      },
      "renounceOwnership()": {
        "details": "Leaves the contract without owner. It will not be possible to call `onlyOwner` functions anymore. Can only be called by the current owner. NOTE: Renouncing ownership will leave the contract without an owner, thereby removing any functionality that is only available to the owner."
      },
      "setUpEndRewardBlock(uint256)": {
        "details": "owner may use this function if he sent directly reward tokens to this contract."
      },
      "setUpRewardPerDay(uint256)": {
        "details": "owner may use this function if he sent directly reward tokens to this contract."
      },
      "transferOwnership(address)": {
        "details": "Transfers ownership of the contract to a new account (`newOwner`). Can only be called by the current owner."
      }
    },
    "stateVariables": {
      "BONUS_MULTIPLIER": {
        "details": "Bonus muliplier for early rewardToken makers."
      },
      "bonusEndBlock": {
        "details": "Block number when bonus REWARD_TOKEN period ends."
      },
      "endBlock": {
        "details": "The block number when REWARD_TOKEN mining ends."
      },
      "poolInfo": {
        "details": "Info of each pool."
      },
      "rewardPerBlock": {
        "details": "its equal to approx 1000 reward tokens per day"
      },
      "rewardToken": {
        "details": "The REWARD_TOKEN TOKEN!"
      },
      "startBlock": {
        "details": "The block number when REWARD_TOKEN mining starts."
      },
      "totalAllocPoint": {
        "details": "Total allocation poitns. Must be the sum of all allocation points in all pools."
      },
      "userInfo": {
        "details": "Info of each user that stakes LP tokens."
      }
    },
    "title": "Farming service for pool tokens",
    "version": 1
  },
  "userdoc": {
    "kind": "user",
    "methods": {
      "addRewardTokensToContract(uint256)": {
        "notice": "owner puts reward tokens in contract"
      },
      "rewardPerBlock()": {
        "notice": "REWARD_TOKEN tokens created per block."
      },
      "setUpEndRewardBlock(uint256)": {
        "notice": "owner may use this function to setup end reward block. We want that when reward ends in the contract then the reward should not generate further."
      },
      "setUpRewardPerDay(uint256)": {
        "notice": "owner may use this function to setup end reward block. We want that when reward ends in the contract then the reward should not generate further."
      }
    },
    "notice": "You can use this contract to deposit pool tokens and get rewards",
    "version": 1
  }
}