{
  "contractName": "BirdFarm",
  "abi": [
    {
      "inputs": [
        {
          "internalType": "contract IERC20",
          "name": "_rewardToken",
          "type": "address"
        }
      ],
      "stateMutability": "nonpayable",
      "type": "constructor"
    },
    {
      "anonymous": false,
      "inputs": [
        {
          "indexed": false,
          "internalType": "uint256",
          "name": "amount",
          "type": "uint256"
        }
      ],
      "name": "AddedRewardTokensToContract",
      "type": "event"
    },
    {
      "anonymous": false,
      "inputs": [
        {
          "indexed": true,
          "internalType": "address",
          "name": "user",
          "type": "address"
        },
        {
          "indexed": true,
          "internalType": "uint256",
          "name": "pid",
          "type": "uint256"
        },
        {
          "indexed": false,
          "internalType": "uint256",
          "name": "amount",
          "type": "uint256"
        }
      ],
      "name": "Deposit",
      "type": "event"
    },
    {
      "anonymous": false,
      "inputs": [
        {
          "indexed": true,
          "internalType": "address",
          "name": "user",
          "type": "address"
        },
        {
          "indexed": true,
          "internalType": "uint256",
          "name": "pid",
          "type": "uint256"
        },
        {
          "indexed": false,
          "internalType": "uint256",
          "name": "amount",
          "type": "uint256"
        }
      ],
      "name": "EmergencyWithdraw",
      "type": "event"
    },
    {
      "anonymous": false,
      "inputs": [
        {
          "indexed": false,
          "internalType": "uint256",
          "name": "endRewardBlock",
          "type": "uint256"
        }
      ],
      "name": "EndRewardBlockChanged",
      "type": "event"
    },
    {
      "anonymous": false,
      "inputs": [
        {
          "indexed": true,
          "internalType": "address",
          "name": "user",
          "type": "address"
        },
        {
          "indexed": true,
          "internalType": "uint256",
          "name": "pid",
          "type": "uint256"
        },
        {
          "indexed": false,
          "internalType": "uint256",
          "name": "amount",
          "type": "uint256"
        }
      ],
      "name": "Harvest",
      "type": "event"
    },
    {
      "anonymous": false,
      "inputs": [
        {
          "indexed": false,
          "internalType": "contract IERC20",
          "name": "rewardToken",
          "type": "address"
        },
        {
          "indexed": false,
          "internalType": "uint256",
          "name": "rewardTokenPerBlock",
          "type": "uint256"
        },
        {
          "indexed": false,
          "internalType": "uint256",
          "name": "startRewardBlock",
          "type": "uint256"
        },
        {
          "indexed": false,
          "internalType": "uint256",
          "name": "endRewardBlock",
          "type": "uint256"
        },
        {
          "indexed": false,
          "internalType": "uint256",
          "name": "unstakeFrozenTime",
          "type": "uint256"
        },
        {
          "indexed": false,
          "internalType": "uint256",
          "name": "rewardFrozenTime",
          "type": "uint256"
        }
      ],
      "name": "ManyValuesChanged",
      "type": "event"
    },
    {
      "anonymous": false,
      "inputs": [
        {
          "indexed": true,
          "internalType": "address",
          "name": "previousOwner",
          "type": "address"
        },
        {
          "indexed": true,
          "internalType": "address",
          "name": "newOwner",
          "type": "address"
        }
      ],
      "name": "OwnershipTransferred",
      "type": "event"
    },
    {
      "anonymous": false,
      "inputs": [
        {
          "indexed": false,
          "internalType": "uint256",
          "name": "allocPoint",
          "type": "uint256"
        },
        {
          "indexed": false,
          "internalType": "contract IERC20",
          "name": "poolToken",
          "type": "address"
        },
        {
          "indexed": false,
          "internalType": "bool",
          "name": "withUpdate",
          "type": "bool"
        }
      ],
      "name": "PoolAdded",
      "type": "event"
    },
    {
      "anonymous": false,
      "inputs": [
        {
          "indexed": false,
          "internalType": "uint256",
          "name": "rewardFrozenTime",
          "type": "uint256"
        }
      ],
      "name": "RewardFrozenTimeChanged",
      "type": "event"
    },
    {
      "anonymous": false,
      "inputs": [
        {
          "indexed": false,
          "internalType": "contract IERC20",
          "name": "rewardToken",
          "type": "address"
        }
      ],
      "name": "RewardTokenChanged",
      "type": "event"
    },
    {
      "anonymous": false,
      "inputs": [
        {
          "indexed": false,
          "internalType": "uint256",
          "name": "rewardTokenPerBlock",
          "type": "uint256"
        }
      ],
      "name": "RewardTokenPerBlockChanged",
      "type": "event"
    },
    {
      "anonymous": false,
      "inputs": [
        {
          "indexed": false,
          "internalType": "uint256",
          "name": "startRewardBlock",
          "type": "uint256"
        }
      ],
      "name": "StartRewardBlockChanged",
      "type": "event"
    },
    {
      "anonymous": false,
      "inputs": [
        {
          "indexed": false,
          "internalType": "uint256",
          "name": "unstakeFrozenTime",
          "type": "uint256"
        }
      ],
      "name": "UnstakeFrozenTimeChanged",
      "type": "event"
    },
    {
      "anonymous": false,
      "inputs": [
        {
          "indexed": true,
          "internalType": "address",
          "name": "user",
          "type": "address"
        },
        {
          "indexed": true,
          "internalType": "uint256",
          "name": "pid",
          "type": "uint256"
        },
        {
          "indexed": false,
          "internalType": "uint256",
          "name": "amount",
          "type": "uint256"
        }
      ],
      "name": "Withdraw",
      "type": "event"
    },
    {
      "anonymous": false,
      "inputs": [
        {
          "indexed": false,
          "internalType": "uint256",
          "name": "amount",
          "type": "uint256"
        }
      ],
      "name": "WithdrawnRewardTokensFromContract",
      "type": "event"
    },
    {
      "inputs": [],
      "name": "MAX_UINT",
      "outputs": [
        {
          "internalType": "uint256",
          "name": "",
          "type": "uint256"
        }
      ],
      "stateMutability": "view",
      "type": "function",
      "constant": true
    },
    {
      "inputs": [],
      "name": "endRewardBlock",
      "outputs": [
        {
          "internalType": "uint256",
          "name": "",
          "type": "uint256"
        }
      ],
      "stateMutability": "view",
      "type": "function",
      "constant": true
    },
    {
      "inputs": [],
      "name": "migrator",
      "outputs": [
        {
          "internalType": "contract IMigratorChef",
          "name": "",
          "type": "address"
        }
      ],
      "stateMutability": "view",
      "type": "function",
      "constant": true
    },
    {
      "inputs": [],
      "name": "owner",
      "outputs": [
        {
          "internalType": "address",
          "name": "",
          "type": "address"
        }
      ],
      "stateMutability": "view",
      "type": "function",
      "constant": true
    },
    {
      "inputs": [
        {
          "internalType": "uint256",
          "name": "",
          "type": "uint256"
        }
      ],
      "name": "poolInfo",
      "outputs": [
        {
          "internalType": "contract IERC20",
          "name": "poolToken",
          "type": "address"
        },
        {
          "internalType": "uint256",
          "name": "allocPoint",
          "type": "uint256"
        },
        {
          "internalType": "uint256",
          "name": "lastRewardBlock",
          "type": "uint256"
        },
        {
          "internalType": "uint256",
          "name": "accRewardTokenPerShare",
          "type": "uint256"
        }
      ],
      "stateMutability": "view",
      "type": "function",
      "constant": true
    },
    {
      "inputs": [],
      "name": "renounceOwnership",
      "outputs": [],
      "stateMutability": "nonpayable",
      "type": "function"
    },
    {
      "inputs": [],
      "name": "rewardFrozenTime",
      "outputs": [
        {
          "internalType": "uint256",
          "name": "",
          "type": "uint256"
        }
      ],
      "stateMutability": "view",
      "type": "function",
      "constant": true
    },
    {
      "inputs": [],
      "name": "rewardToken",
      "outputs": [
        {
          "internalType": "contract IERC20",
          "name": "",
          "type": "address"
        }
      ],
      "stateMutability": "view",
      "type": "function",
      "constant": true
    },
    {
      "inputs": [],
      "name": "rewardTokenPerBlock",
      "outputs": [
        {
          "internalType": "uint256",
          "name": "",
          "type": "uint256"
        }
      ],
      "stateMutability": "view",
      "type": "function",
      "constant": true
    },
    {
      "inputs": [],
      "name": "startRewardBlock",
      "outputs": [
        {
          "internalType": "uint256",
          "name": "",
          "type": "uint256"
        }
      ],
      "stateMutability": "view",
      "type": "function",
      "constant": true
    },
    {
      "inputs": [],
      "name": "totalAllocPoint",
      "outputs": [
        {
          "internalType": "uint256",
          "name": "",
          "type": "uint256"
        }
      ],
      "stateMutability": "view",
      "type": "function",
      "constant": true
    },
    {
      "inputs": [
        {
          "internalType": "address",
          "name": "newOwner",
          "type": "address"
        }
      ],
      "name": "transferOwnership",
      "outputs": [],
      "stateMutability": "nonpayable",
      "type": "function"
    },
    {
      "inputs": [
        {
          "internalType": "contract IERC20",
          "name": "",
          "type": "address"
        }
      ],
      "name": "uniqueTokenInPool",
      "outputs": [
        {
          "internalType": "bool",
          "name": "",
          "type": "bool"
        }
      ],
      "stateMutability": "view",
      "type": "function",
      "constant": true
    },
    {
      "inputs": [],
      "name": "unstakeFrozenTime",
      "outputs": [
        {
          "internalType": "uint256",
          "name": "",
          "type": "uint256"
        }
      ],
      "stateMutability": "view",
      "type": "function",
      "constant": true
    },
    {
      "inputs": [
        {
          "internalType": "uint256",
          "name": "",
          "type": "uint256"
        },
        {
          "internalType": "address",
          "name": "",
          "type": "address"
        }
      ],
      "name": "userInfo",
      "outputs": [
        {
          "internalType": "uint256",
          "name": "amount",
          "type": "uint256"
        },
        {
          "internalType": "uint256",
          "name": "rewardDebt",
          "type": "uint256"
        },
        {
          "internalType": "uint256",
          "name": "unstakeTime",
          "type": "uint256"
        }
      ],
      "stateMutability": "view",
      "type": "function",
      "constant": true
    },
    {
      "inputs": [
        {
          "internalType": "uint256",
          "name": "_allocPoint",
          "type": "uint256"
        },
        {
          "internalType": "contract IERC20",
          "name": "_poolToken",
          "type": "address"
        },
        {
          "internalType": "bool",
          "name": "_withUpdate",
          "type": "bool"
        }
      ],
      "name": "addPool",
      "outputs": [],
      "stateMutability": "nonpayable",
      "type": "function"
    },
    {
      "inputs": [
        {
          "internalType": "uint256",
          "name": "_pid",
          "type": "uint256"
        },
        {
          "internalType": "uint256",
          "name": "_allocPoint",
          "type": "uint256"
        },
        {
          "internalType": "bool",
          "name": "_withUpdate",
          "type": "bool"
        }
      ],
      "name": "setAllocPoint",
      "outputs": [],
      "stateMutability": "nonpayable",
      "type": "function"
    },
    {
      "inputs": [
        {
          "internalType": "uint256",
          "name": "_pid",
          "type": "uint256"
        },
        {
          "internalType": "address",
          "name": "_user",
          "type": "address"
        }
      ],
      "name": "pendingRewardToken",
      "outputs": [
        {
          "internalType": "uint256",
          "name": "",
          "type": "uint256"
        }
      ],
      "stateMutability": "view",
      "type": "function",
      "constant": true
    },
    {
      "inputs": [
        {
          "internalType": "uint256",
          "name": "_pid",
          "type": "uint256"
        },
        {
          "internalType": "uint256",
          "name": "_amount",
          "type": "uint256"
        }
      ],
      "name": "deposit",
      "outputs": [],
      "stateMutability": "nonpayable",
      "type": "function"
    },
    {
      "inputs": [
        {
          "internalType": "uint256",
          "name": "_pid",
          "type": "uint256"
        },
        {
          "internalType": "uint256",
          "name": "_amount",
          "type": "uint256"
        }
      ],
      "name": "withdraw",
      "outputs": [],
      "stateMutability": "nonpayable",
      "type": "function"
    },
    {
      "inputs": [
        {
          "internalType": "uint256",
          "name": "_pid",
          "type": "uint256"
        }
      ],
      "name": "harvestPendingReward",
      "outputs": [],
      "stateMutability": "nonpayable",
      "type": "function"
    },
    {
      "inputs": [
        {
          "internalType": "uint256",
          "name": "_pid",
          "type": "uint256"
        }
      ],
      "name": "emergencyWithdraw",
      "outputs": [],
      "stateMutability": "nonpayable",
      "type": "function"
    },
    {
      "inputs": [],
      "name": "poolLength",
      "outputs": [
        {
          "internalType": "uint256",
          "name": "",
          "type": "uint256"
        }
      ],
      "stateMutability": "view",
      "type": "function",
      "constant": true
    },
    {
      "inputs": [
        {
          "internalType": "uint256",
          "name": "_amount",
          "type": "uint256"
        }
      ],
      "name": "addRewardTokensToContract",
      "outputs": [],
      "stateMutability": "nonpayable",
      "type": "function"
    },
    {
      "inputs": [
        {
          "internalType": "uint256",
          "name": "_amount",
          "type": "uint256"
        }
      ],
      "name": "withdrawRewardTokensFromContract",
      "outputs": [],
      "stateMutability": "nonpayable",
      "type": "function"
    },
    {
      "inputs": [
        {
          "internalType": "contract IERC20",
          "name": "_rewardToken",
          "type": "address"
        },
        {
          "internalType": "uint256",
          "name": "_rewardTokenPerBlock",
          "type": "uint256"
        },
        {
          "internalType": "uint256",
          "name": "_startRewardBlock",
          "type": "uint256"
        },
        {
          "internalType": "uint256",
          "name": "_endRewardBlock",
          "type": "uint256"
        },
        {
          "internalType": "uint256",
          "name": "_unstakeFrozenTime",
          "type": "uint256"
        },
        {
          "internalType": "uint256",
          "name": "_rewardFrozenTime",
          "type": "uint256"
        }
      ],
      "name": "setAll",
      "outputs": [],
      "stateMutability": "nonpayable",
      "type": "function"
    },
    {
      "inputs": [
        {
          "internalType": "contract IERC20",
          "name": "_rewardToken",
          "type": "address"
        }
      ],
      "name": "setRewardToken",
      "outputs": [],
      "stateMutability": "nonpayable",
      "type": "function"
    },
    {
      "inputs": [
        {
          "internalType": "uint256",
          "name": "_unstakeFrozenTime",
          "type": "uint256"
        }
      ],
      "name": "setUnstakeFrozenTime",
      "outputs": [],
      "stateMutability": "nonpayable",
      "type": "function"
    },
    {
      "inputs": [
        {
          "internalType": "uint256",
          "name": "_rewardFrozenTime",
          "type": "uint256"
        }
      ],
      "name": "setRewardFrozenTime",
      "outputs": [],
      "stateMutability": "nonpayable",
      "type": "function"
    },
    {
      "inputs": [
        {
          "internalType": "uint256",
          "name": "_rewardTokenPerBlock",
          "type": "uint256"
        }
      ],
      "name": "setRewardTokenPerBlock",
      "outputs": [],
      "stateMutability": "nonpayable",
      "type": "function"
    },
    {
      "inputs": [
        {
          "internalType": "uint256",
          "name": "_startRewardBlock",
          "type": "uint256"
        }
      ],
      "name": "setStartRewardBlock",
      "outputs": [],
      "stateMutability": "nonpayable",
      "type": "function"
    },
    {
      "inputs": [
        {
          "internalType": "uint256",
          "name": "_endRewardBlock",
          "type": "uint256"
        }
      ],
      "name": "setEndRewardBlock",
      "outputs": [],
      "stateMutability": "nonpayable",
      "type": "function"
    },
    {
      "inputs": [
        {
          "internalType": "address",
          "name": "_user",
          "type": "address"
        }
      ],
      "name": "balanceOf",
      "outputs": [
        {
          "internalType": "uint256",
          "name": "",
          "type": "uint256"
        }
      ],
      "stateMutability": "view",
      "type": "function",
      "constant": true
    },
    {
      "inputs": [],
      "name": "balanceOf",
      "outputs": [
        {
          "internalType": "uint256",
          "name": "",
          "type": "uint256"
        }
      ],
      "stateMutability": "view",
      "type": "function",
      "constant": true
    },
    {
      "inputs": [
        {
          "internalType": "contract IMigratorChef",
          "name": "_migrator",
          "type": "address"
        }
      ],
      "name": "setMigrator",
      "outputs": [],
      "stateMutability": "nonpayable",
      "type": "function"
    },
    {
      "inputs": [
        {
          "internalType": "uint256",
          "name": "_pid",
          "type": "uint256"
        }
      ],
      "name": "migrate",
      "outputs": [],
      "stateMutability": "nonpayable",
      "type": "function"
    },
    {
      "inputs": [],
      "name": "setUpEndRewardBlock",
      "outputs": [],
      "stateMutability": "nonpayable",
      "type": "function"
    }
  ],
  "bytecode": "0x608060405260006001556000600255600060035560001960045568056bc75e2d631000006005556000600b5534801561003757600080fd5b5060405162002a6838038062002a688339818101604052602081101561005c57600080fd5b505160006100686100d7565b600080546001600160a01b0319166001600160a01b0383169081178255604051929350917f8be0079c531659141344cd1fd0a4f28419497f9722a3daafe3b4186f6b6457e0908290a350600680546001600160a01b0319166001600160a01b03929092169190911790556100db565b3390565b61297d80620000eb6000396000f3fe608060405234801561001057600080fd5b50600436106102275760003560e01c8063722713f711610130578063a0f99203116100b8578063e2bbb1581161007c578063e2bbb1581461060b578063e5b5019a1461062e578063f2fde38b14610636578063f7c618c11461065c578063feb9d4c91461066457610227565b8063a0f9920314610564578063c9cc2e8e1461058f578063d3442705146105ac578063d7406965146105e6578063d7ed714e1461060357610227565b806381fa561a116100ff57806381fa561a146104dc578063838e9c76146104e45780638aee8127146104ec5780638da5cb5b1461051257806393f1a40b1461051a57610227565b8063722713f71461045f5780637abceffd146104675780637cd07e471461049b5780637ffc319b146104bf57610227565b80634e362966116101b3578063580aceee11610182578063580aceee146103da57806362b9e098146103f75780636e29544a1461041457806370a0823114610431578063715018a61461045757610227565b80634e362966146103905780634e714e11146103ad5780635312ea8e146103b5578063554c798a146103d257610227565b806317eba6db116101fa57806317eba6db146102c757806323cf31181461030d5780634030381514610333578063441a3e7014610350578063454b06081461037357610227565b8063081e3eda1461022c5780631526fe27146102465780631653fd331461029357806317caf6f1146102bf575b600080fd5b61023461066c565b60408051918252519081900360200190f35b6102636004803603602081101561025c57600080fd5b5035610672565b604080516001600160a01b0390951685526020850193909352838301919091526060830152519081900360800190f35b610234600480360360408110156102a957600080fd5b50803590602001356001600160a01b03166106b3565b610234610824565b61030b600480360360c08110156102dd57600080fd5b506001600160a01b038135169060208101359060408101359060608101359060808101359060a0013561082a565b005b61030b6004803603602081101561032357600080fd5b50356001600160a01b0316610920565b61030b6004803603602081101561034957600080fd5b50356109a4565b61030b6004803603604081101561036657600080fd5b5080359060200135610cad565b61030b6004803603602081101561038957600080fd5b5035610f3c565b61030b600480360360208110156103a657600080fd5b5035611200565b61030b6112de565b61030b600480360360208110156103cb57600080fd5b5035611392565b6102346114cb565b61030b600480360360208110156103f057600080fd5b50356114d1565b61030b6004803603602081101561040d57600080fd5b503561162a565b61030b6004803603602081101561042a57600080fd5b5035611708565b6102346004803603602081101561044757600080fd5b50356001600160a01b031661185b565b61030b6118de565b61023461198a565b61030b6004803603606081101561047d57600080fd5b508035906001600160a01b036020820135169060400135151561199a565b6104a3611be1565b604080516001600160a01b039092168252519081900360200190f35b61030b600480360360208110156104d557600080fd5b5035611bf0565b610234611c8d565b610234611c93565b61030b6004803603602081101561050257600080fd5b50356001600160a01b0316611c99565b6104a3611d4f565b6105466004803603604081101561053057600080fd5b50803590602001356001600160a01b0316611d5e565b60408051938452602084019290925282820152519081900360600190f35b61030b6004803603606081101561057a57600080fd5b50803590602081013590604001351515611d8a565b61030b600480360360208110156105a557600080fd5b5035611e65565b6105d2600480360360208110156105c257600080fd5b50356001600160a01b0316611f02565b604080519115158252519081900360200190f35b61030b600480360360208110156105fc57600080fd5b5035611f17565b610234611fb4565b61030b6004803603604081101561062157600080fd5b5080359060200135611fba565b61023461227b565b61030b6004803603602081101561064c57600080fd5b50356001600160a01b0316612281565b6104a3612383565b610234612392565b60075490565b6007818154811061067f57fe5b600091825260209091206004909102018054600182015460028301546003909301546001600160a01b039092169350919084565b600080600784815481106106c357fe5b600091825260208083208784526009825260408085206001600160a01b03898116875290845281862060049586029093016003810154815484516370a0823160e01b81523098810198909852935191985093969395939492909116926370a08231926024808301939192829003018186803b15801561074157600080fd5b505afa158015610755573d6000803e3d6000fd5b505050506040513d602081101561076b57600080fd5b505160028501549091506000906107829043612398565b905060006107b5600b546107af88600101546107a9600554876123da90919063ffffffff16565b906123da565b9061243a565b905082156107dd576107da6107d3846107af8464e8d4a510006123da565b85906124a1565b93505b61080b856001015461080564e8d4a510006107af888a600001546123da90919063ffffffff16565b906124fb565b6108148a612558565b0196505050505050505b92915050565b600b5481565b610832612575565b6001600160a01b0316610843611d4f565b6001600160a01b03161461088c576040805162461bcd60e51b81526020600482018190526024820152600080516020612853833981519152604482015290519081900360640190fd5b600680546001600160a01b0388166001600160a01b03199091168117909155600586905560038590556004849055600183905560028290556040805191825260208201879052818101869052606082018590526080820184905260a08201839052517f80b27aaf58209ccce71f6cefbccba05da9452108c8338837db4686ed818f90579181900360c00190a1505050505050565b610928612575565b6001600160a01b0316610939611d4f565b6001600160a01b031614610982576040805162461bcd60e51b81526020600482018190526024820152600080516020612853833981519152604482015290519081900360640190fd5b600c80546001600160a01b0319166001600160a01b0392909216919091179055565b6000600782815481106109b357fe5b60009182526020808320858452600982526040808520338652909252922060025460049092029092019250421015610a1c5760405162461bcd60e51b815260040180806020018281038252602481526020018061289d6024913960400191505060405180910390fd5b610a2583612579565b6000610a53826001015461080564e8d4a510006107af876003015487600001546123da90919063ffffffff16565b9050610a603385836126ae565b6000610a6b85612558565b905060008111610ac2576040805162461bcd60e51b815260206004820152601b60248201527f596f752068617665206e6f2070656e64696e67207265776172642e0000000000604482015290519081900360640190fd5b60038401548354610add9164e8d4a51000916107af916123da565b6001840155600654604080516370a0823160e01b8152306004820152905183926001600160a01b0316916370a08231916024808301926020929190829003018186803b158015610b2c57600080fd5b505afa158015610b40573d6000803e3d6000fd5b505050506040513d6020811015610b5657600080fd5b505111610b945760405162461bcd60e51b81526004018080602001828103825260248152602001806128f76024913960400191505060405180910390fd5b610b9e33866126db565b6006546040805163a9059cbb60e01b81523360048201526024810184905290516001600160a01b039092169163a9059cbb916044808201926020929091908290030181600087803b158015610bf257600080fd5b505af1158015610c06573d6000803e3d6000fd5b505050506040513d6020811015610c1c57600080fd5b5051610c6f576040805162461bcd60e51b815260206004820152601d60248201527f4572726f7220696e207472616e7366657272696e67207265776172642e000000604482015290519081900360640190fd5b604080518281529051869133917f71bab65ced2e5750775a0613be067df48ef06cf92a496ebf7663ae06609249549181900360200190a35050505050565b60008111610cec5760405162461bcd60e51b815260040180806020018281038252602381526020018061280f6023913960400191505060405180910390fd5b600060078381548110610cfb57fe5b600091825260208083208684526009825260408085203386529092529220805460049092029092019250831115610d635760405162461bcd60e51b81526004018080602001828103825260338152602001806127276033913960400191505060405180910390fd5b8060020154421015610dbc576040805162461bcd60e51b815260206004820152601d60248201527f43616e206e6f7420756e7374616b6520617420746869732074696d652e000000604482015290519081900360640190fd5b610dc584612579565b6000610df3826001015461080564e8d4a510006107af876003015487600001546123da90919063ffffffff16565b9050610e003386836126ae565b8154610e0c90856124fb565b8083556003840154610e299164e8d4a51000916107af91906123da565b600183015582546040805163a9059cbb60e01b81523360048201526024810187905290516001600160a01b039092169163a9059cbb916044808201926020929091908290030181600087803b158015610e8157600080fd5b505af1158015610e95573d6000803e3d6000fd5b505050506040513d6020811015610eab57600080fd5b5051610efe576040805162461bcd60e51b815260206004820152601e60248201527f4572726f7220696e20776974686472617720706f6f6c20746f6b656e732e0000604482015290519081900360640190fd5b604080518581529051869133917ff279e6a1f5e320cca91135676d9cb6e44ca8a08c0b88342bcdb1144f6511b5689181900360200190a35050505050565b600c546001600160a01b0316610f90576040805162461bcd60e51b815260206004820152601460248201527336b4b3b930ba329d1037379036b4b3b930ba37b960611b604482015290519081900360640190fd5b600060078281548110610f9f57fe5b600091825260208083206004928302018054604080516370a0823160e01b81523095810195909552519195506001600160a01b0316939284926370a0823192602480840193829003018186803b158015610ff857600080fd5b505afa15801561100c573d6000803e3d6000fd5b505050506040513d602081101561102257600080fd5b5051600c546040805163095ea7b360e01b81526001600160a01b0392831660048201526024810184905290519293509084169163095ea7b3916044808201926020929091908290030181600087803b15801561107d57600080fd5b505af1158015611091573d6000803e3d6000fd5b505050506040513d60208110156110a757600080fd5b5050600c546040805163ce5494bb60e01b81526001600160a01b0385811660048301529151600093929092169163ce5494bb9160248082019260209290919082900301818787803b1580156110fb57600080fd5b505af115801561110f573d6000803e3d6000fd5b505050506040513d602081101561112557600080fd5b5051604080516370a0823160e01b815230600482015290519192506001600160a01b038316916370a0823191602480820192602092909190829003018186803b15801561117157600080fd5b505afa158015611185573d6000803e3d6000fd5b505050506040513d602081101561119b57600080fd5b505182146111df576040805162461bcd60e51b815260206004820152600c60248201526b1b5a59dc985d194e8818985960a21b604482015290519081900360640190fd5b83546001600160a01b0319166001600160a01b039190911617909255505050565b611208612575565b6001600160a01b0316611219611d4f565b6001600160a01b031614611262576040805162461bcd60e51b81526020600482018190526024820152600080516020612853833981519152604482015290519081900360640190fd5b8060035411156112a35760405162461bcd60e51b81526004018080602001828103825260408152602001806127cf6040913960400191505060405180910390fd5b60048190556040805182815290517fe7d85683063a512b0ea7c9d84ce4ff33b516bc16b36f3dc5a98dd0b479d9f1319181900360200190a150565b6112e6612575565b6001600160a01b03166112f7611d4f565b6001600160a01b031614611340576040805162461bcd60e51b81526020600482018190526024820152600080516020612853833981519152604482015290519081900360640190fd5b60006113516005546107af3061185b565b438101600481905560408051918252519192507fe7d85683063a512b0ea7c9d84ce4ff33b516bc16b36f3dc5a98dd0b479d9f131919081900360200190a150565b6000600782815481106113a157fe5b60009182526020808320858452600982526040808520338087529084528186208681556001810187905560049586029093018054835163a9059cbb60e01b81529687019290925260248601879052915191965091946001600160a01b039092169363a9059cbb936044808301949193928390030190829087803b15801561142757600080fd5b505af115801561143b573d6000803e3d6000fd5b505050506040513d602081101561145157600080fd5b505161148e5760405162461bcd60e51b815260040180806020018281038252602d8152602001806127a2602d913960400191505060405180910390fd5b80546040805191825251849133917fbb757047c2b5f3974fe26b7c10f732e7bce710b0952a71082702781e62ae05959181900360200190a3505050565b60055481565b6114d9612575565b6001600160a01b03166114ea611d4f565b6001600160a01b031614611533576040805162461bcd60e51b81526020600482018190526024820152600080516020612853833981519152604482015290519081900360640190fd5b600654604080516323b872dd60e01b81523360048201523060248201526044810184905290516001600160a01b03909216916323b872dd916064808201926020929091908290030181600087803b15801561158d57600080fd5b505af11580156115a1573d6000803e3d6000fd5b505050506040513d60208110156115b757600080fd5b50516115f45760405162461bcd60e51b815260040180806020018281038252602a815260200180612873602a913960400191505060405180910390fd5b6040805182815290517f0f122fff8f6fbdfac3723c7c7376574360a75caaa0a4a6a78e52a46572ad20cf9181900360200190a150565b611632612575565b6001600160a01b0316611643611d4f565b6001600160a01b03161461168c576040805162461bcd60e51b81526020600482018190526024820152600080516020612853833981519152604482015290519081900360640190fd5b6004548111156116cd5760405162461bcd60e51b81526004018080602001828103825260368152602001806128c16036913960400191505060405180910390fd5b60038190556040805182815290517ff0b3b2831f479a7321e755a2b6ef2ae0b5e32985a8959e61ffaec437194f4d3a9181900360200190a150565b611710612575565b6001600160a01b0316611721611d4f565b6001600160a01b03161461176a576040805162461bcd60e51b81526020600482018190526024820152600080516020612853833981519152604482015290519081900360640190fd5b6006546040805163a9059cbb60e01b81523360048201526024810184905290516001600160a01b039092169163a9059cbb916044808201926020929091908290030181600087803b1580156117be57600080fd5b505af11580156117d2573d6000803e3d6000fd5b505050506040513d60208110156117e857600080fd5b50516118255760405162461bcd60e51b815260040180806020018281038252602d81526020018061291b602d913960400191505060405180910390fd5b6040805182815290517f61921e925aa4700226193db9b81dd3c05e15fd9a39a66bafad71cccf67a6a2889181900360200190a150565b600654604080516370a0823160e01b81526001600160a01b038481166004830152915160009392909216916370a0823191602480820192602092909190829003018186803b1580156118ac57600080fd5b505afa1580156118c0573d6000803e3d6000fd5b505050506040513d60208110156118d657600080fd5b505192915050565b6118e6612575565b6001600160a01b03166118f7611d4f565b6001600160a01b031614611940576040805162461bcd60e51b81526020600482018190526024820152600080516020612853833981519152604482015290519081900360640190fd5b600080546040516001600160a01b03909116907f8be0079c531659141344cd1fd0a4f28419497f9722a3daafe3b4186f6b6457e0908390a3600080546001600160a01b0319169055565b60006119953361185b565b905090565b6119a2612575565b6001600160a01b03166119b3611d4f565b6001600160a01b0316146119fc576040805162461bcd60e51b81526020600482018190526024820152600080516020612853833981519152604482015290519081900360640190fd5b6001600160a01b03821660009081526008602052604090205460ff1615611a60576040805162461bcd60e51b8152602060048201526013602482015272151bdad95b88185b1c9958591e481859191959606a1b604482015290519081900360640190fd5b8015611a6e57611a6e612703565b60006003544311611a8157600354611a83565b435b600b54909150611a9390856124a1565b600b55604080516080810182526001600160a01b03858116808352602080840189815284860187815260006060808801828152600780546001808201835591855299517fa66cc928b5edb82af9bd49922954155ab7b0942694bea4ce44661d9a8736c6886004909b029a8b0180546001600160a01b03191691909a161790985593517fa66cc928b5edb82af9bd49922954155ab7b0942694bea4ce44661d9a8736c68989015591517fa66cc928b5edb82af9bd49922954155ab7b0942694bea4ce44661d9a8736c68a88015591517fa66cc928b5edb82af9bd49922954155ab7b0942694bea4ce44661d9a8736c68b9096019590955582815260088252859020805460ff19169093179092558351888152918201528415158184015291517fb3af11fd81730e83a2f875e4903aad6d9b78e96c2c5461c9ec7c30abef8356c49281900390910190a150505050565b600c546001600160a01b031681565b611bf8612575565b6001600160a01b0316611c09611d4f565b6001600160a01b031614611c52576040805162461bcd60e51b81526020600482018190526024820152600080516020612853833981519152604482015290519081900360640190fd5b60028190556040805182815290517faef38fc0702b0fad4b1dfce7e29092e26412be5abfadfabb118c6124d8880b6d9181900360200190a150565b60045481565b60015481565b611ca1612575565b6001600160a01b0316611cb2611d4f565b6001600160a01b031614611cfb576040805162461bcd60e51b81526020600482018190526024820152600080516020612853833981519152604482015290519081900360640190fd5b600680546001600160a01b0383166001600160a01b0319909116811790915560408051918252517fb74d956cf6ec7842d08ebf0ab19ec03a88c1efd4a50ea4349d30f9c4ce512e989181900360200190a150565b6000546001600160a01b031690565b600960209081526000928352604080842090915290825290208054600182015460029092015490919083565b611d92612575565b6001600160a01b0316611da3611d4f565b6001600160a01b031614611dec576040805162461bcd60e51b81526020600482018190526024820152600080516020612853833981519152604482015290519081900360640190fd5b8015611dfa57611dfa612703565b611e3782611e3160078681548110611e0e57fe5b906000526020600020906004020160010154600b546124fb90919063ffffffff16565b906124a1565b600b819055508160078481548110611e4b57fe5b906000526020600020906004020160010181905550505050565b611e6d612575565b6001600160a01b0316611e7e611d4f565b6001600160a01b031614611ec7576040805162461bcd60e51b81526020600482018190526024820152600080516020612853833981519152604482015290519081900360640190fd5b60018190556040805182815290517f9e009f63830ca738bff6fbc38990622b83298c321dceb9b8c064b903c066db6d9181900360200190a150565b60086020526000908152604090205460ff1681565b611f1f612575565b6001600160a01b0316611f30611d4f565b6001600160a01b031614611f79576040805162461bcd60e51b81526020600482018190526024820152600080516020612853833981519152604482015290519081900360640190fd5b60058190556040805182815290517f0914eb57aaf7dc30fb65a4997a39040c8c91ebe3bdd5226dde439f7a5fefaf6a9181900360200190a150565b60035481565b60008111611ff95760405162461bcd60e51b81526004018080602001828103825260228152602001806127806022913960400191505060405180910390fd5b60006007838154811061200857fe5b6000918252602080832086845260098252604080852033808752908452948190206004948502909201805482516370a0823160e01b8152958601969096529051909550909386936001600160a01b03909116926370a0823192602480840193829003018186803b15801561207b57600080fd5b505afa15801561208f573d6000803e3d6000fd5b505050506040513d60208110156120a557600080fd5b505110156120e45760405162461bcd60e51b81526004018080602001828103825260228152602001806127806022913960400191505060405180910390fd5b6120ed84612579565b600061211b826001015461080564e8d4a510006107af876003015487600001546123da90919063ffffffff16565b90506121283386836126ae565b815461213957600154420160028301555b815461214590856124a1565b80835560038401546121629164e8d4a51000916107af91906123da565b60018301558254604080516323b872dd60e01b81523360048201523060248201526044810187905290516001600160a01b03909216916323b872dd916064808201926020929091908290030181600087803b1580156121c057600080fd5b505af11580156121d4573d6000803e3d6000fd5b505050506040513d60208110156121ea57600080fd5b505161223d576040805162461bcd60e51b815260206004820181905260248201527f4572726f7220696e206465706f736974206f6620706f6f6c20746f6b656e732e604482015290519081900360640190fd5b604080518581529051869133917f90890809c654f11d6e72a28fa60149770a0d11ec6c92319d6ceb2bb0a4ea1a159181900360200190a35050505050565b60001981565b612289612575565b6001600160a01b031661229a611d4f565b6001600160a01b0316146122e3576040805162461bcd60e51b81526020600482018190526024820152600080516020612853833981519152604482015290519081900360640190fd5b6001600160a01b0381166123285760405162461bcd60e51b815260040180806020018281038252602681526020018061275a6026913960400191505060405180910390fd5b600080546040516001600160a01b03808516939216917f8be0079c531659141344cd1fd0a4f28419497f9722a3daafe3b4186f6b6457e091a3600080546001600160a01b0319166001600160a01b0392909216919091179055565b6006546001600160a01b031681565b60025481565b60008060035484106123aa57836123ae565b6003545b9050600060045484116123c157836123c5565b6004545b90506123d181836124fb565b95945050505050565b6000826123e95750600061081e565b828202828482816123f657fe5b04146124335760405162461bcd60e51b81526004018080602001828103825260218152602001806128326021913960400191505060405180910390fd5b9392505050565b6000808211612490576040805162461bcd60e51b815260206004820152601a60248201527f536166654d6174683a206469766973696f6e206279207a65726f000000000000604482015290519081900360640190fd5b81838161249957fe5b049392505050565b600082820183811015612433576040805162461bcd60e51b815260206004820152601b60248201527f536166654d6174683a206164646974696f6e206f766572666c6f770000000000604482015290519081900360640190fd5b600082821115612552576040805162461bcd60e51b815260206004820152601e60248201527f536166654d6174683a207375627472616374696f6e206f766572666c6f770000604482015290519081900360640190fd5b50900390565b336000908152600a60209081526040808320938352929052205490565b3390565b60006007828154811061258857fe5b906000526020600020906004020190506003544310806125a9575060045443115b156125b457506126ab565b8054604080516370a0823160e01b815230600482015290516000926001600160a01b0316916370a08231916024808301926020929190829003018186803b1580156125fe57600080fd5b505afa158015612612573d6000803e3d6000fd5b505050506040513d602081101561262857600080fd5b505190508061263e5750436002909101556126ab565b600061264e836002015443612398565b90506000612675600b546107af86600101546107a9600554876123da90919063ffffffff16565b905061269861268d846107af8464e8d4a510006123da565b6003860154906124a1565b6003850155505043600290920191909155505b50565b6001600160a01b03929092166000908152600a602090815260408083209383529290522080549091019055565b6001600160a01b039091166000908152600a6020908152604080832093835292905290812055565b60075460005b818110156127225761271a81612579565b600101612709565b505056fe596f752068617665206c65737320706f6f6c20746f6b656e7320617661696c61626c65207468616e207265717565737465642e4f776e61626c653a206e6577206f776e657220697320746865207a65726f20616464726573734d757374206465706f73697420616d6f756e74206d6f7265207468616e205a45524f4572726f7220696e20656d657267656e6379207769746864726177206f66207374616b656420746f6b656e732e456e642072657761726420626c6f636b206d7573742062652067726561746572206f7220657175616c20746f2073746172742072657761726420626c6f636b2e4d75737420776974686472617720616d6f756e74206d6f7265207468616e205a45524f536166654d6174683a206d756c7469706c69636174696f6e206f766572666c6f774f776e61626c653a2063616c6c6572206973206e6f7420746865206f776e65724572726f7220696e20616464696e672072657761726420746f6b656e7320696e20636f6e74726163742e43616e206e6f7420636f6c6c6563742072657761726420617420746869732074696d652e537461727420626c6f636b206d757374206265206c657373206f7220657175616c20746f20656e642072657761726420626c6f636b2e5468697320636f6e747261637420686173206e6f7420656e6f7567682062616c616e63654572726f7220696e2067657474696e672072657761726420746f6b656e732066726f6d20636f6e74726163742ea264697066735822122009be2c269736a2ff6dca705682a6af8dc4a575e31f5a480e0adbd6134b3d173764736f6c634300060c0033",
  "immutableReferences": {},
  "source": "// SPDX-License-Identifier: MIT\npragma solidity 0.6.12;\n\nimport \"@openzeppelin/contracts/math/SafeMath.sol\";\nimport \"@openzeppelin/contracts/token/ERC20/ERC20.sol\";\nimport \"@openzeppelin/contracts/token/ERC20/IERC20.sol\";\nimport \"@openzeppelin/contracts/access/Ownable.sol\";\n\n// BirdFarm is the master of RewardToken. He can make RewardToken and he is a fair guy.\n//\n// Note that it's ownable and the owner wields tremendous power. The ownership\n// will be transferred to a governance smart contract once REWARD_TOKEN is sufficiently\n// distributed and the community can show to govern itself.\n//\n// Have fun reading it. Hopefully it's bug-free. God bless.\n\n/// @title Farming service for pool tokens\n/// @author Bird Money\n/// @notice You can use this contract to deposit pool tokens and get rewards\n/// @dev Admin can add a new Pool, users can deposit pool tokens, harvestReward, withdraw pool tokens\ncontract BirdFarm is Ownable {\n    using SafeMath for uint256;\n\n    /// @notice user can get reward and unstake after this time only.\n    /// @dev No froze time initially, if needed it can be added and informed to community.\n    uint256 public unstakeFrozenTime = 0 seconds;\n\n    /// @dev No froze time initially, if needed it can be added and informed to community.\n    uint256 public rewardFrozenTime = 0 seconds;\n\n    /// @dev The block number when REWARD_TOKEN distribution starts.\n    uint256 public startRewardBlock = 0;\n\n    /// @dev The block number when REWARD_TOKEN distribution stops.\n    uint256 public endRewardBlock = MAX_UINT; // MAX UINT\n\n    /// @dev REWARD_TOKEN tokens created per block.\n    uint256 public rewardTokenPerBlock = 100 ether;\n\n    /// @dev The REWARD_TOKEN TOKEN!\n    IERC20 public rewardToken;\n\n    /// @dev Info of each pool.\n    PoolInfo[] public poolInfo;\n\n    /// @dev To prevent a token to added in multiple pools\n    mapping(IERC20 => bool) public uniqueTokenInPool;\n\n    /// @dev Info of each user that staked tokens.\n    mapping(uint256 => mapping(address => UserInfo)) public userInfo;\n\n    mapping(address => mapping(uint256 => uint256)) private pendingRewardOf;\n\n    /// @dev Total allocation poitns. Must be the sum of all allocation points in all pools.\n    uint256 public totalAllocPoint = 0;\n\n    /// @dev max number used to set some variable like reward ending block initially\n    uint256 public constant MAX_UINT = type(uint256).max;\n\n    /// @dev deposit tokens in contract to get reward\n    event Deposit(address indexed user, uint256 indexed pid, uint256 amount);\n\n    /// @dev withdraw deposit tokens in contract to get reward\n    event Withdraw(address indexed user, uint256 indexed pid, uint256 amount);\n\n    /// @dev harvest tokens from contract to get reward\n    event Harvest(address indexed user, uint256 indexed pid, uint256 amount);\n\n    /// @dev emergeny withdraw of pool tokens from contract\n    event EmergencyWithdraw(\n        address indexed user,\n        uint256 indexed pid,\n        uint256 amount\n    );\n\n    /// @dev emergeny withdraw of pool tokens from contract\n    /// @param _rewardToken the token in which reward will be givenss\n    constructor(IERC20 _rewardToken) public {\n        rewardToken = _rewardToken;\n    }\n\n    // Info of each user.\n    struct UserInfo {\n        uint256 amount; // How many pool tokens the user has staked\n        uint256 rewardDebt; // Reward debt. See explanation below.\n        uint256 unstakeTime; // user can unstake pool tokens at this time or after this time to get reward\n        //\n        // We do some fancy math here. Basically, any point in time, the amount of REWARD_TOKENs\n        // entitled to a user but is pending to be distributed is:\n        //\n        //   pending reward = (user.amount * pool.accRewardTokenPerShare) - user.rewardDebt\n        //\n        // Whenever a user deposits or withdraws pool tokens to a pool. Here's what happens:\n        //   1. The pool's `accRewardTokenPerShare` (and `lastRewardBlock`) gets updated.\n        //   2. User pnding reward saved to this contract.\n        //   3. User's `amount` gets updated.\n        //   4. User's `rewardDebt` gets updated.\n    }\n\n    // Info of each pool.\n    struct PoolInfo {\n        IERC20 poolToken; // Address of pool token contract.\n        uint256 allocPoint; // How many allocation points assigned to this pool. REWARD_TOKENs to distribute per block.\n        uint256 lastRewardBlock; // Last block number that REWARD_TOKENs distribution occurs.\n        uint256 accRewardTokenPerShare; // Accumulated REWARD_TOKENs per share, times 1e12. See below.\n    }\n\n    /// @notice Adds a new pool. Can only be called by the owner.\n    /// @dev Only adds unique pool token\n    /// @param _allocPoint The weight of this pool. The more it is the more percentage of reward per block it will get for its users with respect to other pools. But the total reward per block remains same.\n    /// @param _poolToken The Liquidity Pool Token of this pool\n    /// @param _withUpdate if true then it updates the reward tokens to be given for each of the tokens staked\n    function addPool(\n        uint256 _allocPoint,\n        IERC20 _poolToken,\n        bool _withUpdate\n    ) external onlyOwner {\n        require(!uniqueTokenInPool[_poolToken], \"Token already added\");\n        if (_withUpdate) {\n            massUpdatePools();\n        }\n        uint256 lastRewardBlock =\n            block.number > startRewardBlock ? block.number : startRewardBlock;\n        totalAllocPoint = totalAllocPoint.add(_allocPoint);\n        poolInfo.push(\n            PoolInfo({\n                poolToken: _poolToken,\n                allocPoint: _allocPoint,\n                lastRewardBlock: lastRewardBlock,\n                accRewardTokenPerShare: 0\n            })\n        );\n        uniqueTokenInPool[_poolToken] = true;\n        emit PoolAdded(_allocPoint, _poolToken, _withUpdate);\n    }\n\n    event PoolAdded(uint256 allocPoint, IERC20 poolToken, bool withUpdate);\n\n    /// @notice Update the given pool's REWARD_TOKEN pool weight. Can only be called by the owner.\n    /// @dev it can change weight of pool with repect to other pools\n    /// @param _pid pool id\n    /// @param _allocPoint The weight of this pool. The more it is the more percentage of reward per block it will get for its users with respect to other pools. But the total reward per block remains same.\n    /// @param _withUpdate if true then it updates the reward tokens to be given for each of the tokens staked\n    function setAllocPoint(\n        uint256 _pid,\n        uint256 _allocPoint,\n        bool _withUpdate\n    ) external onlyOwner {\n        if (_withUpdate) {\n            massUpdatePools();\n        }\n        totalAllocPoint = totalAllocPoint.sub(poolInfo[_pid].allocPoint).add(\n            _allocPoint\n        );\n        poolInfo[_pid].allocPoint = _allocPoint;\n    }\n\n    /// @notice Tells the number of blocks eligible for rewards.\n    /// @dev Return reward multiplier over the given _from to _to block\n    /// @param _from start block\n    /// @param _to end block\n    /// @return number of blocks eligible for rewards\n\n    function getMultiplier(uint256 _from, uint256 _to)\n        internal\n        view\n        returns (uint256)\n    {\n        uint256 from = _from < startRewardBlock ? startRewardBlock : _from;\n        uint256 to = _to > endRewardBlock ? endRewardBlock : _to;\n        return to.sub(from);\n    }\n\n    /// @notice get reward tokens to show on UI\n    /// @dev calculates reward tokens of a user with repect to pool id\n    /// @param _pid the pool id\n    /// @param _user the user who is calls this function\n    /// @return pending reward token of a user\n    // View function to see pending REWARD_TOKENs on frontend.\n    function pendingRewardToken(uint256 _pid, address _user)\n        external\n        view\n        returns (uint256)\n    {\n        PoolInfo storage pool = poolInfo[_pid];\n        UserInfo storage user = userInfo[_pid][_user];\n        uint256 accRewardTokenPerShare = pool.accRewardTokenPerShare;\n        uint256 poolSupply = pool.poolToken.balanceOf(address(this));\n\n        uint256 multiplier = getMultiplier(pool.lastRewardBlock, block.number);\n        uint256 rewardTokenReward =\n            multiplier.mul(rewardTokenPerBlock).mul(pool.allocPoint).div(\n                totalAllocPoint\n            );\n\n        if (poolSupply != 0)\n            accRewardTokenPerShare = accRewardTokenPerShare.add(\n                rewardTokenReward.mul(1e12).div(poolSupply)\n            );\n\n        return\n            getReward(_pid) +\n            user.amount.mul(accRewardTokenPerShare).div(1e12).sub(\n                user.rewardDebt\n            );\n    }\n\n    /// @notice updates different variables needed for reward calculation for all pools\n    /// @dev updates lastRewardBlock and accRewardTokenPerShare of all pools. Be careful of gas spending!\n    function massUpdatePools() internal {\n        uint256 length = poolInfo.length;\n        for (uint256 pid = 0; pid < length; ++pid) {\n            updatePool(pid);\n        }\n    }\n\n    /// @notice updates different variables needed for reward calculation\n    /// @dev updates lastRewardBlock and accRewardTokenPerShare of a pool\n    /// @param _pid pool id\n    function updatePool(uint256 _pid) internal {\n        PoolInfo storage pool = poolInfo[_pid];\n\n        if (block.number < startRewardBlock || block.number > endRewardBlock) {\n            return;\n        }\n\n        uint256 poolSupply = pool.poolToken.balanceOf(address(this));\n        if (poolSupply == 0) {\n            pool.lastRewardBlock = block.number;\n            return;\n        }\n        uint256 multiplier = getMultiplier(pool.lastRewardBlock, block.number);\n        uint256 rewardTokenReward =\n            multiplier.mul(rewardTokenPerBlock).mul(pool.allocPoint).div(\n                totalAllocPoint\n            );\n        pool.accRewardTokenPerShare = pool.accRewardTokenPerShare.add(\n            rewardTokenReward.mul(1e12).div(poolSupply)\n        );\n        pool.lastRewardBlock = block.number;\n    }\n\n    /// @notice deposit tokens to get rewards\n    /// @dev deposit pool tokens to BirdFarm for reward tokens allocation.\n    /// @param _pid pool id\n    /// @param _amount how many tokens you want to stake\n    function deposit(uint256 _pid, uint256 _amount) external {\n        require(_amount > 0, \"Must deposit amount more than ZERO\");\n\n        PoolInfo storage pool = poolInfo[_pid];\n        UserInfo storage user = userInfo[_pid][msg.sender];\n        require(\n            pool.poolToken.balanceOf(msg.sender) >= _amount,\n            \"Must deposit amount more than ZERO\"\n        );\n\n        updatePool(_pid);\n\n        uint256 pending =\n            user.amount.mul(pool.accRewardTokenPerShare).div(1e12).sub(\n                user.rewardDebt\n            );\n        savePendingReward(msg.sender, _pid, pending);\n        if (user.amount == 0) user.unstakeTime = now + unstakeFrozenTime;\n\n        user.amount = user.amount.add(_amount);\n        user.rewardDebt = user.amount.mul(pool.accRewardTokenPerShare).div(\n            1e12\n        );\n        require(\n            pool.poolToken.transferFrom(\n                address(msg.sender),\n                address(this),\n                _amount\n            ),\n            \"Error in deposit of pool tokens.\"\n        );\n        emit Deposit(msg.sender, _pid, _amount);\n    }\n\n    /// @notice get the tokens back from BardFarm\n    /// @dev withdraw or unstake pool tokens from BidFarm\n    /// @param _pid pool id\n    /// @param _amount how many pool tokens you want to unstake\n    function withdraw(uint256 _pid, uint256 _amount) external {\n        require(_amount > 0, \"Must withdraw amount more than ZERO\");\n        PoolInfo storage pool = poolInfo[_pid];\n        UserInfo storage user = userInfo[_pid][msg.sender];\n        require(\n            user.amount >= _amount,\n            \"You have less pool tokens available than requested.\"\n        );\n        require(now >= user.unstakeTime, \"Can not unstake at this time.\");\n\n        updatePool(_pid);\n        uint256 pending =\n            user.amount.mul(pool.accRewardTokenPerShare).div(1e12).sub(\n                user.rewardDebt\n            );\n        savePendingReward(msg.sender, _pid, pending);\n        user.amount = user.amount.sub(_amount);\n        user.rewardDebt = user.amount.mul(pool.accRewardTokenPerShare).div(\n            1e12\n        );\n        require(\n            pool.poolToken.transfer(address(msg.sender), _amount),\n            \"Error in withdraw pool tokens.\"\n        );\n        emit Withdraw(msg.sender, _pid, _amount);\n    }\n\n    /// @notice harvest reward tokens from BardFarm\n    /// @dev harvest reward tokens from BidFarm and update pool variables\n    /// @param _pid pool id\n\n    function harvestPendingReward(uint256 _pid) external {\n        PoolInfo storage pool = poolInfo[_pid];\n        UserInfo storage user = userInfo[_pid][msg.sender];\n        require(\n            now >= rewardFrozenTime,\n            \"Can not collect reward at this time.\"\n        );\n\n        updatePool(_pid);\n        uint256 pending =\n            user.amount.mul(pool.accRewardTokenPerShare).div(1e12).sub(\n                user.rewardDebt\n            );\n\n        savePendingReward(msg.sender, _pid, pending);\n\n        uint256 reward = getReward(_pid);\n        require(reward > 0, \"You have no pending reward.\");\n\n        user.rewardDebt = user.amount.mul(pool.accRewardTokenPerShare).div(\n            1e12\n        );\n\n        require(\n            rewardToken.balanceOf(address(this)) > reward,\n            \"This contract has not enough balance\"\n        );\n\n        // User has collected the reward so pending reward is ZERO\n        clearPendingReward(msg.sender, _pid);\n\n        require(\n            rewardToken.transfer(msg.sender, reward),\n            \"Error in transferring reward.\"\n        );\n        emit Harvest(msg.sender, _pid, reward);\n    }\n\n    /// @notice get the tokens which user staked. In case of EMERGENCY ONLY.\n    /// @dev get the pool tokens back from BardFarm without caring about rewards. EMERGENCY ONLY.\n    /// @param _pid pool id\n    function emergencyWithdraw(uint256 _pid) external {\n        PoolInfo storage pool = poolInfo[_pid];\n        UserInfo storage user = userInfo[_pid][msg.sender];\n        user.amount = 0;\n        user.rewardDebt = 0;\n        require(\n            pool.poolToken.transfer(address(msg.sender), user.amount),\n            \"Error in emergency withdraw of staked tokens.\"\n        );\n        emit EmergencyWithdraw(msg.sender, _pid, user.amount);\n    }\n\n    /// @notice save pending reward tokens\n    /// @dev save pending reward tokens so user can harvest reward later when needed\n    /// @param _user the user\n    /// @param _pid pool id\n    /// @param _amount amount of reward tokens\n    function savePendingReward(\n        address _user,\n        uint256 _pid,\n        uint256 _amount\n    ) internal {\n        pendingRewardOf[_user][_pid] = pendingRewardOf[_user][_pid] + _amount;\n    }\n\n    function clearPendingReward(address _user, uint256 _pid) internal {\n        pendingRewardOf[_user][_pid] = 0;\n    }\n\n    /// @notice gets previous rewards of a user\n    /// @dev gets the previous rewards of user so that we can add more rewards to it and save\n    /// @param _pid pool id\n    /// @return saved number of rewards of user\n    function getReward(uint256 _pid) internal view returns (uint256) {\n        return pendingRewardOf[msg.sender][_pid];\n    }\n\n    /// @notice gets previous rewards of a user\n    /// @dev gets the previous rewards of user so that we can add more rewards to it and save\n    /// @return total number of pools\n    function poolLength() external view returns (uint256) {\n        return poolInfo.length;\n    }\n\n    /// @notice owner puts reward tokens in contract\n    /// @dev owner can add reward token to contract so that it can be distributed to users\n    /// @param _amount amount of reward tokens\n    function addRewardTokensToContract(uint256 _amount) external onlyOwner {\n        require(\n            rewardToken.transferFrom(msg.sender, address(this), _amount),\n            \"Error in adding reward tokens in contract.\"\n        );\n        emit AddedRewardTokensToContract(_amount);\n    }\n\n    event AddedRewardTokensToContract(uint256 amount);\n\n    /// @notice owner withdraws reward tokens from contract\n    /// @dev owner can withdraw reward token from contract\n    /// @param _amount amount of reward tokens\n    function withdrawRewardTokensFromContract(uint256 _amount)\n        external\n        onlyOwner\n    {\n        require(\n            rewardToken.transfer(msg.sender, _amount),\n            \"Error in getting reward tokens from contract.\"\n        );\n        emit WithdrawnRewardTokensFromContract(_amount);\n    }\n\n    event WithdrawnRewardTokensFromContract(uint256 amount);\n\n    // setters\n\n    /// @notice owner can set multiple values at once\n    /// @dev owner can set multiple values at once so it may save gas cost\n    /// @param _rewardToken the token in which rewards are given\n    /// @param _rewardTokenPerBlock rewards distributed per block to community or users\n    /// @param _startRewardBlock the block at which reward token distribution starts\n    /// @param _endRewardBlock the block at which reward token distribution ends\n    /// @param _unstakeFrozenTime the block at which user can unstake\n    /// @param _rewardFrozenTime the block at which user can harvest reward\n    function setAll(\n        IERC20 _rewardToken,\n        uint256 _rewardTokenPerBlock,\n        uint256 _startRewardBlock,\n        uint256 _endRewardBlock,\n        uint256 _unstakeFrozenTime,\n        uint256 _rewardFrozenTime\n    ) external onlyOwner {\n        rewardToken = _rewardToken;\n        rewardTokenPerBlock = _rewardTokenPerBlock;\n        startRewardBlock = _startRewardBlock;\n        endRewardBlock = _endRewardBlock;\n        unstakeFrozenTime = _unstakeFrozenTime;\n        rewardFrozenTime = _rewardFrozenTime;\n        emit ManyValuesChanged(\n            _rewardToken,\n            _rewardTokenPerBlock,\n            _startRewardBlock,\n            _endRewardBlock,\n            _unstakeFrozenTime,\n            rewardFrozenTime\n        );\n    }\n\n    event ManyValuesChanged(\n        IERC20 rewardToken,\n        uint256 rewardTokenPerBlock,\n        uint256 startRewardBlock,\n        uint256 endRewardBlock,\n        uint256 unstakeFrozenTime,\n        uint256 rewardFrozenTime\n    );\n\n    /// @notice owner can change reward token\n    /// @dev owner can set reward token\n    /// @param _rewardToken the token in which rewards are given\n\n    function setRewardToken(IERC20 _rewardToken) external onlyOwner {\n        rewardToken = _rewardToken;\n        emit RewardTokenChanged(_rewardToken);\n    }\n\n    event RewardTokenChanged(IERC20 rewardToken);\n\n    /// @notice owner can change unstake frozen time\n    /// @dev owner can set unstake frozen time\n    /// @param _unstakeFrozenTime the block at which user can unstake\n    function setUnstakeFrozenTime(uint256 _unstakeFrozenTime)\n        external\n        onlyOwner\n    {\n        unstakeFrozenTime = _unstakeFrozenTime;\n        emit UnstakeFrozenTimeChanged(_unstakeFrozenTime);\n    }\n\n    event UnstakeFrozenTimeChanged(uint256 unstakeFrozenTime);\n\n    /// @notice owner can change reward frozen time\n    /// @dev owner can set reward frozen time\n    /// @param _rewardFrozenTime the block at which user can harvest reward\n    function setRewardFrozenTime(uint256 _rewardFrozenTime) external onlyOwner {\n        rewardFrozenTime = _rewardFrozenTime;\n        emit RewardFrozenTimeChanged(_rewardFrozenTime);\n    }\n\n    event RewardFrozenTimeChanged(uint256 rewardFrozenTime);\n\n    /// @notice owner can change reward token per block\n    /// @dev owner can set reward token per block\n    /// @param _rewardTokenPerBlock rewards distributed per block to community or users\n    function setRewardTokenPerBlock(uint256 _rewardTokenPerBlock)\n        external\n        onlyOwner\n    {\n        rewardTokenPerBlock = _rewardTokenPerBlock;\n        emit RewardTokenPerBlockChanged(_rewardTokenPerBlock);\n    }\n\n    event RewardTokenPerBlockChanged(uint256 rewardTokenPerBlock);\n\n    /// @notice owner can change start reward block\n    /// @dev owner can set start reward block\n    /// @param _startRewardBlock the block at which reward token distribution starts\n    function setStartRewardBlock(uint256 _startRewardBlock) external onlyOwner {\n        require(\n            _startRewardBlock <= endRewardBlock,\n            \"Start block must be less or equal to end reward block.\"\n        );\n        startRewardBlock = _startRewardBlock;\n        emit StartRewardBlockChanged(_startRewardBlock);\n    }\n\n    event StartRewardBlockChanged(uint256 startRewardBlock);\n\n    /// @notice owner can change end reward block\n    /// @dev owner can set end reward block\n    /// @param _endRewardBlock the block at which reward token distribution ends\n\n    function setEndRewardBlock(uint256 _endRewardBlock) external onlyOwner {\n        require(\n            startRewardBlock <= _endRewardBlock,\n            \"End reward block must be greater or equal to start reward block.\"\n        );\n        endRewardBlock = _endRewardBlock;\n        emit EndRewardBlockChanged(_endRewardBlock);\n    }\n\n    event EndRewardBlockChanged(uint256 endRewardBlock);\n\n    /// @notice util function to get reward token balance of this contract\n    function balanceOf() external view returns (uint256) {\n        return balanceOf(msg.sender);\n    }\n\n    /// @notice util function to get reward token balance of this contract\n    /// @param _user how much reward tokens this user has\n    function balanceOf(address _user) public view returns (uint256) {\n        return rewardToken.balanceOf(_user);\n    }\n\n    // migrator\n    IMigratorChef public migrator;\n\n    /// @notice owner can set a migrator contract\n    /// @dev owner can set a migrator contract to migrate pool tokens\n    /// @param _migrator the migrator contract\n    function setMigrator(IMigratorChef _migrator) external onlyOwner {\n        migrator = _migrator;\n    }\n\n    /// @notice the migarting logic\n    /// @dev  Migrate pool token to another pool token contract. Can be called by anyone. We trust that migrator contract is good.\n    /// @param _pid the pool id\n    function migrate(uint256 _pid) external {\n        require(address(migrator) != address(0), \"migrate: no migrator\");\n        PoolInfo storage pool = poolInfo[_pid];\n        IERC20 poolToken = pool.poolToken;\n        uint256 bal = poolToken.balanceOf(address(this));\n        poolToken.approve(address(migrator), bal);\n        IERC20 newpoolToken = migrator.migrate(poolToken);\n        require(bal == newpoolToken.balanceOf(address(this)), \"migrate: bad\");\n        pool.poolToken = newpoolToken;\n    }\n\n    /// @dev owner can change last reward block so that when supply ends no more rewards generated\n    function setUpEndRewardBlock()\n        external\n        onlyOwner\n    {\n        uint256 blocksInWhichRewardWillEnd =\n            balanceOf(address(this)).div(rewardTokenPerBlock);\n        endRewardBlock = block.number + blocksInWhichRewardWillEnd;\n\n        emit EndRewardBlockChanged(endRewardBlock);\n    }\n}\n\ninterface IMigratorChef {\n    /// @notice the migarting logic\n    /// @dev  Migrate pool token to another pool token contract. Can be called by anyone. We trust that migrator contract is good.\n    // Perform pool token migration from legacy UniswapV2 to BirdFarm.\n    // Take the current pool token address and return the new pool token address.\n    // Migrator should have full access to the caller's pool token.\n    // Return the new pool token address.\n    //\n    // Migrator must have allowance access to UniswapV2 LP tokens\n    // Bird Money must mint EXACTLY the same amount of BirdMoney BLP tokens\n    /// @param token the pool token\n    function migrate(IERC20 token) external returns (IERC20);\n}\n\n// todo Bird Money BLP Tokens discuss todo",
  "sourcePath": "/home/muneeb/work/Bird Money/bird-farm-contracts/contracts/BirdFarm.sol",
  "compiler": {
    "name": "solc",
    "version": "0.6.12+commit.27d51765.Emscripten.clang"
  },
  "schemaVersion": "3.3.4",
  "updatedAt": "2021-04-14T21:59:08.639Z",
  "networkType": "ethereum",
  "devdoc": {
    "author": "Bird Money",
    "details": "Admin can add a new Pool, users can deposit pool tokens, harvestReward, withdraw pool tokens",
    "events": {
      "Deposit(address,uint256,uint256)": {
        "details": "deposit tokens in contract to get reward"
      },
      "EmergencyWithdraw(address,uint256,uint256)": {
        "details": "emergeny withdraw of pool tokens from contract"
      },
      "Harvest(address,uint256,uint256)": {
        "details": "harvest tokens from contract to get reward"
      },
      "Withdraw(address,uint256,uint256)": {
        "details": "withdraw deposit tokens in contract to get reward"
      }
    },
    "kind": "dev",
    "methods": {
      "addPool(uint256,address,bool)": {
        "details": "Only adds unique pool token",
        "params": {
          "_allocPoint": "The weight of this pool. The more it is the more percentage of reward per block it will get for its users with respect to other pools. But the total reward per block remains same.",
          "_poolToken": "The Liquidity Pool Token of this pool",
          "_withUpdate": "if true then it updates the reward tokens to be given for each of the tokens staked"
        }
      },
      "addRewardTokensToContract(uint256)": {
        "details": "owner can add reward token to contract so that it can be distributed to users",
        "params": {
          "_amount": "amount of reward tokens"
        }
      },
      "balanceOf(address)": {
        "params": {
          "_user": "how much reward tokens this user has"
        }
      },
      "constructor": {
        "details": "emergeny withdraw of pool tokens from contract",
        "params": {
          "_rewardToken": "the token in which reward will be givenss"
        }
      },
      "deposit(uint256,uint256)": {
        "details": "deposit pool tokens to BirdFarm for reward tokens allocation.",
        "params": {
          "_amount": "how many tokens you want to stake",
          "_pid": "pool id"
        }
      },
      "emergencyWithdraw(uint256)": {
        "details": "get the pool tokens back from BardFarm without caring about rewards. EMERGENCY ONLY.",
        "params": {
          "_pid": "pool id"
        }
      },
      "harvestPendingReward(uint256)": {
        "details": "harvest reward tokens from BidFarm and update pool variables",
        "params": {
          "_pid": "pool id"
        }
      },
      "migrate(uint256)": {
        "details": "Migrate pool token to another pool token contract. Can be called by anyone. We trust that migrator contract is good.",
        "params": {
          "_pid": "the pool id"
        }
      },
      "owner()": {
        "details": "Returns the address of the current owner."
      },
      "pendingRewardToken(uint256,address)": {
        "details": "calculates reward tokens of a user with repect to pool id",
        "params": {
          "_pid": "the pool id",
          "_user": "the user who is calls this function"
        },
        "returns": {
          "_0": "pending reward token of a user"
        }
      },
      "poolLength()": {
        "details": "gets the previous rewards of user so that we can add more rewards to it and save",
        "returns": {
          "_0": "total number of pools"
        }
      },
      "renounceOwnership()": {
        "details": "Leaves the contract without owner. It will not be possible to call `onlyOwner` functions anymore. Can only be called by the current owner. NOTE: Renouncing ownership will leave the contract without an owner, thereby removing any functionality that is only available to the owner."
      },
      "setAll(address,uint256,uint256,uint256,uint256,uint256)": {
        "details": "owner can set multiple values at once so it may save gas cost",
        "params": {
          "_endRewardBlock": "the block at which reward token distribution ends",
          "_rewardFrozenTime": "the block at which user can harvest reward",
          "_rewardToken": "the token in which rewards are given",
          "_rewardTokenPerBlock": "rewards distributed per block to community or users",
          "_startRewardBlock": "the block at which reward token distribution starts",
          "_unstakeFrozenTime": "the block at which user can unstake"
        }
      },
      "setAllocPoint(uint256,uint256,bool)": {
        "details": "it can change weight of pool with repect to other pools",
        "params": {
          "_allocPoint": "The weight of this pool. The more it is the more percentage of reward per block it will get for its users with respect to other pools. But the total reward per block remains same.",
          "_pid": "pool id",
          "_withUpdate": "if true then it updates the reward tokens to be given for each of the tokens staked"
        }
      },
      "setEndRewardBlock(uint256)": {
        "details": "owner can set end reward block",
        "params": {
          "_endRewardBlock": "the block at which reward token distribution ends"
        }
      },
      "setMigrator(address)": {
        "details": "owner can set a migrator contract to migrate pool tokens",
        "params": {
          "_migrator": "the migrator contract"
        }
      },
      "setRewardFrozenTime(uint256)": {
        "details": "owner can set reward frozen time",
        "params": {
          "_rewardFrozenTime": "the block at which user can harvest reward"
        }
      },
      "setRewardToken(address)": {
        "details": "owner can set reward token",
        "params": {
          "_rewardToken": "the token in which rewards are given"
        }
      },
      "setRewardTokenPerBlock(uint256)": {
        "details": "owner can set reward token per block",
        "params": {
          "_rewardTokenPerBlock": "rewards distributed per block to community or users"
        }
      },
      "setStartRewardBlock(uint256)": {
        "details": "owner can set start reward block",
        "params": {
          "_startRewardBlock": "the block at which reward token distribution starts"
        }
      },
      "setUnstakeFrozenTime(uint256)": {
        "details": "owner can set unstake frozen time",
        "params": {
          "_unstakeFrozenTime": "the block at which user can unstake"
        }
      },
      "setUpEndRewardBlock()": {
        "details": "owner can change last reward block so that when supply ends no more rewards generated"
      },
      "transferOwnership(address)": {
        "details": "Transfers ownership of the contract to a new account (`newOwner`). Can only be called by the current owner."
      },
      "withdraw(uint256,uint256)": {
        "details": "withdraw or unstake pool tokens from BidFarm",
        "params": {
          "_amount": "how many pool tokens you want to unstake",
          "_pid": "pool id"
        }
      },
      "withdrawRewardTokensFromContract(uint256)": {
        "details": "owner can withdraw reward token from contract",
        "params": {
          "_amount": "amount of reward tokens"
        }
      }
    },
    "stateVariables": {
      "MAX_UINT": {
        "details": "max number used to set some variable like reward ending block initially"
      },
      "endRewardBlock": {
        "details": "The block number when REWARD_TOKEN distribution stops."
      },
      "poolInfo": {
        "details": "Info of each pool."
      },
      "rewardFrozenTime": {
        "details": "No froze time initially, if needed it can be added and informed to community."
      },
      "rewardToken": {
        "details": "The REWARD_TOKEN TOKEN!"
      },
      "rewardTokenPerBlock": {
        "details": "REWARD_TOKEN tokens created per block."
      },
      "startRewardBlock": {
        "details": "The block number when REWARD_TOKEN distribution starts."
      },
      "totalAllocPoint": {
        "details": "Total allocation poitns. Must be the sum of all allocation points in all pools."
      },
      "uniqueTokenInPool": {
        "details": "To prevent a token to added in multiple pools"
      },
      "unstakeFrozenTime": {
        "details": "No froze time initially, if needed it can be added and informed to community."
      },
      "userInfo": {
        "details": "Info of each user that staked tokens."
      }
    },
    "title": "Farming service for pool tokens",
    "version": 1
  },
  "userdoc": {
    "kind": "user",
    "methods": {
      "addPool(uint256,address,bool)": {
        "notice": "Adds a new pool. Can only be called by the owner."
      },
      "addRewardTokensToContract(uint256)": {
        "notice": "owner puts reward tokens in contract"
      },
      "balanceOf()": {
        "notice": "util function to get reward token balance of this contract"
      },
      "balanceOf(address)": {
        "notice": "util function to get reward token balance of this contract"
      },
      "deposit(uint256,uint256)": {
        "notice": "deposit tokens to get rewards"
      },
      "emergencyWithdraw(uint256)": {
        "notice": "get the tokens which user staked. In case of EMERGENCY ONLY."
      },
      "harvestPendingReward(uint256)": {
        "notice": "harvest reward tokens from BardFarm"
      },
      "migrate(uint256)": {
        "notice": "the migarting logic"
      },
      "pendingRewardToken(uint256,address)": {
        "notice": "get reward tokens to show on UI"
      },
      "poolLength()": {
        "notice": "gets previous rewards of a user"
      },
      "setAll(address,uint256,uint256,uint256,uint256,uint256)": {
        "notice": "owner can set multiple values at once"
      },
      "setAllocPoint(uint256,uint256,bool)": {
        "notice": "Update the given pool's REWARD_TOKEN pool weight. Can only be called by the owner."
      },
      "setEndRewardBlock(uint256)": {
        "notice": "owner can change end reward block"
      },
      "setMigrator(address)": {
        "notice": "owner can set a migrator contract"
      },
      "setRewardFrozenTime(uint256)": {
        "notice": "owner can change reward frozen time"
      },
      "setRewardToken(address)": {
        "notice": "owner can change reward token"
      },
      "setRewardTokenPerBlock(uint256)": {
        "notice": "owner can change reward token per block"
      },
      "setStartRewardBlock(uint256)": {
        "notice": "owner can change start reward block"
      },
      "setUnstakeFrozenTime(uint256)": {
        "notice": "owner can change unstake frozen time"
      },
      "unstakeFrozenTime()": {
        "notice": "user can get reward and unstake after this time only."
      },
      "withdraw(uint256,uint256)": {
        "notice": "get the tokens back from BardFarm"
      },
      "withdrawRewardTokensFromContract(uint256)": {
        "notice": "owner withdraws reward tokens from contract"
      }
    },
    "notice": "You can use this contract to deposit pool tokens and get rewards",
    "version": 1
  }
}