{
  "contractName": "BirdFarm",
  "abi": [
    {
      "inputs": [
        {
          "internalType": "contract IERC20",
          "name": "_rewardToken",
          "type": "address"
        }
      ],
      "stateMutability": "nonpayable",
      "type": "constructor"
    },
    {
      "anonymous": false,
      "inputs": [
        {
          "indexed": false,
          "internalType": "uint256",
          "name": "amount",
          "type": "uint256"
        }
      ],
      "name": "AddedRewardTokensToContract",
      "type": "event"
    },
    {
      "anonymous": false,
      "inputs": [
        {
          "indexed": true,
          "internalType": "address",
          "name": "user",
          "type": "address"
        },
        {
          "indexed": true,
          "internalType": "uint256",
          "name": "pid",
          "type": "uint256"
        },
        {
          "indexed": false,
          "internalType": "uint256",
          "name": "amount",
          "type": "uint256"
        }
      ],
      "name": "Deposit",
      "type": "event"
    },
    {
      "anonymous": false,
      "inputs": [
        {
          "indexed": false,
          "internalType": "uint256",
          "name": "endBlock",
          "type": "uint256"
        }
      ],
      "name": "EndRewardBlockChanged",
      "type": "event"
    },
    {
      "anonymous": false,
      "inputs": [
        {
          "indexed": true,
          "internalType": "address",
          "name": "user",
          "type": "address"
        },
        {
          "indexed": true,
          "internalType": "uint256",
          "name": "pid",
          "type": "uint256"
        },
        {
          "indexed": false,
          "internalType": "uint256",
          "name": "amount",
          "type": "uint256"
        }
      ],
      "name": "Harvest",
      "type": "event"
    },
    {
      "anonymous": false,
      "inputs": [
        {
          "indexed": false,
          "internalType": "contract IERC20",
          "name": "token",
          "type": "address"
        },
        {
          "indexed": false,
          "internalType": "uint256",
          "name": "amount",
          "type": "uint256"
        }
      ],
      "name": "OwnerWithdraw",
      "type": "event"
    },
    {
      "anonymous": false,
      "inputs": [
        {
          "indexed": true,
          "internalType": "address",
          "name": "previousOwner",
          "type": "address"
        },
        {
          "indexed": true,
          "internalType": "address",
          "name": "newOwner",
          "type": "address"
        }
      ],
      "name": "OwnershipTransferred",
      "type": "event"
    },
    {
      "anonymous": false,
      "inputs": [
        {
          "indexed": false,
          "internalType": "uint256",
          "name": "usersCanHarvestAtTime",
          "type": "uint256"
        }
      ],
      "name": "RewardFrozenTimeChanged",
      "type": "event"
    },
    {
      "anonymous": false,
      "inputs": [
        {
          "indexed": false,
          "internalType": "contract IERC20",
          "name": "rewardToken",
          "type": "address"
        }
      ],
      "name": "RewardTokenChanged",
      "type": "event"
    },
    {
      "anonymous": false,
      "inputs": [
        {
          "indexed": false,
          "internalType": "uint256",
          "name": "rewardPerBlock",
          "type": "uint256"
        }
      ],
      "name": "RewardTokenPerBlockChanged",
      "type": "event"
    },
    {
      "anonymous": false,
      "inputs": [
        {
          "indexed": false,
          "internalType": "uint256",
          "name": "startRewardBlock",
          "type": "uint256"
        }
      ],
      "name": "StartRewardBlockChanged",
      "type": "event"
    },
    {
      "anonymous": false,
      "inputs": [
        {
          "indexed": false,
          "internalType": "uint256",
          "name": "usersCanUnstakeAtTime",
          "type": "uint256"
        }
      ],
      "name": "UnstakeFrozenTimeChanged",
      "type": "event"
    },
    {
      "anonymous": false,
      "inputs": [
        {
          "indexed": true,
          "internalType": "address",
          "name": "user",
          "type": "address"
        },
        {
          "indexed": true,
          "internalType": "uint256",
          "name": "pid",
          "type": "uint256"
        },
        {
          "indexed": false,
          "internalType": "uint256",
          "name": "amount",
          "type": "uint256"
        }
      ],
      "name": "Withdraw",
      "type": "event"
    },
    {
      "inputs": [],
      "name": "bonusEndBlock",
      "outputs": [
        {
          "internalType": "uint256",
          "name": "",
          "type": "uint256"
        }
      ],
      "stateMutability": "view",
      "type": "function"
    },
    {
      "inputs": [],
      "name": "endBlock",
      "outputs": [
        {
          "internalType": "uint256",
          "name": "",
          "type": "uint256"
        }
      ],
      "stateMutability": "view",
      "type": "function"
    },
    {
      "inputs": [],
      "name": "owner",
      "outputs": [
        {
          "internalType": "address",
          "name": "",
          "type": "address"
        }
      ],
      "stateMutability": "view",
      "type": "function"
    },
    {
      "inputs": [
        {
          "internalType": "uint256",
          "name": "",
          "type": "uint256"
        }
      ],
      "name": "poolInfo",
      "outputs": [
        {
          "internalType": "contract IERC20",
          "name": "poolToken",
          "type": "address"
        },
        {
          "internalType": "uint256",
          "name": "allocPoint",
          "type": "uint256"
        },
        {
          "internalType": "uint256",
          "name": "lastRewardBlock",
          "type": "uint256"
        },
        {
          "internalType": "uint256",
          "name": "accRewardTokenPerShare",
          "type": "uint256"
        }
      ],
      "stateMutability": "view",
      "type": "function"
    },
    {
      "inputs": [],
      "name": "renounceOwnership",
      "outputs": [],
      "stateMutability": "nonpayable",
      "type": "function"
    },
    {
      "inputs": [],
      "name": "rewardPerBlock",
      "outputs": [
        {
          "internalType": "uint256",
          "name": "",
          "type": "uint256"
        }
      ],
      "stateMutability": "view",
      "type": "function"
    },
    {
      "inputs": [],
      "name": "rewardToken",
      "outputs": [
        {
          "internalType": "contract IERC20",
          "name": "",
          "type": "address"
        }
      ],
      "stateMutability": "view",
      "type": "function"
    },
    {
      "inputs": [],
      "name": "startBlock",
      "outputs": [
        {
          "internalType": "uint256",
          "name": "",
          "type": "uint256"
        }
      ],
      "stateMutability": "view",
      "type": "function"
    },
    {
      "inputs": [],
      "name": "totalAllocPoint",
      "outputs": [
        {
          "internalType": "uint256",
          "name": "",
          "type": "uint256"
        }
      ],
      "stateMutability": "view",
      "type": "function"
    },
    {
      "inputs": [
        {
          "internalType": "address",
          "name": "newOwner",
          "type": "address"
        }
      ],
      "name": "transferOwnership",
      "outputs": [],
      "stateMutability": "nonpayable",
      "type": "function"
    },
    {
      "inputs": [
        {
          "internalType": "uint256",
          "name": "",
          "type": "uint256"
        },
        {
          "internalType": "address",
          "name": "",
          "type": "address"
        }
      ],
      "name": "userInfo",
      "outputs": [
        {
          "internalType": "uint256",
          "name": "amount",
          "type": "uint256"
        },
        {
          "internalType": "uint256",
          "name": "rewardDebt",
          "type": "uint256"
        },
        {
          "internalType": "uint256",
          "name": "reward",
          "type": "uint256"
        }
      ],
      "stateMutability": "view",
      "type": "function"
    },
    {
      "inputs": [],
      "name": "usersCanHarvestAtTime",
      "outputs": [
        {
          "internalType": "uint256",
          "name": "",
          "type": "uint256"
        }
      ],
      "stateMutability": "view",
      "type": "function"
    },
    {
      "inputs": [],
      "name": "usersCanUnstakeAtTime",
      "outputs": [
        {
          "internalType": "uint256",
          "name": "",
          "type": "uint256"
        }
      ],
      "stateMutability": "view",
      "type": "function"
    },
    {
      "inputs": [],
      "name": "poolLength",
      "outputs": [
        {
          "internalType": "uint256",
          "name": "",
          "type": "uint256"
        }
      ],
      "stateMutability": "view",
      "type": "function"
    },
    {
      "inputs": [
        {
          "internalType": "uint256",
          "name": "_allocPoint",
          "type": "uint256"
        },
        {
          "internalType": "contract IERC20",
          "name": "_poolToken",
          "type": "address"
        },
        {
          "internalType": "bool",
          "name": "_withUpdate",
          "type": "bool"
        }
      ],
      "name": "add",
      "outputs": [],
      "stateMutability": "nonpayable",
      "type": "function"
    },
    {
      "inputs": [
        {
          "internalType": "uint256",
          "name": "_pid",
          "type": "uint256"
        },
        {
          "internalType": "uint256",
          "name": "_allocPoint",
          "type": "uint256"
        },
        {
          "internalType": "bool",
          "name": "_withUpdate",
          "type": "bool"
        }
      ],
      "name": "setAllocPoint",
      "outputs": [],
      "stateMutability": "nonpayable",
      "type": "function"
    },
    {
      "inputs": [
        {
          "internalType": "uint256",
          "name": "_pid",
          "type": "uint256"
        },
        {
          "internalType": "address",
          "name": "_user",
          "type": "address"
        }
      ],
      "name": "pendingRewardToken",
      "outputs": [
        {
          "internalType": "uint256",
          "name": "",
          "type": "uint256"
        }
      ],
      "stateMutability": "view",
      "type": "function"
    },
    {
      "inputs": [],
      "name": "massUpdatePools",
      "outputs": [],
      "stateMutability": "nonpayable",
      "type": "function"
    },
    {
      "inputs": [
        {
          "internalType": "uint256",
          "name": "_pid",
          "type": "uint256"
        }
      ],
      "name": "updatePool",
      "outputs": [],
      "stateMutability": "nonpayable",
      "type": "function"
    },
    {
      "inputs": [
        {
          "internalType": "uint256",
          "name": "_pid",
          "type": "uint256"
        },
        {
          "internalType": "uint256",
          "name": "_amount",
          "type": "uint256"
        }
      ],
      "name": "deposit",
      "outputs": [],
      "stateMutability": "nonpayable",
      "type": "function"
    },
    {
      "inputs": [
        {
          "internalType": "uint256",
          "name": "_pid",
          "type": "uint256"
        },
        {
          "internalType": "uint256",
          "name": "_amount",
          "type": "uint256"
        }
      ],
      "name": "withdraw",
      "outputs": [],
      "stateMutability": "nonpayable",
      "type": "function"
    },
    {
      "inputs": [
        {
          "internalType": "uint256",
          "name": "_pid",
          "type": "uint256"
        }
      ],
      "name": "harvest",
      "outputs": [],
      "stateMutability": "nonpayable",
      "type": "function"
    },
    {
      "inputs": [
        {
          "internalType": "uint256",
          "name": "_amount",
          "type": "uint256"
        }
      ],
      "name": "addRewardTokensToContract",
      "outputs": [],
      "stateMutability": "nonpayable",
      "type": "function"
    },
    {
      "inputs": [
        {
          "internalType": "contract IERC20",
          "name": "_token",
          "type": "address"
        },
        {
          "internalType": "uint256",
          "name": "_amount",
          "type": "uint256"
        }
      ],
      "name": "withdrawAnyTokenFromConntract",
      "outputs": [],
      "stateMutability": "nonpayable",
      "type": "function"
    },
    {
      "inputs": [
        {
          "internalType": "contract IERC20",
          "name": "_rewardToken",
          "type": "address"
        }
      ],
      "name": "setRewardToken",
      "outputs": [],
      "stateMutability": "nonpayable",
      "type": "function"
    },
    {
      "inputs": [
        {
          "internalType": "uint256",
          "name": "_usersCanUnstakeAtTime",
          "type": "uint256"
        }
      ],
      "name": "setUnstakeFrozenTime",
      "outputs": [],
      "stateMutability": "nonpayable",
      "type": "function"
    },
    {
      "inputs": [
        {
          "internalType": "uint256",
          "name": "_usersCanHarvestAtTime",
          "type": "uint256"
        }
      ],
      "name": "setRewardFrozenTime",
      "outputs": [],
      "stateMutability": "nonpayable",
      "type": "function"
    },
    {
      "inputs": [
        {
          "internalType": "uint256",
          "name": "_rewardPerBlock",
          "type": "uint256"
        }
      ],
      "name": "setRewardTokenPerBlock",
      "outputs": [],
      "stateMutability": "nonpayable",
      "type": "function"
    },
    {
      "inputs": [
        {
          "internalType": "uint256",
          "name": "_startBlock",
          "type": "uint256"
        }
      ],
      "name": "setStartRewardBlock",
      "outputs": [],
      "stateMutability": "nonpayable",
      "type": "function"
    },
    {
      "inputs": [
        {
          "internalType": "uint256",
          "name": "_endBlock",
          "type": "uint256"
        }
      ],
      "name": "setEndRewardBlock",
      "outputs": [],
      "stateMutability": "nonpayable",
      "type": "function"
    }
  ],
  "bytecode": "0x60806040526000600255670214e8348c4f000060035560006006556000600755600060085560006009556000600a556000600c5534801561003f57600080fd5b506040516121ca3803806121ca8339818101604052602081101561006257600080fd5b5051600061006e6100dd565b600080546001600160a01b0319166001600160a01b0383169081178255604051929350917f8be0079c531659141344cd1fd0a4f28419497f9722a3daafe3b4186f6b6457e0908290a350600180546001600160a01b0319166001600160a01b03929092169190911790556100e1565b3390565b6120da806100f06000396000f3fe608060405234801561001057600080fd5b50600436106101da5760003560e01c8063630b5ba111610104578063a0f99203116100a2578063ddc6326211610071578063ddc63262146104c9578063e2bbb158146104e6578063f2fde38b14610509578063f7c618c11461052f576101da565b8063a0f992031461045c578063c2c8535114610487578063c9cc2e8e1461048f578063d7406965146104ac576101da565b80638ae39cac116100de5780638ae39cac146103c05780638aee8127146103c85780638da5cb5b146103ee57806393f1a40b14610412576101da565b8063630b5ba114610393578063715018a61461039b5780637ffc319b146103a3576101da565b80631df3b3c11161017c5780634e3629661161014b5780634e3629661461031f57806351eb05a61461033c578063580aceee1461035957806362b9e09814610376576101da565b80631df3b3c1146102b85780631eaaa045146102c0578063441a3e70146102f457806348cd4cb114610317576101da565b80631653fd33116101b85780631653fd331461024e57806317caf6f11461027a5780631a7ed3c8146102825780631aed6553146102b0576101da565b8063081e3eda146101df578063083c6323146101f95780631526fe2714610201575b600080fd5b6101e7610537565b60408051918252519081900360200190f35b6101e761053d565b61021e6004803603602081101561021757600080fd5b5035610543565b604080516001600160a01b0390951685526020850193909352838301919091526060830152519081900360800190f35b6101e76004803603604081101561026457600080fd5b50803590602001356001600160a01b0316610584565b6101e7610708565b6102ae6004803603604081101561029857600080fd5b506001600160a01b03813516906020013561070e565b005b6101e76107cc565b6101e76107d2565b6102ae600480360360608110156102d657600080fd5b508035906001600160a01b03602082013516906040013515156107d8565b6102ae6004803603604081101561030a57600080fd5b50803590602001356109e8565b6101e7610bad565b6102ae6004803603602081101561033557600080fd5b5035610bb3565b6102ae6004803603602081101561035257600080fd5b5035610c91565b6102ae6004803603602081101561036f57600080fd5b5035610dca565b6102ae6004803603602081101561038c57600080fd5b5035610f5f565b6102ae61103d565b6102ae611060565b6102ae600480360360208110156103b957600080fd5b503561110c565b6101e76111a9565b6102ae600480360360208110156103de57600080fd5b50356001600160a01b03166111af565b6103f6611265565b604080516001600160a01b039092168252519081900360200190f35b61043e6004803603604081101561042857600080fd5b50803590602001356001600160a01b0316611274565b60408051938452602084019290925282820152519081900360600190f35b6102ae6004803603606081101561047257600080fd5b508035906020810135906040013515156112a0565b6101e761137b565b6102ae600480360360208110156104a557600080fd5b5035611381565b6102ae600480360360208110156104c257600080fd5b503561141e565b6102ae600480360360208110156104df57600080fd5b50356114bb565b6102ae600480360360408110156104fc57600080fd5b5080359060200135611608565b6102ae6004803603602081101561051f57600080fd5b50356001600160a01b031661174a565b6103f661184c565b60045490565b60085481565b6004818154811061055057fe5b600091825260209091206004909102018054600182015460028301546003909301546001600160a01b039092169350919084565b6000806004848154811061059457fe5b600091825260208083208784526005825260408085206001600160a01b03898116875290845281862060049586029093016003810154815484516370a0823160e01b81523098810198909852935191985093969395939492909116926370a08231926024808301939192829003018186803b15801561061257600080fd5b505afa158015610626573d6000803e3d6000fd5b505050506040513d602081101561063c57600080fd5b505160028501549091504311801561065357508015155b156106bf57600061066885600201544361185b565b9050600061069b600654610695886001015461068f6003548761191990919063ffffffff16565b90611919565b90611979565b90506106ba6106b3846106958464e8d4a51000611919565b85906119e0565b935050505b6106fb6106f084600101546106ea64e8d4a5100061069587896000015461191990919063ffffffff16565b90611a3a565b6002850154906119e0565b9450505050505b92915050565b60065481565b610716611a97565b6001600160a01b0316610727611265565b6001600160a01b031614610770576040805162461bcd60e51b81526020600482018190526024820152600080516020611f87833981519152604482015290519081900360640190fd5b6107846001600160a01b0383163383611a9b565b604080516001600160a01b03841681526020810183905281517f13c461eb29f5d65800bbef5a5b05a06ea13b8b2ef4b889ee170f149bc1c8f8bd929181900390910190a15050565b60025481565b600a5481565b6107e0611a97565b6001600160a01b03166107f1611265565b6001600160a01b03161461083a576040805162461bcd60e51b81526020600482018190526024820152600080516020611f87833981519152604482015290519081900360640190fd5b6001600160a01b0382166000908152600b602052604090205460ff161561089e576040805162461bcd60e51b8152602060048201526013602482015272151bdad95b88185b1c9958591e481859191959606a1b604482015290519081900360640190fd5b6001600160a01b0382166000908152600b60205260409020805460ff1916600117905580156108cf576108cf61103d565b600060075443116108e2576007546108e4565b435b6006549091506108f490856119e0565b600655604080516080810182526001600160a01b03948516815260208101958652908101918252600060608201818152600480546001810182559281905292517f8a35acfbc15ff81a39ae7d344fd709f28e8600b4aa8c65c6b64bfe7fe36bd19b9290930291820180546001600160a01b031916939096169290921790945593517f8a35acfbc15ff81a39ae7d344fd709f28e8600b4aa8c65c6b64bfe7fe36bd19c840155517f8a35acfbc15ff81a39ae7d344fd709f28e8600b4aa8c65c6b64bfe7fe36bd19d8301555090517f8a35acfbc15ff81a39ae7d344fd709f28e8600b4aa8c65c6b64bfe7fe36bd19e90910155565b60008111610a275760405162461bcd60e51b8152600401808060200182810382526024815260200180611fd16024913960400191505060405180910390fd5b6009544211610a675760405162461bcd60e51b81526004018080602001828103825260268152602001806120556026913960400191505060405180910390fd5b600060048381548110610a7657fe5b600091825260208083208684526005825260408085203386529092529220805460049092029092019250831115610ade5760405162461bcd60e51b815260040180806020018281038252602a81526020018061202b602a913960400191505060405180910390fd5b610ae784610c91565b6000610b1582600101546106ea64e8d4a510006106958760030154876000015461191990919063ffffffff16565b60028301805482019055600c805486900390558254909150610b379085611a3a565b8083556003840154610b549164e8d4a51000916106959190611919565b60018301558254610b6f906001600160a01b03163386611a9b565b604080518581529051869133917ff279e6a1f5e320cca91135676d9cb6e44ca8a08c0b88342bcdb1144f6511b5689181900360200190a35050505050565b60075481565b610bbb611a97565b6001600160a01b0316610bcc611265565b6001600160a01b031614610c15576040805162461bcd60e51b81526020600482018190526024820152600080516020611f87833981519152604482015290519081900360640190fd5b806007541115610c565760405162461bcd60e51b8152600401808060200182810382526040815260200180611f266040913960400191505060405180910390fd5b60088190556040805182815290517fe7d85683063a512b0ea7c9d84ce4ff33b516bc16b36f3dc5a98dd0b479d9f1319181900360200190a150565b600c54610ca057610ca0611af2565b600060048281548110610caf57fe5b9060005260206000209060040201905080600201544311610cd05750610dc7565b8054604080516370a0823160e01b815230600482015290516000926001600160a01b0316916370a08231916024808301926020929190829003018186803b158015610d1a57600080fd5b505afa158015610d2e573d6000803e3d6000fd5b505050506040513d6020811015610d4457600080fd5b5051905080610d5a575043600290910155610dc7565b6000610d6a83600201544361185b565b90506000610d91600654610695866001015461068f6003548761191990919063ffffffff16565b9050610db4610da9846106958464e8d4a51000611919565b6003860154906119e0565b6003850155505043600290920191909155505b50565b610dd2611a97565b6001600160a01b0316610de3611265565b6001600160a01b031614610e2c576040805162461bcd60e51b81526020600482018190526024820152600080516020611f87833981519152604482015290519081900360640190fd5b6000610e436003548361197990919063ffffffff16565b90506000600854600014610e5957600854610e5b565b435b828101600855600154604080516323b872dd60e01b81523360048201523060248201526044810187905290519293506001600160a01b03909116916323b872dd916064808201926020929091908290030181600087803b158015610ebe57600080fd5b505af1158015610ed2573d6000803e3d6000fd5b505050506040513d6020811015610ee857600080fd5b5051610f255760405162461bcd60e51b815260040180806020018281038252602a815260200180611fa7602a913960400191505060405180910390fd5b60085460408051918252517fe7d85683063a512b0ea7c9d84ce4ff33b516bc16b36f3dc5a98dd0b479d9f1319181900360200190a1505050565b610f67611a97565b6001600160a01b0316610f78611265565b6001600160a01b031614610fc1576040805162461bcd60e51b81526020600482018190526024820152600080516020611f87833981519152604482015290519081900360640190fd5b6008548111156110025760405162461bcd60e51b8152600401808060200182810382526036815260200180611ff56036913960400191505060405180910390fd5b60078190556040805182815290517ff0b3b2831f479a7321e755a2b6ef2ae0b5e32985a8959e61ffaec437194f4d3a9181900360200190a150565b60045460005b8181101561105c5761105481610c91565b600101611043565b5050565b611068611a97565b6001600160a01b0316611079611265565b6001600160a01b0316146110c2576040805162461bcd60e51b81526020600482018190526024820152600080516020611f87833981519152604482015290519081900360640190fd5b600080546040516001600160a01b03909116907f8be0079c531659141344cd1fd0a4f28419497f9722a3daafe3b4186f6b6457e0908390a3600080546001600160a01b0319169055565b611114611a97565b6001600160a01b0316611125611265565b6001600160a01b03161461116e576040805162461bcd60e51b81526020600482018190526024820152600080516020611f87833981519152604482015290519081900360640190fd5b600a8190556040805182815290517faef38fc0702b0fad4b1dfce7e29092e26412be5abfadfabb118c6124d8880b6d9181900360200190a150565b60035481565b6111b7611a97565b6001600160a01b03166111c8611265565b6001600160a01b031614611211576040805162461bcd60e51b81526020600482018190526024820152600080516020611f87833981519152604482015290519081900360640190fd5b600180546001600160a01b0383166001600160a01b0319909116811790915560408051918252517fb74d956cf6ec7842d08ebf0ab19ec03a88c1efd4a50ea4349d30f9c4ce512e989181900360200190a150565b6000546001600160a01b031690565b600560209081526000928352604080842090915290825290208054600182015460029092015490919083565b6112a8611a97565b6001600160a01b03166112b9611265565b6001600160a01b031614611302576040805162461bcd60e51b81526020600482018190526024820152600080516020611f87833981519152604482015290519081900360640190fd5b80156113105761131061103d565b61134d826113476004868154811061132457fe5b906000526020600020906004020160010154600654611a3a90919063ffffffff16565b906119e0565b600681905550816004848154811061136157fe5b906000526020600020906004020160010181905550505050565b60095481565b611389611a97565b6001600160a01b031661139a611265565b6001600160a01b0316146113e3576040805162461bcd60e51b81526020600482018190526024820152600080516020611f87833981519152604482015290519081900360640190fd5b60098190556040805182815290517f9e009f63830ca738bff6fbc38990622b83298c321dceb9b8c064b903c066db6d9181900360200190a150565b611426611a97565b6001600160a01b0316611437611265565b6001600160a01b031614611480576040805162461bcd60e51b81526020600482018190526024820152600080516020611f87833981519152604482015290519081900360640190fd5b60038190556040805182815290517f0914eb57aaf7dc30fb65a4997a39040c8c91ebe3bdd5226dde439f7a5fefaf6a9181900360200190a150565b600a544211611511576040805162461bcd60e51b815260206004820152601d60248201527f43616e206e6f74206861727665737420617420746869732074696d652e000000604482015290519081900360640190fd5b60006004828154811061152057fe5b6000918252602080832085845260058252604080852033865290925292206004909102909101915061155183610c91565b600061157f82600101546106ea64e8d4a510006106958760030154876000015461191990919063ffffffff16565b600283018054600090915560038501548454929350908301916115ac9164e8d4a510009161069591611919565b600180850191909155546115ca906001600160a01b03163383611a9b565b604080518381529051869133917f71bab65ced2e5750775a0613be067df48ef06cf92a496ebf7663ae06609249549181900360200190a35050505050565b60006004838154811061161757fe5b600091825260208083208684526005825260408085203386529092529220600490910290910191508261167b5760405162461bcd60e51b8152600401808060200182810382526023815260200180611edd6023913960400191505060405180910390fd5b61168484610c91565b60006116b282600101546106ea64e8d4a510006106958760030154876000015461191990919063ffffffff16565b60028301805482019055600c80548601905582549091506116d390856119e0565b80835560038401546116f09164e8d4a51000916106959190611919565b6001830155825461170c906001600160a01b0316333087611b88565b604080518581529051869133917f90890809c654f11d6e72a28fa60149770a0d11ec6c92319d6ceb2bb0a4ea1a159181900360200190a35050505050565b611752611a97565b6001600160a01b0316611763611265565b6001600160a01b0316146117ac576040805162461bcd60e51b81526020600482018190526024820152600080516020611f87833981519152604482015290519081900360640190fd5b6001600160a01b0381166117f15760405162461bcd60e51b8152600401808060200182810382526026815260200180611eb76026913960400191505060405180910390fd5b600080546040516001600160a01b03808516939216917f8be0079c531659141344cd1fd0a4f28419497f9722a3daafe3b4186f6b6457e091a3600080546001600160a01b0319166001600160a01b0392909216919091179055565b6001546001600160a01b031681565b600854600090839083908211156118725760085491505b80600854101561188157506008545b60075481101561189657600092505050610702565b600754821080156118a8575080600754105b156118b35760075491505b60025481116118d4576118cb600a61068f8385611a3a565b92505050610702565b60025482106118e7576118cb8183611a3a565b6118cb6118ff60025483611a3a90919063ffffffff16565b611347600a61068f86600254611a3a90919063ffffffff16565b60008261192857506000610702565b8282028284828161193557fe5b04146119725760405162461bcd60e51b8152600401808060200182810382526021815260200180611f666021913960400191505060405180910390fd5b9392505050565b60008082116119cf576040805162461bcd60e51b815260206004820152601a60248201527f536166654d6174683a206469766973696f6e206279207a65726f000000000000604482015290519081900360640190fd5b8183816119d857fe5b049392505050565b600082820183811015611972576040805162461bcd60e51b815260206004820152601b60248201527f536166654d6174683a206164646974696f6e206f766572666c6f770000000000604482015290519081900360640190fd5b600082821115611a91576040805162461bcd60e51b815260206004820152601e60248201527f536166654d6174683a207375627472616374696f6e206f766572666c6f770000604482015290519081900360640190fd5b50900390565b3390565b604080516001600160a01b038416602482015260448082018490528251808303909101815260649091019091526020810180516001600160e01b031663a9059cbb60e01b179052611aed908490611be8565b505050565b600354600154604080516370a0823160e01b81523060048201529051611b8393611b7c9390926001600160a01b03909116916370a0823191602480820192602092909190829003018186803b158015611b4a57600080fd5b505afa158015611b5e573d6000803e3d6000fd5b505050506040513d6020811015611b7457600080fd5b505190611979565b43906119e0565b600855565b604080516001600160a01b0380861660248301528416604482015260648082018490528251808303909101815260849091019091526020810180516001600160e01b03166323b872dd60e01b179052611be2908590611be8565b50505050565b6060611c3d826040518060400160405280602081526020017f5361666545524332303a206c6f772d6c6576656c2063616c6c206661696c6564815250856001600160a01b0316611c999092919063ffffffff16565b805190915015611aed57808060200190516020811015611c5c57600080fd5b5051611aed5760405162461bcd60e51b815260040180806020018281038252602a81526020018061207b602a913960400191505060405180910390fd5b6060611ca88484600085611cb0565b949350505050565b606082471015611cf15760405162461bcd60e51b8152600401808060200182810382526026815260200180611f006026913960400191505060405180910390fd5b611cfa85611e0c565b611d4b576040805162461bcd60e51b815260206004820152601d60248201527f416464726573733a2063616c6c20746f206e6f6e2d636f6e7472616374000000604482015290519081900360640190fd5b60006060866001600160a01b031685876040518082805190602001908083835b60208310611d8a5780518252601f199092019160209182019101611d6b565b6001836020036101000a03801982511681845116808217855250505050505090500191505060006040518083038185875af1925050503d8060008114611dec576040519150601f19603f3d011682016040523d82523d6000602084013e611df1565b606091505b5091509150611e01828286611e12565b979650505050505050565b3b151590565b60608315611e21575081611972565b825115611e315782518084602001fd5b8160405162461bcd60e51b81526004018080602001828103825283818151815260200191508051906020019080838360005b83811015611e7b578181015183820152602001611e63565b50505050905090810190601f168015611ea85780820380516001836020036101000a031916815260200191505b509250505060405180910390fdfe4f776e61626c653a206e6577206f776e657220697320746865207a65726f20616464726573734d757374206465706f73697420616d6f756e74206d6f7265207468616e207a65726f2e416464726573733a20696e73756666696369656e742062616c616e636520666f722063616c6c456e642072657761726420626c6f636b206d7573742062652067726561746572206f7220657175616c20746f2073746172742072657761726420626c6f636b2e536166654d6174683a206d756c7469706c69636174696f6e206f766572666c6f774f776e61626c653a2063616c6c6572206973206e6f7420746865206f776e65724572726f7220696e20616464696e672072657761726420746f6b656e7320696e20636f6e74726163742e4d75737420776974686472617720616d6f756e74206d6f7265207468616e207a65726f2e537461727420626c6f636b206d757374206265206c657373206f7220657175616c20746f20656e642072657761726420626c6f636b2e596f7520646f206e6f74206861766520656e6f75676820706f6f6c20746f6b656e73207374616b65642e43616e206e6f742077697468647261772f756e7374616b6520617420746869732074696d652e5361666545524332303a204552433230206f7065726174696f6e20646964206e6f742073756363656564a26469706673582212208994981573e70a3f1b57838c9e1f8dce0f68095b59dd25e7449ed2e5bd95767c64736f6c634300060c0033",
  "immutableReferences": {},
  "source": "// SPDX-License-Identifier: MIT\npragma solidity 0.6.12;\n\nimport \"@openzeppelin/contracts/math/SafeMath.sol\";\nimport \"@openzeppelin/contracts/token/ERC20/SafeERC20.sol\";\nimport \"@openzeppelin/contracts/token/ERC20/ERC20.sol\";\nimport \"@openzeppelin/contracts/token/ERC20/IERC20.sol\";\nimport \"@openzeppelin/contracts/access/Ownable.sol\";\n\n// BirdFarm is the master of RewardToken. He can make RewardToken and he is a fair guy.\n//\n// Note that it's ownable and the owner wields tremendous power. The ownership\n// will be transferred to a governance smart contract once REWARD_TOKEN is sufficiently\n// distributed and the community can show to govern itself.\n//\n// Have fun reading it. Hopefully it's bug-free. God bless.\n\n/// @title Farming service for pool tokens\n/// @author Bird Money\n/// @notice You can use this contract to deposit pool tokens and get rewards\n/// @dev Admin can add a new Pool, users can deposit pool tokens, harvestReward, withdraw pool tokens\ncontract BirdFarm is Ownable {\n    using SafeMath for uint256;\n    using SafeERC20 for IERC20;\n\n    // Info of each user.\n    struct UserInfo {\n        uint256 amount; // How many pool tokens the user has provided.\n        uint256 rewardDebt; // Reward debt. See explanation below.\n        uint256 reward; // Reward to be given to user\n        //\n        // We do some fancy math here. Basically, any point in time, the amount of REWARD_TOKENs\n        // entitled to a user but is pending to be distributed is:\n        //\n        //   pending reward = (user.amount * pool.accRewardTokenPerShare) - user.rewardDebt\n        //\n        // Whenever a user deposits or withdraws pool tokens to a pool. Here's what happens:\n        //   1. The pool's `accRewardTokenPerShare` (and `lastRewardBlock`) gets updated.\n        //   2. User receives the pending reward sent to his/her address.\n        //   3. User's `amount` gets updated.\n        //   4. User's `rewardDebt` gets updated.\n    }\n\n    // Info of each pool.\n    struct PoolInfo {\n        IERC20 poolToken; // Address of pool token contract.\n        uint256 allocPoint; // How many allocation points assigned to this pool. REWARD_TOKENs to distribute per block.\n        uint256 lastRewardBlock; // Last block number that REWARD_TOKENs distribution occurs.\n        uint256 accRewardTokenPerShare; // Accumulated REWARD_TOKENs per share, times 1e12. See below.\n    }\n\n    /// @dev The REWARD_TOKEN TOKEN!\n    IERC20 public rewardToken;\n\n    /// @dev Block number when bonus REWARD_TOKEN period ends.\n    uint256 public bonusEndBlock = 0;\n\n    /// @notice REWARD_TOKEN tokens created per block.\n    /// @dev its equal to approx 1000 reward tokens per day\n    uint256 public rewardPerBlock = 0.15 ether;\n\n    // Bonus muliplier for early rewardToken makers.\n    uint256 private constant BONUS_MULTIPLIER = 10;\n\n    /// @dev Info of each pool.\n    PoolInfo[] public poolInfo;\n\n    /// @dev Info of each user that stakes pool tokens.\n    mapping(uint256 => mapping(address => UserInfo)) public userInfo;\n\n    /// @dev Total allocation poitns. Must be the sum of all allocation points in all pools.\n    uint256 public totalAllocPoint = 0;\n\n    /// @dev The block number when REWARD_TOKEN mining starts.\n    uint256 public startBlock = 0;\n\n    /// @dev The block number when REWARD_TOKEN mining ends.\n    uint256 public endBlock = 0;\n\n    /// @notice user can get reward and unstake after this time only.\n    /// @dev No unstake froze time initially, if needed it can be added and informed to community.\n    uint256 public usersCanUnstakeAtTime = 0 seconds;\n\n    /// @dev No reward froze time initially, if needed it can be added and informed to community.\n    uint256 public usersCanHarvestAtTime = 0 seconds;\n\n    // to store only unique pool tokens in pools\n    mapping(IERC20 => bool) private uniqueTokenInPool;\n\n    /// @dev when some one deposits pool tokens to contract\n    event Deposit(address indexed user, uint256 indexed pid, uint256 amount);\n\n    /// @dev when some one withdraws pool tokens from contract\n    event Withdraw(address indexed user, uint256 indexed pid, uint256 amount);\n\n    /// @dev when some one harvests reward tokens from contract\n    event Harvest(address indexed user, uint256 indexed pid, uint256 amount);\n\n    constructor(IERC20 _rewardToken) public {\n        rewardToken = _rewardToken;\n    }\n\n    /// @notice gets total number of pools\n    /// @return total number of pools\n    function poolLength() external view returns (uint256) {\n        return poolInfo.length;\n    }\n\n    /// @notice This adds a new pool. Can only be called by the owner.\n    /// @dev Only adds unique pool token\n    /// @param _allocPoint The weight of this pool. The more it is the more percentage of reward per block it will get for its users with respect to other pools. But the total reward per block remains same.\n    /// @param _poolToken The Liquidity Pool Token of this pool\n    /// @param _withUpdate if true then it updates the reward tokens to be given for each of the tokens staked\n    function add(\n        uint256 _allocPoint,\n        IERC20 _poolToken,\n        bool _withUpdate\n    ) external onlyOwner {\n        require(!uniqueTokenInPool[_poolToken], \"Token already added\");\n        uniqueTokenInPool[_poolToken] = true;\n\n        if (_withUpdate) {\n            massUpdatePools();\n        }\n        uint256 lastRewardBlock =\n            block.number > startBlock ? block.number : startBlock;\n        totalAllocPoint = totalAllocPoint.add(_allocPoint);\n        poolInfo.push(\n            PoolInfo({\n                poolToken: _poolToken,\n                allocPoint: _allocPoint,\n                lastRewardBlock: lastRewardBlock,\n                accRewardTokenPerShare: 0\n            })\n        );\n    }\n\n    /// @notice Update the given pool's REWARD_TOKEN pool weight. Can only be called by the owner.\n    /// @dev it can change alloc point (weight of pool) with repect to other pools\n    /// @param _pid pool id\n    /// @param _allocPoint The weight of this pool. The more it is the more percentage of reward per block it will get for its users with respect to other pools. But the total reward per block remains same.\n    /// @param _withUpdate if true then it updates the reward tokens to be given for each of the tokens staked\n    function setAllocPoint(\n        uint256 _pid,\n        uint256 _allocPoint,\n        bool _withUpdate\n    ) external onlyOwner {\n        if (_withUpdate) {\n            massUpdatePools();\n        }\n        totalAllocPoint = totalAllocPoint.sub(poolInfo[_pid].allocPoint).add(\n            _allocPoint\n        );\n        poolInfo[_pid].allocPoint = _allocPoint;\n    }\n\n    // Return number of blocks between _from to _to block which are applicable for reward tokens. if multiplier returns 10 blocks then 10 * reward per block = 50 coins to be given as reward. equally to community. with repect to pool weight.\n    function getMultiplier(uint256 _from, uint256 _to)\n        internal\n        view\n        returns (uint256)\n    {\n        uint256 from = _from;\n        uint256 to = _to;\n        if (endBlock < from) from = endBlock;\n        if (endBlock < to) to = endBlock;\n        if (to < startBlock) return 0;\n        if (from < startBlock && startBlock < to) from = startBlock;\n\n        if (to <= bonusEndBlock) {\n            return to.sub(from).mul(BONUS_MULTIPLIER);\n        } else if (from >= bonusEndBlock) {\n            return to.sub(from);\n        } else {\n            return\n                bonusEndBlock.sub(from).mul(BONUS_MULTIPLIER).add(\n                    to.sub(bonusEndBlock)\n                );\n        }\n    }\n\n    /// @notice get reward tokens to show on UI\n    /// @dev calculates reward tokens of a user with repect to pool id\n    /// @param _pid the pool id\n    /// @param _user the user who is calls this function\n    /// @return pending reward tokens of a user\n    function pendingRewardToken(uint256 _pid, address _user)\n        external\n        view\n        returns (uint256)\n    {\n        PoolInfo storage pool = poolInfo[_pid];\n        UserInfo storage user = userInfo[_pid][_user];\n        uint256 accRewardTokenPerShare = pool.accRewardTokenPerShare;\n        uint256 poolSupply = pool.poolToken.balanceOf(address(this));\n        if (block.number > pool.lastRewardBlock && poolSupply != 0) {\n            uint256 multiplier =\n                getMultiplier(pool.lastRewardBlock, block.number);\n            uint256 rewardTokenReward =\n                multiplier.mul(rewardPerBlock).mul(pool.allocPoint).div(\n                    totalAllocPoint\n                );\n            accRewardTokenPerShare = accRewardTokenPerShare.add(\n                rewardTokenReward.mul(1e12).div(poolSupply)\n            );\n        }\n        return\n            user.reward.add(\n                user.amount.mul(accRewardTokenPerShare).div(1e12).sub(\n                    user.rewardDebt\n                )\n            );\n    }\n\n    /// @notice Update reward vairables for all pools. Be careful of gas spending!\n    function massUpdatePools() public {\n        uint256 length = poolInfo.length;\n        for (uint256 pid = 0; pid < length; ++pid) {\n            updatePool(pid);\n        }\n    }\n\n    uint256 private stakedTokens = 0;\n\n    /// @notice Update reward variables of the given pool to be up-to-date.\n    /// @param _pid the pool id\n    function updatePool(uint256 _pid) public {\n        if (stakedTokens == 0) configTheEndRewardBlock(); // to stop making reward when reward tokens are empty in BirdFarm\n\n        PoolInfo storage pool = poolInfo[_pid];\n\n        if (block.number <= pool.lastRewardBlock) {\n            return;\n        }\n        uint256 poolSupply = pool.poolToken.balanceOf(address(this));\n        if (poolSupply == 0) {\n            pool.lastRewardBlock = block.number;\n            return;\n        }\n\n        uint256 multiplier = getMultiplier(pool.lastRewardBlock, block.number);\n        uint256 rewardTokenReward =\n            multiplier.mul(rewardPerBlock).mul(pool.allocPoint).div(\n                totalAllocPoint\n            );\n        pool.accRewardTokenPerShare = pool.accRewardTokenPerShare.add(\n            rewardTokenReward.mul(1e12).div(poolSupply)\n        );\n        pool.lastRewardBlock = block.number;\n    }\n\n    /// @notice deposit tokens to get rewards\n    /// @dev deposit pool tokens to BirdFarm for reward tokens allocation.\n    /// @param _pid pool id\n    /// @param _amount how many tokens you want to stake\n    function deposit(uint256 _pid, uint256 _amount) external {\n        PoolInfo storage pool = poolInfo[_pid];\n        UserInfo storage user = userInfo[_pid][msg.sender];\n        require(_amount > 0, \"Must deposit amount more than zero.\");\n\n        updatePool(_pid);\n\n        uint256 pending =\n            user.amount.mul(pool.accRewardTokenPerShare).div(1e12).sub(\n                user.rewardDebt\n            );\n        user.reward += pending;\n\n        stakedTokens += _amount;\n        user.amount = user.amount.add(_amount);\n        user.rewardDebt = user.amount.mul(pool.accRewardTokenPerShare).div(\n            1e12\n        );\n        pool.poolToken.safeTransferFrom(\n            address(msg.sender),\n            address(this),\n            _amount\n        ); \n        emit Deposit(msg.sender, _pid, _amount);\n    }\n\n    /// @notice get the tokens back from BardFarm\n    /// @dev withdraw or unstake pool tokens from BidFarm\n    /// @param _pid pool id\n    /// @param _amount how many pool tokens you want to unstake\n    function withdraw(uint256 _pid, uint256 _amount) external {\n        require(_amount > 0, \"Must withdraw amount more than zero.\");\n        require(\n            now > usersCanUnstakeAtTime,\n            \"Can not withdraw/unstake at this time.\"\n        );\n        PoolInfo storage pool = poolInfo[_pid];\n        UserInfo storage user = userInfo[_pid][msg.sender];\n        require(\n            user.amount >= _amount,\n            \"You do not have enough pool tokens staked.\"\n        );\n        updatePool(_pid);\n        uint256 pending =\n            user.amount.mul(pool.accRewardTokenPerShare).div(1e12).sub(\n                user.rewardDebt\n            );\n        user.reward += pending;\n\n        stakedTokens -= _amount;\n        user.amount = user.amount.sub(_amount);\n        user.rewardDebt = user.amount.mul(pool.accRewardTokenPerShare).div(\n            1e12\n        );\n        pool.poolToken.safeTransfer(address(msg.sender), _amount);\n        emit Withdraw(msg.sender, _pid, _amount);\n    }\n\n    /// @notice harvest reward tokens from BardFarm\n    /// @dev harvest reward tokens from BidFarm and update pool variables\n    /// @param _pid pool id\n    function harvest(uint256 _pid) external {\n        require(now > usersCanHarvestAtTime, \"Can not harvest at this time.\");\n        PoolInfo storage pool = poolInfo[_pid];\n        UserInfo storage user = userInfo[_pid][msg.sender];\n        updatePool(_pid);\n        uint256 pending =\n            user.amount.mul(pool.accRewardTokenPerShare).div(1e12).sub(\n                user.rewardDebt\n            );\n        user.reward += pending;\n        uint256 rewardToGiveNow = user.reward;\n        user.reward = 0;\n\n        user.rewardDebt = user.amount.mul(pool.accRewardTokenPerShare).div(\n            1e12\n        );\n\n        rewardToken.safeTransfer(msg.sender, rewardToGiveNow);\n        emit Harvest(msg.sender, _pid, pending);\n    }\n\n   \n    function configTheEndRewardBlock() internal {\n        endBlock = block.number.add(\n            (rewardToken.balanceOf(address(this)).div(rewardPerBlock))\n        );\n    }\n\n    /// @notice owner puts reward tokens in contract\n    /// @dev owner can add reward token to contract so that it can be distributed to users\n    /// @param _amount amount of reward tokens\n    function addRewardTokensToContract(uint256 _amount) external onlyOwner {\n        uint256 rewardEndsInBlocks = _amount.div(rewardPerBlock);\n\n        uint256 lastEndBlock = endBlock == 0 ? block.number : endBlock;\n        endBlock = lastEndBlock + rewardEndsInBlocks;\n\n        require(\n            rewardToken.transferFrom(msg.sender, address(this), _amount),\n            \"Error in adding reward tokens in contract.\"\n        );\n        emit EndRewardBlockChanged(endBlock);\n    }\n\n    event AddedRewardTokensToContract(uint256 amount);\n\n    /// @notice owner takes out any tokens in contract\n    /// @dev owner can take out any locked tokens in contract\n    /// @param _token the token owner wants to take out from contract\n    /// @param _amount amount of tokens\n    function withdrawAnyTokenFromConntract(IERC20 _token, uint256 _amount) external onlyOwner {\n        _token.safeTransfer(msg.sender, _amount);\n        emit OwnerWithdraw(_token, _amount);\n    }\n\n    event OwnerWithdraw(IERC20 token, uint256 amount);\n\n\n    /// @notice owner can change reward token\n    /// @dev owner can set reward token\n    /// @param _rewardToken the token in which rewards are given\n    function setRewardToken(IERC20 _rewardToken) external onlyOwner {\n        rewardToken = _rewardToken;\n        emit RewardTokenChanged(_rewardToken);\n    }\n\n    /// @dev When reward token changes\n    /// @param rewardToken the token in which rewards are given\n    event RewardTokenChanged(IERC20 rewardToken);\n\n    /// @notice owner can change unstake frozen time\n    /// @dev owner can set unstake frozen time\n    /// @param _usersCanUnstakeAtTime the block at which user can unstake\n    function setUnstakeFrozenTime(uint256 _usersCanUnstakeAtTime)\n        external\n        onlyOwner\n    {\n        usersCanUnstakeAtTime = _usersCanUnstakeAtTime;\n        emit UnstakeFrozenTimeChanged(_usersCanUnstakeAtTime);\n    }\n\n    /// @dev When Unstake Frozen Time Changed\n    /// @param usersCanUnstakeAtTime after this time users can unstake\n    event UnstakeFrozenTimeChanged(uint256 usersCanUnstakeAtTime);\n\n    /// @notice owner can change reward frozen time\n    /// @dev owner can set reward frozen time\n    /// @param _usersCanHarvestAtTime the block at which user can harvest reward\n    function setRewardFrozenTime(uint256 _usersCanHarvestAtTime)\n        external\n        onlyOwner\n    {\n        usersCanHarvestAtTime = _usersCanHarvestAtTime;\n        emit RewardFrozenTimeChanged(_usersCanHarvestAtTime);\n    }\n\n    /// @dev When Reward Frozen Time Changed\n    /// @param usersCanHarvestAtTime after this time users can harvest\n    event RewardFrozenTimeChanged(uint256 usersCanHarvestAtTime);\n\n    /// @notice owner can change reward token per block\n    /// @dev owner can set reward token per block\n    /// @param _rewardPerBlock rewards distributed per block to community or users\n    function setRewardTokenPerBlock(uint256 _rewardPerBlock)\n        external\n        onlyOwner\n    {\n        rewardPerBlock = _rewardPerBlock;\n        emit RewardTokenPerBlockChanged(_rewardPerBlock);\n    }\n\n    /// @dev When Reward Token Per Block is changed\n    /// @param rewardPerBlock reward tokens made in each block\n    event RewardTokenPerBlockChanged(uint256 rewardPerBlock);\n\n    /// @notice owner can change start reward block\n    /// @dev owner can set start reward block\n    /// @param _startBlock the block at which reward token distribution starts\n    function setStartRewardBlock(uint256 _startBlock) external onlyOwner {\n        require(\n            _startBlock <= endBlock,\n            \"Start block must be less or equal to end reward block.\"\n        );\n        startBlock = _startBlock;\n        emit StartRewardBlockChanged(_startBlock);\n    }\n\n    /// @dev Start Reward Block Changed\n    /// @param startRewardBlock block when rewards are distributed per block to community or users\n    event StartRewardBlockChanged(uint256 startRewardBlock);\n\n    /// @notice owner can change end reward block\n    /// @dev owner can set end reward block\n    /// @param _endBlock the block at which reward token distribution ends\n    function setEndRewardBlock(uint256 _endBlock) external onlyOwner {\n        require(\n            startBlock <= _endBlock,\n            \"End reward block must be greater or equal to start reward block.\"\n        );\n        endBlock = _endBlock;\n        emit EndRewardBlockChanged(_endBlock);\n    }\n\n    /// @dev End Reward Block Changed\n    /// @param endBlock block when rewards are ended to be distributed per block to community or users\n    event EndRewardBlockChanged(uint256 endBlock);\n}\n",
  "sourcePath": "/home/muneeb/proj/bird/farm-contracts/contracts/BirdFarm.sol",
  "compiler": {
    "name": "solc",
    "version": "0.6.12+commit.27d51765.Emscripten.clang"
  },
  "schemaVersion": "3.4.0",
  "updatedAt": "2021-05-05T19:36:57.372Z",
  "networkType": "ethereum",
  "devdoc": {
    "author": "Bird Money",
    "details": "Admin can add a new Pool, users can deposit pool tokens, harvestReward, withdraw pool tokens",
    "events": {
      "Deposit(address,uint256,uint256)": {
        "details": "when some one deposits pool tokens to contract"
      },
      "EndRewardBlockChanged(uint256)": {
        "details": "End Reward Block Changed",
        "params": {
          "endBlock": "block when rewards are ended to be distributed per block to community or users"
        }
      },
      "Harvest(address,uint256,uint256)": {
        "details": "when some one harvests reward tokens from contract"
      },
      "RewardFrozenTimeChanged(uint256)": {
        "details": "When Reward Frozen Time Changed",
        "params": {
          "usersCanHarvestAtTime": "after this time users can harvest"
        }
      },
      "RewardTokenChanged(address)": {
        "details": "When reward token changes",
        "params": {
          "rewardToken": "the token in which rewards are given"
        }
      },
      "RewardTokenPerBlockChanged(uint256)": {
        "details": "When Reward Token Per Block is changed",
        "params": {
          "rewardPerBlock": "reward tokens made in each block"
        }
      },
      "StartRewardBlockChanged(uint256)": {
        "details": "Start Reward Block Changed",
        "params": {
          "startRewardBlock": "block when rewards are distributed per block to community or users"
        }
      },
      "UnstakeFrozenTimeChanged(uint256)": {
        "details": "When Unstake Frozen Time Changed",
        "params": {
          "usersCanUnstakeAtTime": "after this time users can unstake"
        }
      },
      "Withdraw(address,uint256,uint256)": {
        "details": "when some one withdraws pool tokens from contract"
      }
    },
    "kind": "dev",
    "methods": {
      "add(uint256,address,bool)": {
        "details": "Only adds unique pool token",
        "params": {
          "_allocPoint": "The weight of this pool. The more it is the more percentage of reward per block it will get for its users with respect to other pools. But the total reward per block remains same.",
          "_poolToken": "The Liquidity Pool Token of this pool",
          "_withUpdate": "if true then it updates the reward tokens to be given for each of the tokens staked"
        }
      },
      "addRewardTokensToContract(uint256)": {
        "details": "owner can add reward token to contract so that it can be distributed to users",
        "params": {
          "_amount": "amount of reward tokens"
        }
      },
      "deposit(uint256,uint256)": {
        "details": "deposit pool tokens to BirdFarm for reward tokens allocation.",
        "params": {
          "_amount": "how many tokens you want to stake",
          "_pid": "pool id"
        }
      },
      "harvest(uint256)": {
        "details": "harvest reward tokens from BidFarm and update pool variables",
        "params": {
          "_pid": "pool id"
        }
      },
      "owner()": {
        "details": "Returns the address of the current owner."
      },
      "pendingRewardToken(uint256,address)": {
        "details": "calculates reward tokens of a user with repect to pool id",
        "params": {
          "_pid": "the pool id",
          "_user": "the user who is calls this function"
        },
        "returns": {
          "_0": "pending reward tokens of a user"
        }
      },
      "poolLength()": {
        "returns": {
          "_0": "total number of pools"
        }
      },
      "renounceOwnership()": {
        "details": "Leaves the contract without owner. It will not be possible to call `onlyOwner` functions anymore. Can only be called by the current owner. NOTE: Renouncing ownership will leave the contract without an owner, thereby removing any functionality that is only available to the owner."
      },
      "setAllocPoint(uint256,uint256,bool)": {
        "details": "it can change alloc point (weight of pool) with repect to other pools",
        "params": {
          "_allocPoint": "The weight of this pool. The more it is the more percentage of reward per block it will get for its users with respect to other pools. But the total reward per block remains same.",
          "_pid": "pool id",
          "_withUpdate": "if true then it updates the reward tokens to be given for each of the tokens staked"
        }
      },
      "setEndRewardBlock(uint256)": {
        "details": "owner can set end reward block",
        "params": {
          "_endBlock": "the block at which reward token distribution ends"
        }
      },
      "setRewardFrozenTime(uint256)": {
        "details": "owner can set reward frozen time",
        "params": {
          "_usersCanHarvestAtTime": "the block at which user can harvest reward"
        }
      },
      "setRewardToken(address)": {
        "details": "owner can set reward token",
        "params": {
          "_rewardToken": "the token in which rewards are given"
        }
      },
      "setRewardTokenPerBlock(uint256)": {
        "details": "owner can set reward token per block",
        "params": {
          "_rewardPerBlock": "rewards distributed per block to community or users"
        }
      },
      "setStartRewardBlock(uint256)": {
        "details": "owner can set start reward block",
        "params": {
          "_startBlock": "the block at which reward token distribution starts"
        }
      },
      "setUnstakeFrozenTime(uint256)": {
        "details": "owner can set unstake frozen time",
        "params": {
          "_usersCanUnstakeAtTime": "the block at which user can unstake"
        }
      },
      "transferOwnership(address)": {
        "details": "Transfers ownership of the contract to a new account (`newOwner`). Can only be called by the current owner."
      },
      "updatePool(uint256)": {
        "params": {
          "_pid": "the pool id"
        }
      },
      "withdraw(uint256,uint256)": {
        "details": "withdraw or unstake pool tokens from BidFarm",
        "params": {
          "_amount": "how many pool tokens you want to unstake",
          "_pid": "pool id"
        }
      },
      "withdrawAnyTokenFromConntract(address,uint256)": {
        "details": "owner can take out any locked tokens in contract",
        "params": {
          "_amount": "amount of tokens",
          "_token": "the token owner wants to take out from contract"
        }
      }
    },
    "stateVariables": {
      "bonusEndBlock": {
        "details": "Block number when bonus REWARD_TOKEN period ends."
      },
      "endBlock": {
        "details": "The block number when REWARD_TOKEN mining ends."
      },
      "poolInfo": {
        "details": "Info of each pool."
      },
      "rewardPerBlock": {
        "details": "its equal to approx 1000 reward tokens per day"
      },
      "rewardToken": {
        "details": "The REWARD_TOKEN TOKEN!"
      },
      "startBlock": {
        "details": "The block number when REWARD_TOKEN mining starts."
      },
      "totalAllocPoint": {
        "details": "Total allocation poitns. Must be the sum of all allocation points in all pools."
      },
      "userInfo": {
        "details": "Info of each user that stakes pool tokens."
      },
      "usersCanHarvestAtTime": {
        "details": "No reward froze time initially, if needed it can be added and informed to community."
      },
      "usersCanUnstakeAtTime": {
        "details": "No unstake froze time initially, if needed it can be added and informed to community."
      }
    },
    "title": "Farming service for pool tokens",
    "version": 1
  },
  "userdoc": {
    "kind": "user",
    "methods": {
      "add(uint256,address,bool)": {
        "notice": "This adds a new pool. Can only be called by the owner."
      },
      "addRewardTokensToContract(uint256)": {
        "notice": "owner puts reward tokens in contract"
      },
      "deposit(uint256,uint256)": {
        "notice": "deposit tokens to get rewards"
      },
      "harvest(uint256)": {
        "notice": "harvest reward tokens from BardFarm"
      },
      "massUpdatePools()": {
        "notice": "Update reward vairables for all pools. Be careful of gas spending!"
      },
      "pendingRewardToken(uint256,address)": {
        "notice": "get reward tokens to show on UI"
      },
      "poolLength()": {
        "notice": "gets total number of pools"
      },
      "rewardPerBlock()": {
        "notice": "REWARD_TOKEN tokens created per block."
      },
      "setAllocPoint(uint256,uint256,bool)": {
        "notice": "Update the given pool's REWARD_TOKEN pool weight. Can only be called by the owner."
      },
      "setEndRewardBlock(uint256)": {
        "notice": "owner can change end reward block"
      },
      "setRewardFrozenTime(uint256)": {
        "notice": "owner can change reward frozen time"
      },
      "setRewardToken(address)": {
        "notice": "owner can change reward token"
      },
      "setRewardTokenPerBlock(uint256)": {
        "notice": "owner can change reward token per block"
      },
      "setStartRewardBlock(uint256)": {
        "notice": "owner can change start reward block"
      },
      "setUnstakeFrozenTime(uint256)": {
        "notice": "owner can change unstake frozen time"
      },
      "updatePool(uint256)": {
        "notice": "Update reward variables of the given pool to be up-to-date."
      },
      "usersCanUnstakeAtTime()": {
        "notice": "user can get reward and unstake after this time only."
      },
      "withdraw(uint256,uint256)": {
        "notice": "get the tokens back from BardFarm"
      },
      "withdrawAnyTokenFromConntract(address,uint256)": {
        "notice": "owner takes out any tokens in contract"
      }
    },
    "notice": "You can use this contract to deposit pool tokens and get rewards",
    "version": 1
  }
}